:1000000018040010D9080000F5080000F9080000E5
:10001000FD08000001090000050900001EC6FFEFF1
:1000200000000000000000000000000009090000BE
:100030000D09000000000000110900004D0700003C
:10004000190900001D090000210900002509000010
:10005000290900002D0900003109000035090000C0
:10006000390900003D090000410900004509000070
:1000700049090000000000004D090000510900007E
:1000800055090000590900005D09000061090000E0
:1000900065090000690900006D0900007109000090
:1000A00075090000790900007D0900008109000040
:1000B00085090000890900008D09000091090000F0
:1000C00095090000990900009D090000A1090000A0
:1000D000A5090000A9090000AD090000B109000050
:0400E000B50900005E
:1001400030B4DFF8EC030068C00500F19180DFF8FF
:10015000E4030068C0073ED4DFF8D403006810F061
:100160001F00002804D1DFF8D003002101600BE05C
:10017000DFF8C803DFF8B813096811F01F01B0FBFE
:10018000F1F0DFF8B4130860DFF8B403006810F092
:100190001F00002804D1DFF8AC03002101600BE050
:1001A000DFF89803DFF89813096811F01F01B0FB1E
:1001B000F1F0DFF890130860DFF87C030068DFF8E7
:1001C0008813096811F00101491CB0FBF1F0DFF858
:1001D0007C130860DFE0DFF87803006840060CD489
:1001E000DFF8540300210160DFF8580300210160AB
:1001F000DFF8580300210160CDE0DFF83403006828
:1002000010F01F00002804D1DFF82C03002101604A
:100210000BE0DFF82803DFF81813096811F01F015D
:10022000B0FBF1F0DFF810130860DFF8140300688A
:1002300010F01F00002804D1DFF80803002101603E
:100240000AE0DFF8F802DFF8F812096811F01F0180
:10025000B0FBF1F0BB490860B7480068BA490968CB
:1002600011F00101491CB0FBF1F0B849086092E0BF
:10027000B8480068C00509D4AF4800210160B14802
:1002800000210160B1480021016084E0A9480068B4
:10029000C00739D4AF48006810F01F00401CA449C3
:1002A000096811F01F01A64A126812F01F02A64B3E
:1002B0001B6813F001035B1CC9B2002903D19E4CDB
:1002C0000025256008E0C0B29C4C04FB00F4C9B2D4
:1002D000B4FBF1F4984D2C60D2B2002A03D1994CB2
:1002E0000025256008E0C0B2944C04FB00F4D2B2B3
:1002F000B4FBF2F4934D2C608F4C2468DBB2B4FB5A
:10030000F3F3924C236046E091480068400609D41C
:100310008948002101608B48002101608B48002141
:10032000016038E08B48006810F01F00401C8049D5
:10033000096811F01F01824A126812F01F02824BF5
:100340001B6813F001035B1CC9B2002903D17A4C6E
:100350000025256008E0C0B2784C04FB00F4C9B267
:10036000B4FBF1F4744D2C60D2B2002A03D1754C69
:100370000025256008E0C0B2704C04FB00F4D2B246
:10038000B4FBF2F46F4D2C606B4C2468DBB2B4FB11
:10039000F3F36E4C236070480068C00531D56E4899
:1003A000006810F01F00002804D0042806D006289A
:1003B00004D022E069480021016041E065480068FE
:1003C00010F01F00401C6449096811F01F01594AD0
:1003D0001268D20708D5C0B2584A5043C9B2B0FB20
:1003E000F1F05E49086007E0C0B2544A5043C9B218
:1003F000B0FBF1F05949086022E058480021016043
:100400001EE055480068800517D54A480068C007B7
:1004100009D55348006810F01F00401C4749484365
:100420004E4908600CE04B48006810F01F00401C6B
:10043000424948434949086002E0484800210160B8
:1004400030BC70473EB447484749484A00230C68CF
:10045000029414680194029C454DAC4205D1019B65
:10046000444CA34201D1012300E00023DBB2002B66
:1004700007D004680094009C54F470040094009C1D
:10048000046037BC704780B5FFF7DCFF304820219F
:1004900001602F4800684006FBD526480121016015
:1004A0003548092101603548012101603448AA21FD
:1004B0000160334855210160264800684005FBD59E
:1004C0003048232101603048012101602F48AA21D2
:1004D00001602E4855210160214800684005FBD588
:1004E000134840F2011101601B4840F201210160F4
:1004F00015480121016026480221016010480221AF
:10050000016024482449016024484FF4807101604F
:100510002348006850F0030021490860214845F253
:100520003A010160204800210160FFF709FE01BD8A
:1005300004C10F400CC10F4000000010001BB700A9
:10054000A8C10F400400001000C10F4008000010B7
:10055000A0C10F4088C00F4008C10F400C00001020
:10056000A8C00F4088ED00E040EF00E044EF00E05D
:10057000210011101100001184C00F4080C00F40F5
:100580008CC00F40A4C00F40A0C00F40ACC00F40B3
:10059000B4C10F40C4C00F40DE872804C8C10F405B
:1005A000B0C10F4000C00F4008ED00E00100002086
:1005B000C9B2002908D002290CD008D304290FD0D1
:1005C0000BD305290FD011E02B4A10000EE02B4A67
:1005D00010000BE02A4A100008E02A4A100005E04B
:1005E000294A100002E0294A1000FFE7704780B551
:1005F00001214FF4004000F063F801BD70B5040024
:100600000D0016002000C0B2FFF7D0FF002809D06F
:10061000F6B2002E03D001682943016002E00168B0
:10062000A943016070BD38B504000D002000C0B2C0
:10063000FFF7BCFF002800D0856131BD38B504004C
:100640000D002000C0B2FFF7B1FF002800D0C56147
:1006500031BD70B504000D001600F6B2002E05D1B4
:1006600029002000C0B2FFF7E9FF04E029002000C4
:10067000C0B2FFF7D8FF70BD00800920208009209C
:10068000408009206080092080800920A080092006
:100690000100C9B2002905D0022909D005D30329D8
:1006A00009D00BE00F48006809E00F48006806E039
:1006B0000E48006803E00E48006800E0FEE770475F
:1006C000C9B2012905D10B4A12680243094B1A60CD
:1006D00007E0C9B2002904D1064A12688243054BDB
:1006E0001A6070470000001004000010080000109D
:1006F0000C000010C4C00F4040B2002808D540B222
:1007000010F00F02194BD2184B0102F8043C03E021
:1007100040B2174A4B018354704710B50400B4F13E
:10072000807F01D3012010E02002000A401E114901
:10073000086007215FF0FF30FFF7DEFF0E48002161
:1007400001600E4807210160002010BD0C480068C0
:10075000401C0B4908607047094A12681100084A9A
:100760001268521A8242FAD37047000018ED00E076
:1007700000E400E014E000E018E000E010E000E039
:100780001000001038B500240020FFF781FF05009D
:100790004FF47A70B5FBF0F0401EFFF7BEFFFFF795
:1007A00026FF01225FF480210120FFF727FF2200AE
:1007B000D2B25FF480210120FFF74BFFE4B2002C9E
:1007C00001D1012400E000245020FFF7C5FFEEE72F
:1007D00080B5FFF7D7FF002002BD10B450F8041B0E
:1007E00081B102681218001D50F8043BDC0744BFB9
:1007F000A9F10104E31852F8044B43F8044B091F14
:10080000F9D1EBE710BC704710B5084979441C31A9
:10081000074C7C441A34A14206D0081D0A685118BE
:1008200088470146A142F8D110BD00BF2C0000004E
:100830004C00000050F8041B61B150F8042BD307A2
:1008400044BFA9F101039A18002342F8043B091F91
:10085000FAD1EFE770470000DDFFFFFF0400000062
:10086000100000100000000073FFFFFF10000000E8
:100870004C01000000000010000000004EF68851FE
:10088000CEF20001086840F4700008604FF000707C
:10089000E1EE100A7047000000F009F8002801D0CE
:1008A000FFF7B2FF0020FFF793FF00F002F80120EE
:1008B000704700F001B800000746384600F002F823
:1008C000FBE7000080B5C046C046024A1100182070
:1008D000ABBEFBE726000200014880470148004705
:1008E00087040000E9080000C046C046FFF7C6FFC5
:1008F000FFF7D2FFFFF7FEBFFFF7FEBFFFF7FEBF18
:10090000FFF7FEBFFFF7FEBFFFF7FEBFFFF7FEBF1B
:10091000FFF7FEBFFFF71ABFFFF7FEBFFFF7FEBFEF
:10092000FFF7FEBFFFF7FEBFFFF7FEBFFFF7FEBFFB
:10093000FFF7FEBFFFF7FEBFFFF7FEBFFFF7FEBFEB
:10094000FFF7FEBFFFF7FEBFFFF7FEBFFFF7FEBFDB
:10095000FFF7FEBFFFF7FEBFFFF7FEBFFFF7FEBFCB
:10096000FFF7FEBFFFF7FEBFFFF7FEBFFFF7FEBFBB
:10097000FFF7FEBFFFF7FEBFFFF7FEBFFFF7FEBFAB
:10098000FFF7FEBFFFF7FEBFFFF7FEBFFFF7FEBF9B
:10099000FFF7FEBFFFF7FEBFFFF7FEBFFFF7FEBF8B
:1009A000FFF7FEBFFFF7FEBFFFF7FEBFFFF7FEBF7B
:1009B000FFF7FEBFFFF7FEBFFFFFFFFF000E270799
:0C09C0000087930300879303006CDC02A7
:04000005000008E906
:00000001FF
