:1000000018040010510800006D080000710800007D
:1000100075080000790800007D0800004EC9FFEF58
:100020000000000000000000000000008108000047
:10003000850800000000000089080000E1060000BB
:100040009108000095080000990800009D08000034
:10005000A1080000A5080000A9080000AD080000E4
:10006000B1080000B5080000B9080000BD08000094
:10007000C108000000000000C5080000C908000019
:10008000CD080000D1080000D5080000D908000004
:10009000DD080000E1080000E5080000E9080000B4
:1000A000ED080000F1080000F5080000F908000064
:1000B000FD08000001090000050900000909000011
:1000C0000D090000110900001509000019090000C0
:1000D0001D09000021090000250900002909000070
:0400E0002D090000E6
:1001400030B4DFF894030068C00500F18880DFF860
:100150008C030068C0073ED4DFF87C03006810F011
:100160001F00002804D1DFF87803002101600BE0B4
:10017000DFF87003DFF86013096811F01F01B0FBAE
:10018000F1F0DFF85C130860DFF85C03006810F042
:100190001F00002804D1DFF85403002101600BE0A8
:1001A000DFF84003DFF84013096811F01F01B0FBCE
:1001B000F1F0DFF838130860DFF824030068DFF897
:1001C0003013096811F00101491CB0FBF1F0DFF8B0
:1001D00024130860D6E0DFF82003006840060CD442
:1001E000DFF8FC0200210160DFF80003002101605C
:1001F000DFF8000300210160C4E0B748006810F098
:100200001F00002803D1B6480021016008E0B5486E
:10021000B149096811F01F01B0FBF1F0B049086065
:10022000B148006810F01F00002803D1AF4800213A
:10023000016008E0AB48AC49096811F01F01B0FB50
:10024000F1F0AA490860A6480068A949096811F0B8
:100250000101491CB0FBF1F0A649086092E0A748F3
:100260000068C00509D49E48002101609F48002114
:100270000160A0480021016084E098480068C00740
:1002800039D49E48006810F01F00401C924909684C
:1002900011F01F01944A126812F01F02944B1B6860
:1002A00013F001035B1CC9B2002903D18C4C00255B
:1002B000256008E0C0B28B4C04FB00F4C9B2B4FB6B
:1002C000F1F4874D2C60D2B2002A03D1874C00256F
:1002D000256008E0C0B2834C04FB00F4D2B2B4FB4A
:1002E000F2F4824D2C607E4C2468DBB2B4FBF3F355
:1002F000804C236046E080480068400609D4784876
:10030000002101607948002101607A4800210160E4
:1003100038E07A48006810F01F00401C6E490968F8
:1003200011F01F01704A126812F01F02704B1B6817
:1003300013F001035B1CC9B2002903D1684C0025EE
:10034000256008E0C0B2674C04FB00F4C9B2B4FBFE
:10035000F1F4634D2C60D2B2002A03D1634C002526
:10036000256008E0C0B25F4C04FB00F4D2B2B4FBDD
:10037000F2F45E4D2C605A4C2468DBB2B4FBF3F30C
:100380005C4C23605E480068C00531D55C4800685D
:1003900010F01F00002804D0042806D0062804D03E
:1003A00022E058480021016041E05448006810F004
:1003B0001F00401C5249096811F01F01474A12688A
:1003C000D20708D5C0B2474A5043C9B2B0FBF1F0DA
:1003D0004C49086007E0C0B2424A5043C9B2B0FB82
:1003E000F1F04849086022E04648002101601EE023
:1003F00043480068800517D538480068C00709D50C
:100400004148006810F01F00401C364948433D49F0
:1004100008600CE03948006810F01F00401C3149AA
:1004200048433849086002E036480021016030BC8A
:10043000704780B53048202101602F480068400691
:10044000FBD5264801210160304809210160304870
:10045000012101602F48AA2101602E485521016029
:10046000264800684005FBD52B48232101602B4816
:10047000012101602A48AA21016029485521016013
:10048000214800684005FBD5134840F20111016086
:100490001B4840F2012101601548012101602148FB
:1004A000022101601048022101601F481F490160BC
:1004B0001F484FF4807101601E48006850F003002F
:1004C0001C4908601C4845F23A0101601B480021A4
:1004D0000160FFF735FE01BD04C10F400CC10F40A4
:1004E00000000010001BB700A8C10F40040000105E
:1004F00000C10F4008000010A0C10F4088C00F408D
:1005000008C10F400C000010A8C00F4084C00F406D
:1005100080C00F408CC00F40A4C00F40A0C00F404F
:10052000ACC00F40B4C10F40C4C00F40DE872804E8
:10053000C8C10F40B0C10F4000C00F4008ED00E03F
:1005400001000020C9B2002908D002290CD008D32C
:1005500004290FD00BD305290FD011E02B4A10002E
:100560000EE02B4A10000BE02A4A100008E02A4A4D
:10057000100005E0294A100002E0294A1000FFE7B8
:10058000704780B501214FF4004000F063F801BDD1
:1005900070B504000D0016002000C0B2FFF7D0FFB8
:1005A000002809D0F6B2002E03D00168294301606B
:1005B00002E00168A943016070BD38B504000D0078
:1005C0002000C0B2FFF7BCFF002800D0856131BD1C
:1005D00038B504000D002000C0B2FFF7B1FF0028BD
:1005E00000D0C56131BD70B504000D001600F6B233
:1005F000002E05D129002000C0B2FFF7E9FF04E07A
:1006000029002000C0B2FFF7D8FF70BD008009208C
:1006100020800920408009206080092080800920F6
:10062000A08009200100C9B2002905D0022909D003
:1006300005D3032909D00BE00F48006809E00F48F3
:10064000006806E00E48006803E00E48006800E01D
:10065000FEE77047C9B2012905D10B4A126802436F
:10066000094B1A6007E0C9B2002904D1064A126892
:100670008243054B1A607047000000100400001010
:10068000080000100C000010C4C00F4040B2002849
:1006900008D540B210F00F02194BD2184B0102F8E6
:1006A000043C03E040B2174A4B018354704710B535
:1006B0000400B4F1807F01D3012010E02002000A81
:1006C000401E1149086007215FF0FF30FFF7DEFF91
:1006D0000E48002101600E4807210160002010BD76
:1006E0000C480068401C0B4908607047094A1268B2
:1006F0001100084A1268521A8242FAD37047000069
:1007000018ED00E000E400E014E000E018E000E094
:1007100010E000E01000001038B500240020FFF7C2
:1007200081FF05004FF47A70B5FBF0F0401EFFF733
:10073000BEFFFFF726FF01225FF480210120FFF7B3
:1007400027FF2200D2B25FF480210120FFF74BFF88
:10075000E4B2002C01D1012400E000245020FFF776
:10076000C5FFEEE780B5FFF7D7FF002002BD10B44C
:1007700050F8041B81B102681218001D50F8043BA8
:10078000DC0744BFA9F10104E31852F8044B43F815
:10079000044B091FF9D1EBE710BC704710B50849AD
:1007A00079441C31074C7C441A34A14206D0081D00
:1007B0000A68511888470146A142F8D110BD00BF10
:1007C0002C0000004C00000050F8041B61B150F8F0
:1007D000042BD30744BFA9F101039A18002342F860
:1007E000043B091FFAD1EFE770470000DDFFFFFF70
:1007F00004000000100000100000000073FFFFFF65
:100800001000000030010000000000100000000097
:1008100000F009F8002801D0FFF7C0FF0020FFF723
:10082000A1FF00F002F80120704700F001B80000BD
:100830000746384600F002F8FBE7000080B5C046E6
:10084000C046024A11001820ABBEFBE7260002009A
:100850000148804701480047330400006108000058
:10086000C046C046C046C046FFF7D2FFFFF7FEBFF6
:10087000FFF7FEBFFFF7FEBFFFF7FEBFFFF7FEBFAC
:10088000FFF7FEBFFFF7FEBFFFF7FEBFFFF728BF72
:10089000FFF7FEBFFFF7FEBFFFF7FEBFFFF7FEBF8C
:1008A000FFF7FEBFFFF7FEBFFFF7FEBFFFF7FEBF7C
:1008B000FFF7FEBFFFF7FEBFFFF7FEBFFFF7FEBF6C
:1008C000FFF7FEBFFFF7FEBFFFF7FEBFFFF7FEBF5C
:1008D000FFF7FEBFFFF7FEBFFFF7FEBFFFF7FEBF4C
:1008E000FFF7FEBFFFF7FEBFFFF7FEBFFFF7FEBF3C
:1008F000FFF7FEBFFFF7FEBFFFF7FEBFFFF7FEBF2C
:10090000FFF7FEBFFFF7FEBFFFF7FEBFFFF7FEBF1B
:10091000FFF7FEBFFFF7FEBFFFF7FEBFFFF7FEBF0B
:10092000FFF7FEBFFFF7FEBFFFF7FEBFFFF7FEBFFB
:10093000FFFFFFFF000E2707008793030087930345
:04094000006CDC0269
:04000005000008618E
:00000001FF
