:020000040000FA
:1000000050060010F900000001010000030100008B
:100010000501000007010000090100009EF3FFEF49
:100020000000000000000000000000000B010000C4
:100030000D010000000000000F0100001101000090
:100040001301000013010000130100001301000060
:100050001301000013010000130100001301000050
:100060001301000013010000130100001301000040
:100070001301000000000000130100001301000044
:1000800013010000A5290000130100001301000066
:100090001301000013010000130100001301000010
:1000A0001301000013010000130100001301000000
:1000B00013010000130100001301000013010000F0
:1000C00013010000130100001301000013010000E0
:1000D00013010000130100001301000013010000D0
:1000E00013010000DFF80CD002F0C4FE0048004706
:1000F0003D2D000050060010064880470648004786
:10010000FEE7FEE7FEE7FEE7FEE7FEE7FEE7FEE7C7
:10011000FEE7FEE7CF050000E500000070B50646EB
:100120000D4636B1012E12D0022E1ED0032E3ED126
:1001300029E04448006820F01F0405F01F0040EA51
:1001400004044148C0F8044100F0DAF831E03F48C7
:10015000006820F01F0405F01F0040EA04043A483C
:10016000C0F8A84100F0CCF823E03948006820F03E
:10017000010405F0010040EA04043348C0F80041DE
:1001800000F0BEF815E03348006820F01F0405F0C9
:100190001F0040EA04042C48D0F8080105F01F01B4
:1001A00040EA01002B49086000F0AAF801E000BF16
:1001B000FEE700BF70BD014631B1012907D0022919
:1001C00008D003290CD108E0234800687047234871
:1001D0000068FBE722480068F8E722480068F5E776
:1001E00000BFFEE7012907D11F4A126842EA000258
:1001F000154BC3F8C42007E031B91B4A126822EA44
:100200000002114BC3F8C420704700201749086052
:1002100030BF704704201649086000201349086069
:1002200030BF704704201249086001200F49086060
:1002300030BF704704200E49086003200B49086056
:1002400030BF704704C10F4000C00F40A8C10F402D
:1002500000C10F4008C10F40000000100400001052
:10026000080000100C000010C4C00F40C0C00F40B8
:1002700010ED00E02DE9F05F0546002092469B4618
:1002800088460646814640241BE0284641464746AC
:10029000224602F0DFFD52465B46801A994110D398
:1002A00010461946224600F016F82D1A67EB010891
:1002B0004F4622460120002100F00DF817EB0009FF
:1002C0004E41201EA4F10104DFDC484631462A4697
:1002D0004346BDE8F09F202A04DB203A00FA02F1F1
:1002E000002070479140C2F1200320FA03F3194324
:1002F000904070477047000000000000FFFFFFFFC4
:1003000030B5E748006810F4807F6BD1E54800689D
:1003100010F0010F2CD1E248006810F01F0F01D13E
:10032000002006E0DE48006800F01F00DE49B1FB57
:10033000F0F0DE490860DE48006810F01F0F01D1C0
:10034000002006E0DA48006800F01F00D649B1FB43
:10035000F0F0D8490860D848006800F0010000F1CA
:100360000100D2490968B1FBF0F0D4490860B6E059
:10037000D348006810F0400F07D10020CB49086037
:10038000CC490860CD490860A9E0C548006810F074
:100390001F0F01D1002006E0C148006800F01F00D7
:1003A000C149B1FBF0F0C1490860C148006810F0D4
:1003B0001F0F01D1002006E0BD48006800F01F00BB
:1003C000B949B1FBF0F0BB490860BB48006800F0D8
:1003D000010000F10100B5490968B1FBF0F0B7492F
:1003E00008607CE0B748006810F4807F07D10020E7
:1003F000AE490860AF490860B04908606FE0A9489D
:10040000006810F0010F2ED1AE4C246804F01F04D8
:1004100004F10100AC4CD4F8044104F01F01A44CD9
:10042000246804F01F02A84CD4F8004104F0010431
:1004300004F1010309B9002403E09B4C4443B4FBDD
:10044000F1F49A4D2C600AB9002403E0964C444321
:10045000B4FBF2F4974D2C60944C2468B4FBF3F495
:10046000964D2C603BE09648006810F0400F07D195
:1004700000208E4908608F490860904908602EE08E
:10048000904C246804F01F0404F101008E4CD4F851
:10049000044104F01F01864C246804F01F028A4CBA
:1004A000D4F8004104F0010404F1010309B9002467
:1004B00003E07D4C4443B4FBF1F47C4D2C600AB95D
:1004C000002403E0784C4443B4FBF2F4794D2C60F3
:1004D000764C2468B4FBF3F4784D2C6000BF7B4865
:1004E000006810F4807F31D07848006810F01F0059
:1004F00004D0042806D0062823D104E00020744943
:10050000086022E000BF6F4A126802F01F0202F189
:1005100001006D4AD2F8082102F01F01614A1268F9
:1005200012F0010F06D0604A4243B2FBF1F2684B71
:100530001A6005E05C4A4243B2FBF1F2644B1A6078
:1005400003E000206249086000BF24E05F480068C3
:1005500010F4007F1CD05348006810F0010F0BD03E
:100560005C48006800F01F0000F101004E4900FBEC
:1005700001F0574908600EE05248006800F01F0083
:1005800000F10100484900FB01F05149086002E018
:1005900000204F49086030BD70B54F484F4A131DC9
:1005A0004FF0000C14681D684D4EB44205D1A5F102
:1005B0008856113E01D1012600E00026B446BCF168
:1005C000000F03D0016841F47001016070BD00B5F7
:1005D000FFF7E2FF20203A49086000BF3848006872
:1005E00010F0400FFAD001202E4908604FF00900AA
:1005F0003549C1F884004FF001003A4908604FF0D6
:10060000AA00394908604FF05500086000BF2D4826
:10061000006810F4806FFAD02320344908604FF04E
:1006200001002949C1F8A0004FF0AA003049086034
:100630004FF055002449C1F8AC0000BF25480068C0
:1006400010F4806FFAD040F201101549086040F2B2
:1006500001201D49C1F808014FF00100164908604A
:100660004FF00200234908601149086022482349DD
:1006700008604FF480701449C1F8C8010846D0F8EA
:10068000B00140F003001E49086045F23A000E49EF
:1006900008604FF000001B490860FFF731FE00BD05
:1006A00004C10F400CC10F40001BB7000000001038
:1006B000A8C10F400400001000C10F400800001046
:1006C000A0C10F4088C00F4000C00F4008C10F40BC
:1006D0000C000010A8C00F4088ED00E040EF00E0E3
:1006E0002100111080C00F408CC00F40A4C00F40EB
:1006F000ACC00F40B4C10F40DE872804C4C00F4017
:10070000B0C10F4008ED00E013B5044601231A46BE
:1007100001A9204601F05AF81CBD38B50446002056
:10072000009001231A466946204601F0BFF89DF863
:10073000000038BD70B505460C460CB9002070BDF0
:10074000002301222146284601F0B0F808B101201B
:10075000F5E70020F3E770B506460D462C4604E0A9
:1007600014F8011B3046FFF7CFFF20780028F7D19F
:1007700070BD2DE9FF4F83B00C4615461E46002084
:1007800002900190002D03DC306007B0BDE8F08FCF
:100790004FF00008012C01D1102003E00CB90A2011
:1007A00000E000208246BAF1000F02D10020306044
:1007B000EBE7002785E00120019001231A4602A9FA
:1007C000039801F073F89DF80800302808DB9DF8C5
:1007D0000800392804DC9DF80800A0F1300B37E050
:1007E000012C33D14FF0100A9DF80800612811D078
:1007F00008DCA0F14100062824D2DFE800F00C104C
:1008000014181C20623805281CD2DFE800F0070B02
:100810000F13170000BF4FF00A0B16E000BF4FF098
:100820000B0B12E000BF4FF00C0B0EE000BF4FF0BF
:100830000D0B0AE000BF4FF00E0B06E000BF4FF0BB
:100840000F0B02E00020019000BF01E000200190AA
:10085000012000900198B0B924B9F4A10398FFF7E2
:100860007AFF05E0012C03D1FB490398FFF773FFE2
:1008700008F10108B8F10A0F23D3F8A10398FFF794
:100880006AFF002081E79DF808100398FFF73CFFFE
:10089000012D03D1AA46012000900CE04FF0010980
:1008A00007E0009800FB0AF0009009F1010000F059
:1008B000FF09A945F5DB00980BFB00FB5F44681EB0
:1008C000C5B2002D3FF777AF376001205DE770B507
:1008D00004460D4629462046FFF73DFFEBA1204682
:1008E000FFF739FF70BD2DE9F04180460C460A2024
:1008F00094FBF0F100FB1140C5B20A2094FBF0F02C
:100900000A2190FBF1F201FB1200C6B2642094FBB5
:10091000F0F090FBF1F201FB1200C7B207F13000DA
:10092000C1B24046FFF7F0FE06F13000C1B24046CA
:10093000FFF7EAFE05F13000C1B24046FFF7E4FEE2
:10094000BDE8F0812DE9F04782460C460A2094FB71
:10095000F0F100FB1140C5B20A2094FBF0F00A212F
:1009600090FBF1F201FB1200C6B2642094FBF0F0A0
:1009700090FBF1F201FB1200C7B24FF47A7094FBC6
:10098000F0F090FBF1F201FB120000F0FF0842F2E0
:10099000107094FBF0F090FBF1F201FB120000F0FC
:1009A000FF0909F13000C1B25046FFF7ADFE08F172
:1009B0003000C1B25046FFF7A7FE07F13000C1B2C8
:1009C0005046FFF7A1FE06F13000C1B25046FFF7D6
:1009D0009BFE05F13000C1B25046FFF795FEBDE821
:1009E000F0872DE9F34F83B00C460A20B4FBF0F1F9
:1009F00000FB1145B4FBF0F00A21B0FBF1F201FB62
:100A000012066420B4FBF0F0B0FBF1F201FB120718
:100A10004FF47A70B4FBF0F0B0FBF1F201FB120876
:100A200042F21070B4FBF0F0B0FBF1F201FB1209DE
:100A30009748B4FBF0F0B0FBF1F201FB120A9548C5
:100A4000B4FBF0F0B0FBF1F201FB120B9248B4FBE7
:100A5000F0F0B0FBF1F201FB120002908F48B4FB02
:100A6000F0F0B0FBF1F201FB120001908C48B4FBF6
:100A7000F0F0B0FBF1F201FB120000900098303072
:100A8000C1B20398FFF740FE01983030C1B203981D
:100A9000FFF73AFE02983030C1B20398FFF734FEF8
:100AA0000BF13000C1B20398FFF72EFE0AF13000BF
:100AB000C1B20398FFF728FE09F13000C1B20398D4
:100AC000FFF722FE08F13000C1B20398FFF71CFEC9
:100AD00007F13000C1B20398FFF716FE06F13000AF
:100AE000C1B20398FFF710FE05F13000C1B20398C0
:100AF000FFF70AFE05B0BDE8F08F2DE9F04107468B
:100B00000D46012600BFB00045FA00F000F00F04CA
:100B1000092C02DD04F1370001E004F13000C1B21C
:100B20003846FFF7F1FD3000A6F10101CEB2EAD15F
:100B3000BDE8F0812DE9F04107460D4659A1384640
:100B4000FFF709FE012600BFB00045FA00F000F0F3
:100B50000F04092C02DD04F1370001E004F130003C
:100B6000C1B23846FFF7D0FD3000A6F10101CEB288
:100B7000EAD1BDE8F0812DE9F04107460D46032694
:100B800000BFB00045FA00F000F00F04092C02DDB0
:100B900004F1370001E004F13000C1B23846FFF73C
:100BA000B3FD3000A6F10101CEB2EAD1BDE8F0817B
:100BB0002DE9F04107460D463AA13846FFF7CBFD37
:100BC000032600BFB00045FA00F000F00F04092C26
:100BD00002DD04F1370001E004F13000C1B2384613
:100BE000FFF792FD3000A6F10101CEB2EAD1BDE8D7
:100BF000F0812DE9F04107460D46072600BFB00001
:100C000025FA00F000F00F04092C02DD04F1370092
:100C100001E004F13000C1B23846FFF775FD300045
:100C2000A6F10101CEB2EAD1BDE8F081506C656158
:100C3000736520656E74657220612063686172203F
:100C400066726F6D2027302720746F202739272187
:100C500021210D0A00000000102F00005265616381
:100C600068206C696D69746174696F6E206F6620AD
:100C700072652D74726965732E2052657475726E7B
:100C8000204641494C45440D0A0000000A0D000071
:100C9000A086010040420F008096980000E1F50513
:100CA00000CA9A3B307800002DE9F04107460D4616
:100CB000AFF210013846FFF74EFD072600BFB00027
:100CC00025FA00F000F00F04092C02DD04F13700D2
:100CD00001E004F13000C1B23846FFF715FD3000E5
:100CE000A6F10101CEB2EAD1BDE8F0811CB5012226
:100CF0000221002000F0C7F801220321002000F0AB
:100D0000C2F8684600F027FD6946002000F0A7FB06
:100D10000121002000F0B6FCAFF2C5501D4908606B
:100D2000AFF255401C490860AFF223601B490860D0
:100D3000AFF2FF101A490860AFF28B101949086032
:100D4000AFF29B0018490860AFF2512017490860C4
:100D5000AFF2DD1016490860AFF26910154908605E
:100D6000AFF27D4014490860AFF227401349086094
:100D7000AFF2913012490860AFF26160114908602A
:100D8000AFF2116010490860AFF257600F49086078
:100D90001CBD00001000001014000010180000100E
:100DA000280000102C00001030000010340000104B
:100DB000380000103C0000101C0000102000001043
:100DC00024000010400000104800001044000010F3
:100DD00010B50246002001EB4213F74C04EB8300F0
:100DE00010BD02460520062A4AD2DFE802F0032F92
:100DF000393A3B3D062907DD0A2901DB0B2903DDD2
:100E00000E2903DB162901DC00201EE00C2905D089
:100E10000D2903D0172903DB1A2901DC012014E076
:100E20001D2903D01E2901D01F2901D102200CE069
:100E30001B2901D01C2901D1032006E0072903D07A
:100E4000082901D0092900D104201AE01D2901DC5C
:100E5000002004E01E2901D01F2900D1012010E04C
:100E600000BF00BF00200CE0012901DD042901D1F1
:100E7000002004E0022901D0032900D1032000E072
:100E800000BF00BF70472DE9F04106468846154671
:100E9000002441463046FFF7A4FF0746052F02D144
:100EA000C648BDE8F08141463046FFF791FF044651
:100EB000206820F00700206005F007012068084343
:100EC00020600020EDE72DE9F041074688461646F0
:100ED000002441463846FFF784FF0546052D02D120
:100EE000B648BDE8F08135B1012D04D0042D02D003
:100EF000B248401CF5E741463846FFF769FF044613
:100F0000206820F018002060182101EAC60120683E
:100F1000084320600020E4E72DE9F04107468846B9
:100F20001646002441463846FFF75BFF0546052D6F
:100F300002D1A248BDE8F08125B1042D02D09F481E
:100F4000401CF7E741463846FFF742FF044626B902
:100F5000206820F02000206003E0206840F020009E
:100F600020600020E6E72DE9F04107468846154657
:100F7000002441463846FFF734FF0646052E02D1CD
:100F80008E48BDE8F081022E02D18C48401CF8E763
:100F900041463846FFF71CFF044625B9206820F07B
:100FA0004000206003E0206840F040002060002006
:100FB000E7E72DE9F04107468846164600244146FA
:100FC0003846FFF70EFF0546052D02D17B48BDE8E8
:100FD000F08125B1042D02D07848401CF7E7414646
:100FE0003846FFF7F5FE044626B9206820F4007065
:100FF000206003E0206840F4007020600020E6E7F5
:101000002DE9F041074688461546002441463846FA
:10101000FFF7E7FE0646052E02D16848BDE8F081DD
:10102000032E02D06548401CF8E741463846FFF7DA
:10103000CFFE044625B1206820F48070206003E0D4
:10104000206840F4807020600020E7E72DE9F0413F
:10105000074688461546002441463846FFF7C1FE3C
:101060000646052E02D15548BDE8F081032E02D078
:101070005248401CF8E741463846FFF7A9FE0446AF
:1010800025B1012D0CD0022D1ED113E001224146C5
:101090003846FFF7B5FF206820F40070206016E0A6
:1010A000002241463846FFF7ABFF206820F400706D
:1010B00020600CE0012241463846FFF7A1FF20687E
:1010C00040F40070206002E04FF0FF30CCE700BF3A
:1010D0000020C9E72DE9F04107468846164600245E
:1010E00041463846FFF77DFE0546052D02D13348BF
:1010F000BDE8F08135B1012D04D0042D02D02F4878
:10110000401CF5E741463846FFF762FE044626B923
:10111000206820F48060206003E0206840F4806054
:1011200020600020E4E72DE9F04107468846154697
:10113000002441463846FFF754FE0646052E02D1EC
:101140001E48BDE8F081012E02D01C48401CF8E783
:1011500041463846FFF73CFE044625B1206820F0A2
:101160008000206003E0206840F0800020600020C4
:10117000E7E72DE9F04105460E46174600243146C3
:101180002846FFF72EFE8046B8F1050F02D10B4826
:10119000BDE8F0810DB91A2E02D00848401CF7E7CF
:1011A00031462846FFF714FE04464FB1206840F44C
:1011B0008030206008E0000000C002400100001004
:1011C000206820F4803020600020E1E72DE9F04124
:1011D000074688461646002441463846FFF701FE7A
:1011E0000546052D02D10D48BDE8F081012D04D042
:1011F000042D02D00948401CF6E741463846FFF767
:10120000E7FD044626B1206820F48070206003E0EA
:10121000206840F4807020600020E5E701000010A5
:101220000146002021B1022904D0032906D103E0A0
:10123000F84804E0F84802E0F84800E000BF00BFCA
:1012400070472DE9F34F95B08A4600200A9001209F
:10125000FEF7B1FF09904FF0FF3004900020079097
:10126000069000210C460D46012654E0002008900F
:1012700049E00898304400FB0AF0029000201C224C
:101280000999CDE90D0108460D99FFF724F80022D0
:10129000A0FB063701FB067100FB0210CDE9003010
:1012A00000239DE80700FEF7E5FF80468946CDF85C
:1012B0001480202240464946CDE90B9801F0CAFD32
:1012C00083460598B0F1004F04D905984042059037
:1012D0000BF1010BBBF1000F02D0BBF5803F00D931
:1012E0000EE0DDE90410884209D20598049000253B
:1012F0005C46089807900696049800B906E000BF7F
:101300000898401C08900898B042B2D300BF0498D7
:1013100000B902E0761C0F2EA8D900BF00210846B4
:1013200061406840014303D1002017B0BDE8F08F51
:1013300009980009069900FB01F707980844002165
:10134000A0FB042301FB043100FB05100346CDE99B
:10135000002038460021FEF78DFF03900398824558
:1013600004D90398AAEB0000049003E00398A0EBD3
:101370000A000490642004994143B1FBFAF0049000
:101380000498032869D2159801281FD1A448007B2E
:1013900040F08000A2490873082220462946CDE982
:1013A0000F5401F057FD9E4908710C700846007BF0
:1013B00000F07F000873F020069900EA01100799F9
:1013C00001F00F0108439649886244E0159804280B
:1013D00021D19448C06840F080009249C86008223A
:1013E00020462946CDE9115401F034FDC0B28D49A3
:1013F0004860E0B208600846C06800F07F00C8603E
:10140000F020069900EA0110079901F00F01084346
:10141000844988621FE01598FFF702FF0746387B72
:1014200040F080003873082220462946CDE9135445
:1014300001F010FD38713C70387B00F07F0038738C
:10144000F020069900EA0110079901F00F01084306
:1014500087F8280000BF01200A900A9865E72DE967
:10146000F04106460F46052E3CD2DFE806F0033C6D
:1014700004056C0000BF00BF3046FFF7D1FE0546F3
:1014800026B901210820FEF7ADFE0CE0022E04D1A2
:1014900001210806FEF7A6FE05E0032E03D1012177
:1014A0004806FEF79FFE072028720020287200E001
:1014B0002C78287D10F0010FFAD1802085F83000BB
:1014C00000BF287D10F0200FFBD0002085F83000F1
:1014D00068602873286285F84C0085F8540085F808
:1014E00050002C7D57E001211020FEF77BFE0720E5
:1014F0004B4908720020087201E0494804784848C6
:10150000007D10F0010FF8D180204749087000BF1E
:101510004348007D10F0200FFAD0002042490870A7
:101520003F4948600873086281F84C003F490870E1
:101530003B4981F850000846047D4FF000000874D4
:101540000846047E27E001210802FEF74BFE072033
:10155000344988600020886001E0324804683148DE
:10156000406910F0010FF8D101202E49C86500BF75
:101570002C48406910F0200FFAD000202949C86596
:101580004860C8600862C8644865086508464469E0
:101590000020486200BF00BF30463968FFF751FEA7
:1015A000012E04D11E48007B00F0C0040EE0042E82
:1015B00004D11C48C06800F0C00407E03046FFF7C3
:1015C0002FFE0546287B00F0C00400BF787930B1BB
:1015D000012806D0022807D0032808D108E000BF60
:1015E00009E044F0010406E044F0020403E000BF17
:1015F00044F0030400BF00BF387930B344F008045E
:101600003879012814D0022814D0032815D00428D2
:1016100019D115E000C000400080094000C0094019
:101620000000014000400A403000014054000140E9
:1016300000BF09E044F0100406E044F0200403E099
:1016400044F0300400E000BF00BFB87928B10128A1
:1016500002D144F0040401E000BF00BF00BF012E2E
:1016600002D1FA490C730BE0042E03D1E0B2F84921
:10167000C86005E03046FFF7D3FD05462C7300BF78
:10168000BDE8F08170B504460E46012E1DD1012C37
:1016900007D1F048007840F08000EC4981F8300034
:1016A0002FE0042C06D1EA48C06D40F00100E84963
:1016B000C86526E02046FFF7B3FD054695F83000E3
:1016C00040F0800085F830001BE0012C07D1E14894
:1016D00000784FF00000DD4981F8300011E0042C63
:1016E00005D1DB48C06D0020D949C86509E0204616
:1016F000FFF796FD054695F83000002085F830008C
:1017000000BF70BD10B5044600212046FFF7BAFFA8
:1017100024B900210820FEF765FD1BE0012C04D14F
:1017200000211020FEF75EFD14E0022C04D1002100
:10173000E005FEF757FD0DE0032C05D100214FF029
:101740000070FEF74FFD05E0042C03D10021A0013D
:10175000FEF748FD10BD4FF4E131016003214171F6
:101760000021017181717047052813D2DFE800F074
:101770000306090C0F00B84A11700BE0B34A117050
:1017800008E0B64A117005E0B54A117002E0B04AAF
:10179000116000BF00BF70470146052914D2DFE881
:1017A00001F00306090C0F00AB4800787047A7480A
:1017B0000078FBE7A9480078F8E7A9480078F5E742
:1017C000A3480068C0B2F1E70020EFE72DE9FF4F22
:1017D000074691469A46019E4FF0000B052F1DD2F9
:1017E000DFE807F003080D121700DFF86CB20BF109
:1017F000140B13E0DFF854B20BF1140B0EE0DFF81A
:101800005CB20BF1140B09E0DFF854B20BF1140BCE
:1018100004E0DFF83CB20BF1140B00BF00BF4B46F5
:10182000BAF1010F24D100241FE04FF0FF3805E08A
:10183000B8F1000F00D106E0A8F10108DBF80000C4
:1018400010F0200FF4D000BFB8F1000F00D10EE06F
:10185000102507E016F8011B3846FFF785FF6D1EBF
:101860005B1E641C0DB1002BF4D1002BDDD119E0FF
:10187000002414E003B914E0DBF8000010F0200F9E
:1018800000D10EE0102507E016F8011B3846FFF7DF
:101890006BFF5B1E6D1E641C0DB1002BF4D1002B81
:1018A000E8D100BF204604B0BDE8F08F2DE9F04735
:1018B00005460F46904699463C464FF0000A052DD6
:1018C0001DD2DFE805F003080D121700DFF888A12C
:1018D0000AF1140A13E0DFF874A10AF1140A0EE009
:1018E000DFF878A10AF1140A09E0DFF874A10AF11F
:1018F000140A04E0DFF858A10AF1140A00BF00BF7F
:101900004246B9F1010F19D1002314E04FF0FF3620
:1019100002E006B905E0761EDAF8000010F0010FCB
:10192000F7D000BF06B908E02846FFF735FF04F8F6
:10193000010B521E5B1C002AE8D111E000230CE0D1
:10194000DAF8000010F0010F00D108E02846FFF798
:1019500023FF04F8010B5B1C521E002AF0D100BFCC
:101960001846BDE8F087052827D2DFE800F0030A13
:1019700011181F003849097B41F04001364A1173A4
:101980001BE03249097B41F04001304A117314E0F9
:101990003249097B41F04001304A11730DE0304972
:1019A000097B41F040012E4A117306E02849C968BD
:1019B00041F04001264AD16000BF00BF704770B5BA
:1019C00003460C4600218C46052B1DD2DFE803F0B0
:1019D00003080D1217002049091D40F2073C13E0CF
:1019E0001A49091D40F28F3C0EE01C49091D40F2C6
:1019F000073C09E01A49091D40F2073C04E014497C
:101A0000091D40F2073C00BF00BF072C15D2DFE8DC
:101A100004F00406080A0C0E110001200DE002205B
:101A20000BE0042009E0082007E0802005E04FF4E7
:101A3000807002E04FF4007000BF00BF012A11D196
:101A40000D6800EA0C0635430D6010E0000001400F
:101A500000400A403000014000C0004000800940C2
:101A600000C009400D682CEA000635400D6070BDCD
:101A70000146052914D2DFE801F00306090C0F0026
:101A8000FE48007D7047FE48007DFBE7FD48007D75
:101A9000F8E7FD48007DF5E7FC484069C0B2F1E792
:101AA0000020EFE70146052922D2DFE801F0030913
:101AB0000F151B00F148806840F2CF32104070478C
:101AC000EF48806840F2CF321040F8E7ED48806878
:101AD00040F2CF321040F2E7EB48806840F2CF325C
:101AE0001040ECE7E948806840F2CF321040E6E76A
:101AF0000020E4E70146002205291DD2DFE801F0BD
:101B000003080D121700DD48007D00F0400213E0CD
:101B1000DB48007D00F040020EE0DA48007D00F076
:101B2000400209E0D848007D00F0400204E0D748B8
:101B3000406900F0400200BF00BF12F0400F01D02A
:101B4000002070470120FCE710B50246002040F05D
:101B50000100CB7833B1012B06D0022B07D0032B29
:101B600008D108E000BF09E040F0400006E040F086
:101B7000800003E000BF40F0C00000BF00BF4B7812
:101B8000012B01D140F004000B78012B01D140F072
:101B900002008B78012B01D140F00800052A1DD2EC
:101BA000DFE802F003080D12170000F0CF03B34C7A
:101BB000237213E000F0CF03B14C23720EE000F06B
:101BC000CF03B04C237209E000F0CF03AE4C237278
:101BD00004E000F0CF03AD4CA36000BF00BF10BD18
:101BE00000218170C17001210170417070472DE9A1
:101BF000F0410746884615460026012D0BD198F87E
:101C00000000012801D146F0020698F801000128E1
:101C100001D146F00406012F19D1012D13D19848A6
:101C2000007B40F08000964908730020087008711E
:101C30000846007B20F0800008731020886246F080
:101C4000010008623AE000208D49086236E0042F66
:101C500019D1012D13D18D48C06840F080008B4907
:101C6000C8600020086048600846C06820F0800016
:101C7000C8601020886246F0010008621EE0002063
:101C8000824908621AE03846FFF7CAFA0446012D75
:101C900011D1207B40F08000207300202070207143
:101CA000207B20F080002073102084F8280046F06C
:101CB0000100206201E00020206200BFBDE8F08149
:101CC00070B505460C46012D05D16D48006A2043CC
:101CD0006B4908620FE0042D05D16C48006A20436F
:101CE0006A49086207E02846FFF79AFA0646306A12
:101CF0002043306200BF70BD042800D07047012926
:101D000006D1624A526A42F00202604B5A6206E011
:101D100029B95E4A526A02F03D025C4B5A6200BF2A
:101D2000ECE7042800D07047012906D1574A526ACF
:101D300042F00102554B5A6205E0544A526A02F0E1
:101D40003E02524B5A6200BFEDE730B5042800D086
:101D500030BD4C07A30E4D4C646A24F0380243F0AA
:101D60000404224302F03F04484D6C6200BFEFE7D9
:101D700030B50023012800D030BD11B1012904D1B4
:101D800001E0012302E0022300E000BF00BF012ABE
:101D900005D13B4C247C1C43394D2C7406E0384C57
:101DA000247CF3259D432C40354D2C7400BFE3E784
:101DB00030B50346012B00D030BD21B1012904D03C
:101DC000022906D103E0102004E0402002E0802038
:101DD00000E000BF00BF012A05D1294C247C044348
:101DE000274D2C7406E0264C247CF32585432C409B
:101DF000234D2C7400BFDFE70146012901D00020EC
:101E000070471F48007EFBE72DE9F05F83460C46D4
:101E10000025BBF1010F08D1194F5437A7F1040970
:101E2000174E0C36A9F1040A18E0BBF1040F08D1D3
:101E3000164F5437A7F10409144E0C36A9F1040AC1
:101E40000CE05846FFF7ECF9804608F1540708F11A
:101E5000500908F10C0608F14C0A00BFE07801288F
:101E60001BD145F010056079012801D145F020050E
:101E7000207901280FD1BBF1010F09E000C000401B
:101E8000000001400080094000C0094000400A40B5
:101E900001D145F00805E07938602078012801D1AA
:101EA00045F00105A078012804D145F00405A0798A
:101EB000C9F80000607808B945F0020505F03F0058
:101EC000CAF80000306840F038003060BDE8F09F8C
:101ED0002DE9F04105460E46012D01D1394C0AE0AD
:101EE000042D01D1384C06E02846FFF799F9074642
:101EF00007F1540400BF012E04D1206820F0020035
:101F0000206003E0206840F002002060BDE8F0811E
:101F10002DE9FF4F81B006468B469946012E04D12C
:101F2000284C483C274D403D0FE0042E04D1264C60
:101F3000483C254D403D08E03046FFF771F98246A8
:101F40000AF10C040AF1140500BFB9F1000F14D016
:101F50002068C7B2B84628F01008C4F800800123F2
:101F600059463046039AFFF731FC009000BF2868BD
:101F700010F0400FFBD027600BE00123594630469C
:101F8000039AFFF723FC009000BF286810F0400F71
:101F9000FBD0009805B0BDE8F08F13B504460123CF
:101FA0001A4601A92046FFF7B3FF1CBD70B50446D1
:101FB0000D4616460023324629462046FFF7A8FF65
:101FC00070BD00005400014054400A4010B5044662
:101FD00001214802FEF706F90020207020722073CC
:101FE000FF2020740020206410BD10B5044600209E
:101FF000207200214FF40070FEF7F4F810BD017A52
:1020000041F002010172017A01F011010172704781
:10201000012904D1027A42F00102027203E0027A3D
:1020200002F0120202727047012A30D108292DD223
:10203000DFE801F004090E13181D2227037B43F08B
:102040000103037322E0037B43F0020303731DE0EB
:10205000037B43F00403037318E0037B43F0100396
:10206000037313E0037B43F0080303730EE0037B69
:1020700043F02003037309E0037B43F04003037341
:1020800004E0037B43F08003037300BF30E00829C2
:102090002DD2DFE801F004090E13181D2227037B5F
:1020A00003F0FE03037322E0037B03F0FD030373DD
:1020B0001DE0037B03F0FB03037318E0037B03F0D5
:1020C000EF03037313E0037B03F0F70303730EE0E6
:1020D000037B03F0DF03037309E0037B03F0BF031B
:1020E000037304E0037B03F07F03037300BF00BFAF
:1020F0007047012A30D108292DD2DFE801F0040908
:102100000E13181D2227037C03F0FE03037422E044
:10211000037C03F0FD0303741DE0037C03F0FB0369
:10212000037418E0037C03F0EF03037413E0037CF3
:1021300003F0F70303740EE0037C03F0DF03037482
:1021400009E0037C03F0BF03037404E0037C03F0A5
:102150007F03037400BF30E008292DD2DFE801F0CF
:1021600004090E13181D2227037C43F00103037496
:1021700022E0037C43F0020303741DE0037C43F080
:102180000403037418E0037C43F01003037413E0AA
:10219000037C43F0080303740EE0037C43F0200348
:1021A000037409E0037C43F04003037404E0037C00
:1021B00043F08003037400BF00BF7047082940D27A
:1021C000DFE801F0040B1219202830383B2A03D82D
:1021D00002F03F0380F8203033E03B2A03D802F0BE
:1021E0003F0380F824302CE0172A03D802F01F03A5
:1021F00080F8283025E0062A03D802F0070380F88B
:1022000030301EE02AB11F2A03D802F01F0380F8E5
:102210002C3016E02AB1B2F5B77F02D8C2F308031A
:1022200083860EE02AB10C2A03D802F00F0380F84F
:10223000383006E0B2F5805F02D2C2F30B03838729
:1022400000BF00BF7047024608292BD2DFE801F02B
:1022500004090E13181D212692F8200000F03F00FB
:10226000704792F8240000F03F00F9E792F8280048
:1022700000F01F00F4E792F8300000F00700EFE7ED
:1022800092F82C0000F01F00EAE7908EC0F30800DF
:10229000E6E792F8380000F00F00E1E7908FC0F316
:1022A0000B00DDE70020DBE7CA6802F01F0200F147
:1022B000200002730A6902F0070202744A69C2F33D
:1022C000080282828A6802F01F0202724A6802F0E3
:1022D0003F0202710A6802F03F0202708A6902F04E
:1022E0000F020276CA69C2F30B028283A0F12000BA
:1022F000704700F12000027B02F01F02CA60027CDE
:1023000002F007020A61828AC2F308024A61027A75
:1023100002F01F028A60027902F03F024A600278EE
:1023200002F03F020A60027E02F00F028A61828B95
:10233000A0F12000C2F30B02CA617047082942D203
:10234000DFE801F0040B1219202831393B2A03D8A9
:1023500002F03F0380F8603035E03B2A03D802F0FA
:102360003F0380F864302EE0172A03D802F01F03E1
:1023700080F8683027E0062A03D802F0070380F8C7
:10238000703020E02AB11F2A03D802F01F0380F822
:102390006C3018E032B1B2F5B77F03D8C2F308034E
:1023A000A0F874300FE02AB10C2A03D802F00F0312
:1023B00080F8783007E0B2F5805F03D2C2F30B03F8
:1023C000A0F87C3000BF00BF7047024608292DD21C
:1023D000DFE801F004090E13181D222792F86000AF
:1023E00000F03F00704792F8640000F03F00F9E70A
:1023F00092F8680000F01F00F4E792F8700000F017
:102400000700EFE792F86C0000F01F00EAE7B2F86F
:102410007400C0F30800E5E792F8780000F00F00C0
:10242000E0E7B2F87C00C0F30B00DBE70020D9E75F
:10243000CA6802F01F0200F1600002730A6902F02C
:10244000070202744A69C2F3080282828A6802F0B3
:102450001F0202724A6802F03F0202710A6802F02B
:102460003F0202708A6902F00F020276CA69C2F363
:102470000B028283A0F16000704700F16000027BD4
:1024800002F01F02CA60027C02F007020A61828A1F
:10249000C2F308024A61027A02F01F028A600279DE
:1024A00002F03F024A60027802F03F020A60027EB8
:1024B00002F00F028A61828BA0F16000C2F30B026E
:1024C000CA61704702461078084201D00120704767
:1024D0000020FCE702780A4302707047012904D10A
:1024E000027A02F00302027203E0027A42F0100262
:1024F0000272704710B54B1EC3F31003012A01D1BD
:10250000540400E000242343036410BD10B500F11F
:10251000440303EB81031A6010BD10B5024602F1BB
:10252000440303EB8103186810BD00B97047002114
:102530000CE0002201EB4103C25401EB41030344D0
:102540009A7001EB410303445A70491C0329F0D3EC
:102550004022C26000BFE9E7014609B90020704788
:10256000F948007A10F0010F01D10020F7E7087850
:1025700038B1F648006840F00400F34AC2F884001D
:1025800006E0F248006820F00400EF4AC2F8840038
:10259000487838B1ED48006840F00100EA4AC2F8D6
:1025A000840006E0E948006820F00100E64AC2F82D
:1025B0008400887838B1E548006840F00200E24ABB
:1025C000C2F8840006E0E148006820F00200DE4A1C
:1025D000C2F88400C87838B1DC48006840F4805004
:1025E000D94AC2F8840006E0D848006820F4805038
:1025F000D54AC2F88400087938B1D448006840F45C
:102600008060D14AC2F8840006E0D048006820F417
:102610008060CD4AC2F88400487938B1CB48006860
:1026200040F40060C84AC2F8840006E0C748006869
:1026300020F40060C44AC2F88400887938B1C348E5
:10264000006840F48000C04AC2F8840006E0BF4839
:10265000006820F48000BC4AC2F88400C87938B110
:10266000BA48006840F48010B74AC2F8840006E017
:10267000B648006820F48010B34AC2F88400087A93
:1026800038B1B248006840F40010AF4AC2F8840084
:1026900006E0AE48006820F40010AB4AC2F884009F
:1026A000AA48006820F04040A84A1060C86838B1C5
:1026B00010280BD0402811D0B0F57A7F1ED115E03C
:1026C000A2480068A04AC2F8840019E09F48006848
:1026D00040F080409C4AC2F8840011E09B480068AA
:1026E00040F00040984AC2F8840009E0974800682A
:1026F00040F04040944AC2F8840001E000202EE7F8
:1027000000BF01202BE7024622B1012A13D0022A82
:1027100033D121E039B18D48006840F008008A4B80
:10272000C3F8840006E08948006820F00800864B62
:10273000C3F8840023E039B18448006840F40050B5
:10274000814BC3F8840006E08048006820F4005004
:102750007D4BC3F8840012E039B17C48006840F436
:102760000000794BC3F8840006E07848006820F444
:102770000000754BC3F8840001E00020704700BFE3
:102780000120FBE70146002021B1012907D00229E1
:102790000FD109E06E4A126802F007000AE06C4AA5
:1027A0001268C2F3022005E0694A1268C2F30240CF
:1027B00000E000BF00BF7047664800687047654989
:1027C000096841EA0001604AC2F880107047614818
:1027D000006810F0004F01D0012070470020FCE796
:1027E0005C48006810F0080F01D0012070470020FD
:1027F000FCE7024609B90020704722B1012A1ED029
:10280000022A54D137E05348006810F0010F01D17B
:102810000020F1E75048006800F03F0008604E4893
:102820000068C0F3851048604B480068C0F304306E
:10283000886049480068C0F34840C86038E04548AF
:10284000006810F0020F01D10020D5E7434800686E
:1028500000F03F00086041480068C0F38510486000
:102860003E480068C0F3043088603C480068C0F30C
:102870004840C8601CE03748006810F0040F01D1E0
:102880000020B9E73648006800F03F00086034488F
:102890000068C0F38510486031480068C0F3043018
:1028A00088602F480068C0F34840C86000E000BF5F
:1028B00000BF0120A0E7024609B90020704722B1FD
:1028C000012A1ED0022A66D137E02248006810F0A3
:1028D000010F01D10020F1E72248006800F03F001D
:1028E000086020480068C0F3851048601D480068F3
:1028F000C0F3043088601B480068C0F34840C860DB
:102900004AE01448006810F0020F01D10020D5E71A
:102910001548006800F03F00086013480068C0F3E5
:102920008510486010480068C0F3043088600E4885
:102930000068C0F34840C8602EE00648006810F008
:10294000040F13D10020B9E7004002408440024048
:102950008840024080400240904002409440024043
:1029600098400240A0400240A44002400C48006849
:1029700000F03F0008600A480068C0F38510486016
:1029800007480068C0F30430886005480068C0F359
:102990004840C86000E000BF00BF01208EE7000093
:1029A000A840024010B50321E548FFF78BFD18B1A0
:1029B0000321E348FFF78EFDFFF7FEFE04460220E9
:1029C000FFF7E0FEDF490870DF490220FFF711FF43
:1029D000DE490220FFF76FFF2046FFF7F0FE10BD33
:1029E00010B5DB490020DB4A1268904710BD00B5E6
:1029F00089B0D348FFF7EAFAD148FFF700FB01217D
:102A0000CF48FFF705FB00221146CD48FFF7D6FB64
:102A10002D220121CA48FFF7D1FB12220221C8480A
:102A2000FFF7CCFB01220621C548FFF7C7FB40F2A8
:102A3000DC720721C248FFF7C1FB01220421C04814
:102A4000FFF7BCFB01220521BD48FFF7B7FB0622BB
:102A50000321BB48FFF7B2FB01A9B948FFF749FCC6
:102A6000BDA10020BB4A126890470398C1B2002064
:102A7000BF4A12689047BFA10020B64A126890472B
:102A80000298C1B20020BA4A12689047B9A100204A
:102A9000B04A126890470198C1B20020B44A126847
:102AA0009047B5A10020AB4A126890470498C1B284
:102AB0000020AF4A12689047B0A10020A54A1268D2
:102AC00090470798C1B20020A94A12689047ABA16D
:102AD0000020A04A12689047089881B20020A84AB6
:102AE00012689047A7A100209A4A1268904706985A
:102AF00081B20020A24A12689047A5A10020954A01
:102B000012689047059881B200209D4A126890474C
:102B1000A2A10020A24A1268904709B000BD86B069
:102B20000024FEF7E3F8FFF75BFF00BFFFF75FFF4E
:102B3000042207210020FEF7A6F904220821002024
:102B4000FEF7A1F9042209210020FEF79CF902A852
:102B5000FFF7EBFC01208DF80E0001218DF80F101E
:102B600002A8FFF7F9FC01287ED101210220FFF71E
:102B7000CAFD11200121814042094FF0E02303EBFF
:102B80008202C2F8001100BFD5E00020019001A927
:102B9000844A126890479DF8040064282DD006DC12
:102BA000442829D0502815D0532837D104E0702864
:102BB00011D0732832D100E000BF7BA10020784AF9
:102BC00012689047FDF721FB7CA10020744A12682F
:102BD000904724E000BF7EA10020714A1268904710
:102BE000FDF720FBFDF7F3FCFEF780F873A1002052
:102BF0006B4A1268904799E700BF7CA10020684AA1
:102C000012689047FDF716FBFDF7E1FCFEF76EF842
:102C10006AA10020624A1268904787E700BF00BFA0
:102C20004848007800287DD078A10020494A1268E1
:102C300090474448017800204D4A1268904753A1BC
:102C40000020574A1268904774A10020414A126838
:102C500090473D488068C1B20020454A12689047BD
:102C600044A100203B4A00E066E0126890473648E5
:102C70004068C1B200203E4A126890473DA1002042
:102C8000344A1268904730480068C1B20020384A80
:102C90001268904766A100202E4A126890472A4881
:102CA000C068C1B20020324A1268904737A10020A4
:102CB0003B4A1268904761A10020264A126890475B
:102CC00022488068C1B20020294A1268904729A191
:102CD0000020204A126890471C484068C1B200207A
:102CE000234A1268904723A100201A4A126890478D
:102CF00016480068C1B200201D4A126890474CA1D6
:102D00000020144A126890471048C068C1B20020E1
:102D1000174A126890471DA10020214A1268904767
:102D2000002000E001E007490870002400E0641C76
:102D300047488442FBD328E700BFFEE7FFF7EFFEDA
:102D4000004002402D02001030020010400200102E
:102D50004C0000101000001043757272656E7420F4
:102D600074696D652073657420746F3A20000000EB
:102D70001C0000103A000000202000002F0000007E
:102D8000200000102028444F59203D200000000062
:102D90002C20444F57203D20000000002900000057
:102DA0001400001044000010456E74657220746FAA
:102DB00020536C656570204D6F6465000A0D537972
:102DC0007374656D2077616B652D7570210A0D0038
:102DD000456E74657220746F20506F776572204461
:102DE0006F776E204D6F646500000000456E74655E
:102DF0007220746F204465657020506F7765722073
:102E0000446F776E204D6F64650000004576656EF7
:102E10007420436F756E743A200000004669727327
:102E2000742054696D655374616D703A2000000020
:102E30002C20444F59203D20000000004C61737449
:102E40002054696D655374616D703A200000000074
:102E5000A0860100202A04DB203A21FA02F000219A
:102E6000704721FA02F3D040C2F12002914008439A
:102E700019467047064C074D06E0E06840F0010334
:102E800094E8070098471034AC42F6D3FDF72EF9CA
:102E90006C2F00008C2F000070B501EB020410F8BD
:102EA000015B15F0070301D110F8013B2A1106D18F
:102EB00010F8012B03E010F8016B01F8016B5B1EA9
:102EC000F9D12B0705D40023521E0FD401F8013B82
:102ED000FAE710F8013B02F10202A1EB030303E061
:102EE00013F8015B01F8015B521EF9D5A142D6D35C
:102EF000002070BD02E008C8121F08C1002AFAD1E4
:102F00007047002001E001C1121F002AFBD1704769
:102F1000506C6561736520656E7465722061206315
:102F20006861722066726F6D2027302720746F20D1
:102F30002739272C20616E642027612F41272C2000
:102F400027622F42272C20632F43272C2027642F12
:102F500044272C2027652F452720616E6420276693
:102F60002F46272121210D0A000000008C2F000090
:102F70000000001030020000982E00008430000095
:102F80003002001020040000022F000011140E2750
:102F9000073C87930304043C6CDC020A4D2A0118A9
:102FA0001D0A0D2048656C6C6F204E5850205365EB
:102FB0006D69636F6E647563746F7273201C180B98
:102FC0004576656E74204D6F6E691218132F526529
:102FD000636F72646572204578616D706C653A2329
:102FE000581409202D204D43553A204C5043313779
:102FF00037785F3878161C436F7222580E41524D55
:1030000020434F525445582D4D331A1D55415254AB
:103010001F38176D6D756E69636174696F6E3A2044
:10302000313135323030206270781E546869732037
:10303000032D612073696A4B2065721C20666F7EC8
:10304000F99519941A2E36180C5072657373205323
:1030500020746F202219A819091808736C6565700F
:10306000206D237921BA50211C706F7709CD646FD0
:10307000776E26BA44262A6446F92B0A4D2A014364
:043080000A0D000035
:04000005000000E512
:00000001FF
