:020000040000FA
:1000000050060010F900000001010000030100008B
:100010000501000007010000090100009EF3FFEF49
:100020000000000000000000000000000B010000C4
:100030000D010000000000000F0100001101000090
:100040001301000013010000130100001301000060
:100050001301000013010000130100001301000050
:100060001301000013010000130100001301000040
:100070001301000000000000130100001301000044
:100080001301000075290000130100001301000096
:100090001301000013010000130100001301000010
:1000A0001301000013010000130100001301000000
:1000B00013010000130100001301000013010000F0
:1000C00013010000130100001301000013010000E0
:1000D00013010000130100001301000013010000D0
:1000E00013010000DFF80CD002F0ACFE004800471E
:1000F0000D2D0000500600100648804706480047B6
:10010000FEE7FEE7FEE7FEE7FEE7FEE7FEE7FEE7C7
:10011000FEE7FEE799050000E500000070B5064621
:100120000D4636B1012E12D0022E1ED0032E3ED126
:1001300029E04448006820F01F0405F01F0040EA51
:1001400004044148C0F8044100F0DAF831E03F48C7
:10015000006820F01F0405F01F0040EA04043A483C
:10016000C0F8A84100F0CCF823E03948006820F03E
:10017000010405F0010040EA04043348C0F80041DE
:1001800000F0BEF815E03348006820F01F0405F0C9
:100190001F0040EA04042C48D0F8080105F01F01B4
:1001A00040EA01002B49086000F0AAF801E000BF16
:1001B000FEE700BF70BD014631B1012907D0022919
:1001C00008D003290CD108E0234800687047234871
:1001D0000068FBE722480068F8E722480068F5E776
:1001E00000BFFEE7012907D11F4A126842EA000258
:1001F000154BC3F8C42007E031B91B4A126822EA44
:100200000002114BC3F8C420704700201749086052
:1002100030BF704704201649086000201349086069
:1002200030BF704704201249086001200F49086060
:1002300030BF704704200E49086003200B49086056
:1002400030BF704704C10F4000C00F40A8C10F402D
:1002500000C10F4008C10F40000000100400001052
:10026000080000100C000010C4C00F40C0C00F40B8
:1002700010ED00E02DE9F05F0546002092469B4618
:1002800088460646814640241BE0284641464746AC
:10029000224602F0C7FD52465B46801A994110D3B0
:1002A00010461946224600F016F82D1A67EB010891
:1002B0004F4622460120002100F00DF817EB0009FF
:1002C0004E41201EA4F10104DFDC484631462A4697
:1002D0004346BDE8F09F202A04DB203A00FA02F1F1
:1002E000002070479140C2F1200320FA03F3194324
:1002F000904070477047000000000000FFFFFFFFC4
:1003000030B5D948006810F4807F6BD1D7480068B9
:1003100010F0010F2CD1D448006810F01F0F01D14C
:10032000002006E0D048006800F01F00D049B1FB73
:10033000F0F0D0490860D048006810F01F0F01D1DC
:10034000002006E0CC48006800F01F00C849B1FB5F
:10035000F0F0CA490860CA48006800F0010000F1E6
:100360000100C4490968B1FBF0F0C6490860B6E075
:10037000C548006810F0400F07D10020BD49086053
:10038000BE490860BF490860A9E0B748006810F09E
:100390001F0F01D1002006E0B348006800F01F00E5
:1003A000B349B1FBF0F0B3490860B348006810F0FE
:1003B0001F0F01D1002006E0AF48006800F01F00C9
:1003C000AB49B1FBF0F0AD490860AD48006800F002
:1003D000010000F10100A7490968B1FBF0F0A9494B
:1003E00008607CE0A948006810F4807F07D10020F5
:1003F000A0490860A1490860A24908606FE09B48D5
:10040000006810F0010F2ED1A04C246804F01F04E6
:1004100004F101009E4CD4F8044104F01F01964CF5
:10042000246804F01F029A4CD4F8004104F001043F
:1004300004F1010309B9002403E08D4C4443B4FBEB
:10044000F1F48C4D2C600AB9002403E0884C44433D
:10045000B4FBF2F4894D2C60864C2468B4FBF3F4B1
:10046000884D2C603BE08848006810F0400F07D1B1
:1004700000208049086081490860824908602EE0B8
:10048000824C246804F01F0404F10100804CD4F86D
:10049000044104F01F01784C246804F01F027C4CD6
:1004A000D4F8004104F0010404F1010309B9002467
:1004B00003E06F4C4443B4FBF1F46E4D2C600AB979
:1004C000002403E06A4C4443B4FBF2F46B4D2C600F
:1004D000684C2468B4FBF3F46A4D2C6000BF6D488F
:1004E000006810F4807F31D06A48006810F01F0067
:1004F00004D0042806D0062823D104E00020664951
:10050000086022E000BF614A126802F01F0202F197
:1005100001005F4AD2F8082102F01F01534A126815
:1005200012F0010F06D0524A4243B2FBF1F25A4B8D
:100530001A6005E04E4A4243B2FBF1F2564B1A6094
:1005400003E000205449086000BF24E051480068DF
:1005500010F4007F1CD04548006810F0010F0BD04C
:100560004E48006800F01F0000F10100404900FB08
:1005700001F0494908600EE04448006800F01F009F
:1005800000F101003A4900FB01F04349086002E034
:1005900000204149086030BD00B520203A4908607C
:1005A00000BF3948006810F0400FFAD001202F49F1
:1005B00008604FF009003649C1F884004FF001008F
:1005C000374908604FF0AA00364908604FF05500DF
:1005D000086000BF2D48006810F4806FFAD0232017
:1005E000314908604FF001002949C1F8A0004FF0DF
:1005F000AA002E4908604FF055002549C1F8AC000B
:1006000000BF2648006810F4806FFAD040F2011055
:100610001549086040F201201D49C1F808014FF05A
:100620000100174908604FF0020021490860124993
:1006300008602048204908604FF480701449C1F8D0
:10064000C8010846D0F8B00140F003001B4908601B
:1006500045F23A000E4908604FF000001849086062
:10066000FFF74EFE00BD000004C10F400CC10F405B
:10067000001BB70000000010A8C10F4004000010CC
:1006800000C10F4008000010A0C10F4088C00F40FB
:1006900000C00F4008C10F400C000010A8C00F4060
:1006A00080C00F408CC00F40A4C00F40ACC00F40B2
:1006B000B4C10F40DE872804C4C00F40B0C10F4052
:1006C00008ED00E013B5044601231A4601A92046AF
:1006D00001F062F81CBD38B50446002000900123EB
:1006E0001A466946204601F0C7F89DF8000038BD5B
:1006F00070B505460C460CB9002070BD00230122E0
:100700002146284601F0B8F808B10120F5E700209D
:10071000F3E770B506460D462C4604E014F8011BBD
:100720003046FFF7CFFF20780028F7D170BD2DE9C4
:10073000FF4F83B00C4615461E46002002900190E4
:10074000002D03DC306007B0BDE8F08F4FF00008EB
:10075000012C01D1102003E00CB90A2000E0002098
:100760008246BAF1000F02D100203060EBE700278B
:1007700085E00120019001231A4602A9039801F0A7
:100780007BF89DF80800302808DB9DF80800392820
:1007900004DC9DF80800A0F1300B37E0012C33D1C8
:1007A0004FF0100A9DF80800612811D008DCA0F174
:1007B0004100062824D2DFE800F00C1014181C2099
:1007C000623805281CD2DFE800F0070B0F13170072
:1007D00000BF4FF00A0B16E000BF4FF00B0B12E00A
:1007E00000BF4FF00C0B0EE000BF4FF00D0B0AE006
:1007F00000BF4FF00E0B06E000BF4FF00F0B02E002
:100800000020019000BF01E0002001900120009035
:100810000198B0B924B9F5A10398FFF77AFF05E074
:10082000012C03D1FC490398FFF773FF08F101087D
:10083000B8F10A0F23D3F9A10398FFF76AFF00204C
:1008400081E79DF808100398FFF73CFF012D03D1C5
:10085000AA46012000900CE04FF0010907E0009843
:1008600000FB0AF0009009F1010000F0FF09A94522
:10087000F5DB00980BFB00FB5F44681EC5B2002D42
:100880003FF777AF376001205DE770B504460D464E
:1008900029462046FFF73DFFECA12046FFF739FF30
:1008A00070BD2DE9F04105460C460A2094FBF0F19D
:1008B00000FB1140C6B20A2094FBF0F00A2190FB25
:1008C000F1F201FB1200C7B2642094FBF0F090FB40
:1008D000F1F201FB120000F0FF0808F13000C1B294
:1008E0002846FFF7EFFE07F13000C1B22846FFF7B8
:1008F000E9FE06F13000C1B22846FFF7E3FEBDE88D
:10090000F0812DE9F04705460C460A2094FBF0F1F2
:1009100000FB1140C6B20A2094FBF0F00A2190FBC4
:10092000F1F201FB1200C7B2642094FBF0F090FBDF
:10093000F1F201FB120000F0FF084FF47A7094FB13
:10094000F0F090FBF1F201FB120000F0FF0942F21F
:10095000107094FBF0F090FBF1F201FB120000F03C
:10096000FF0A0AF13000C1B22846FFF7ABFE09F1D9
:100970003000C1B22846FFF7A5FE08F13000C1B231
:100980002846FFF79FFE07F13000C1B22846FFF767
:1009900099FE06F13000C1B22846FFF793FEBDE88C
:1009A000F0872DE9F34F83B00C460A20B4FBF0F139
:1009B00000FB1145B4FBF0F00A21B0FBF1F201FBA2
:1009C00012066420B4FBF0F0B0FBF1F201FB120759
:1009D0004FF47A70B4FBF0F0B0FBF1F201FB1208B7
:1009E00042F21070B4FBF0F0B0FBF1F201FB12091F
:1009F0009748B4FBF0F0B0FBF1F201FB120A954806
:100A0000B4FBF0F0B0FBF1F201FB120B9248B4FB27
:100A1000F0F0B0FBF1F201FB120002908F48B4FB42
:100A2000F0F0B0FBF1F201FB120001908C48B4FB36
:100A3000F0F0B0FBF1F201FB1200009000983030B2
:100A4000C1B20398FFF73EFE01983030C1B203985F
:100A5000FFF738FE02983030C1B20398FFF732FE3C
:100A60000BF13000C1B20398FFF72CFE0AF1300001
:100A7000C1B20398FFF726FE09F13000C1B2039816
:100A8000FFF720FE08F13000C1B20398FFF71AFE0D
:100A900007F13000C1B20398FFF714FE06F13000F1
:100AA000C1B20398FFF70EFE05F13000C1B2039802
:100AB000FFF708FE05B0BDE8F08F2DE9F0410746CD
:100AC0000D46012600BFB00045FA00F000F00F040B
:100AD000092C02DD04F1370001E004F13000C1B25D
:100AE0003846FFF7EFFD3000A6F10101CEB2EAD1A2
:100AF000BDE8F0812DE9F04107460D4659A1384681
:100B0000FFF707FE012600BFB00045FA00F000F035
:100B10000F04092C02DD04F1370001E004F130007C
:100B2000C1B23846FFF7CEFD3000A6F10101CEB2CA
:100B3000EAD1BDE8F0812DE9F04107460D460326D4
:100B400000BFB00045FA00F000F00F04092C02DDF0
:100B500004F1370001E004F13000C1B23846FFF77C
:100B6000B1FD3000A6F10101CEB2EAD1BDE8F081BD
:100B70002DE9F04107460D463AA13846FFF7C9FD79
:100B8000032600BFB00045FA00F000F00F04092C66
:100B900002DD04F1370001E004F13000C1B2384653
:100BA000FFF790FD3000A6F10101CEB2EAD1BDE819
:100BB000F0812DE9F04107460D46072600BFB00041
:100BC00025FA00F000F00F04092C02DD04F13700D3
:100BD00001E004F13000C1B23846FFF773FD300088
:100BE000A6F10101CEB2EAD1BDE8F081506C656199
:100BF000736520656E746572206120636861722080
:100C000066726F6D2027302720746F2027392721C7
:100C100021210D0A00000000E02E000052656163F2
:100C200068206C696D69746174696F6E206F6620ED
:100C300072652D74726965732E2052657475726EBB
:100C4000204641494C45440D0A0000000A0D0000B1
:100C5000A086010040420F008096980000E1F50553
:100C600000CA9A3B307800002DE9F04107460D4656
:100C7000AFF210013846FFF74CFD072600BFB00069
:100C800025FA00F000F00F04092C02DD04F1370012
:100C900001E004F13000C1B23846FFF713FD300027
:100CA000A6F10101CEB2EAD1BDE8F0811CB5012266
:100CB0000221002000F0C7F801220321002000F0EB
:100CC000C2F8684600F02DFD6946002000F0ADFB3B
:100CD0000121002000F0BCFCAFF2C9501D490860A2
:100CE000AFF259401C490860AFF227601B49086009
:100CF000AFF2FF101A490860AFF28B101949086073
:100D0000AFF29B0018490860AFF251201749086004
:100D1000AFF2DD1016490860AFF26910154908609E
:100D2000AFF2814014490860AFF2294013490860CE
:100D3000AFF2913012490860AFF265601149086066
:100D4000AFF2156010490860AFF25B600F490860B0
:100D50001CBD00001000001014000010180000104E
:100D6000280000102C00001030000010340000108B
:100D7000380000103C0000101C0000102000001083
:100D80002400001040000010480000104400001033
:100D900010B50246002001EB4213F74C04EB830030
:100DA00010BD02460520062A4AD2DFE802F0032FD2
:100DB000393A3B3D062907DD0A2901DB0B2903DD12
:100DC0000E2903DB162901DC00201EE00C2905D0CA
:100DD0000D2903D0172903DB1A2901DC012014E0B7
:100DE0001D2903D01E2901D01F2901D102200CE0AA
:100DF0001B2901D01C2901D1032006E0072903D0BB
:100E0000082901D0092900D104201AE01D2901DC9C
:100E1000002004E01E2901D01F2900D1012010E08C
:100E200000BF00BF00200CE0012901DD042901D131
:100E3000002004E0022901D0032900D1032000E0B2
:100E400000BF00BF70472DE9F04106460F4615462A
:100E5000002439463046FFF7A4FF8046B8F1050F5D
:100E600002D1C648BDE8F08139463046FFF790FF11
:100E70000446206820F00700206005F00701206884
:100E8000084320600020EDE72DE9F0410746884641
:100E90001646002441463846FFF783FF0546052DD8
:100EA00002D1B648BDE8F08135B1012D04D0042D42
:100EB00002D0B248401CF5E741463846FFF768FFCC
:100EC0000446206820F018002060182101EAC601BD
:100ED0002068084320600020E4E72DE9F041074640
:100EE00088461646002441463846FFF75AFF054615
:100EF000052D02D1A148BDE8F08125B1042D02D015
:100F00009E48401CF7E741463846FFF741FF04463C
:100F100026B9206820F02000206003E0206840F01F
:100F2000200020600020E6E72DE9F04107468846D2
:100F30001546002441463846FFF733FF0646052E86
:100F400002D18E48BDE8F081022E02D18B48401CB0
:100F5000F8E741463846FFF71BFF044625B92068ED
:100F600020F04000206003E0206840F04000206056
:100F70000020E7E72DE9F0410746884616460024A1
:100F800041463846FFF70DFF0546052D02D17B4847
:100F9000BDE8F08125B1042D02D07848401CF7E768
:100FA00041463846FFF7F4FE044626B9206820F48F
:100FB0000070206003E0206840F400702060002092
:100FC000E6E72DE9F04107468846154600244146EC
:100FD0003846FFF7E6FE0646052E02D16748BDE813
:100FE000F081032E02D06548401CF8E741463846A0
:100FF000FFF7CEFE044625B1206820F48070206003
:1010000003E0206840F4807020600020E7E72DE9CD
:10101000F041074688461546002441463846FFF70A
:10102000C0FE0646052E02D15448BDE8F081032ECD
:1010300002D05248401CF8E741463846FFF7A8FE68
:10104000044625B1012D0CD0022D1ED113E0012242
:1010500041463846FFF7B5FF206820F40070206055
:1010600016E0002241463846FFF7ABFF206820F427
:10107000007020600CE0012241463846FFF7A1FFD6
:10108000206840F40070206002E04FF0FF30CCE7B1
:1010900000BF0020C9E72DE9F04107468846164603
:1010A000002441463846FFF77CFE0546052D02D157
:1010B0003248BDE8F08135B1012D04D0042D02D0B5
:1010C0002E48401CF5E741463846FFF761FE0446CE
:1010D00026B9206820F48060206003E0206840F496
:1010E000806020600020E4E72DE9F0410746884653
:1010F0001546002441463846FFF753FE0646052EA6
:1011000002D11E48BDE8F081012E02D01B48401CD0
:10111000F8E741463846FFF73BFE044625B1206814
:1011200020F08000206003E0206840F08000206014
:101130000020E7E72DE9F04105460E46174600245A
:1011400031462846FFF72DFE8046B8F1050F02D143
:101150000A48BDE8F0810DB91A2E02D00748401C9C
:10116000F7E731462846FFF713FE044647B12068EB
:1011700040F48030206007E000C002400100001011
:10118000206820F4803020600020E2E72DE9F04163
:10119000074688461646002441463846FFF701FEBA
:1011A0000546052D02D10D48BDE8F081012D04D082
:1011B000042D02D00948401CF6E741463846FFF7A7
:1011C000E7FD044626B1206820F48070206003E02B
:1011D000206840F4807020600020E5E701000010E6
:1011E0000146002021B1022904D0032906D103E0E1
:1011F000FB4804E0FB4802E0FB4800E000BF00BF02
:1012000070472DE9F34F95B08A46002009900120E0
:10121000FEF7D1FF08904FF0FF30039000200690BA
:10122000059000210C460D464FF0010852E00020C9
:10123000079046E00798404400FB0AF900211C2271
:101240000898CDE90C10FFF746F80023A0FB082C06
:1012500001FB08C100FB0310CDE900204A46DDE98F
:101260000001FFF707F806460F4604962022304695
:101270003946CDE90A7601F0D5FD83460498B0F1F0
:10128000004F04D90498404204900BF1010BBBF1CC
:10129000000F02D0BBF5803F00D90FE0DDE903105D
:1012A00088420AD20498039000255C46079806906D
:1012B000CDF81480039800B906E000BF0798401CE1
:1012C000079007984045B5D300BF039800B904E0E4
:1012D00008F10108B8F10F0FA9D900BF002184EA75
:1012E00001006940084302D117B0BDE8F08F0898AB
:1012F0000009059900FB01FC0846069908440021F5
:10130000A0FB042301FB043100FB05100346CDE9DB
:10131000002060460021FEF7ADFF02900298824552
:1013200004D90298AAEB0000039003E00298A0EB16
:101330000A000390642103984843B0FBFAF003903D
:10134000039803286FD2159801281FD1A748007B66
:1013500040F08000A5490873082220462946CDE9BF
:101360000E5401F05FFDA14908710C700846007B26
:1013700000F07F000873F021059801EA001006993B
:1013800001F00F010843994988624AE01598042842
:1013900021D19748C06840F080009549C860082274
:1013A00020462946CDE9105401F03CFDC0B29049D9
:1013B0004860E0B208600846C06800F07F00C8607E
:1013C000F021059801EA0010069901F00F01084389
:1013D0008749886225E01598FFF702FF814699F852
:1013E0000C0040F0800089F80C00082220462946B5
:1013F000CDE9125401F016FD89F8040089F8004087
:1014000099F80C0000F07F0089F80C00F021059895
:1014100001EA0010069901F00F01084389F828003D
:1014200000BF0120099009985EE72DE9F0410646CA
:101430000F46052E3CD2DFE806F0033C04056C00A5
:1014400000BF00BF3046FFF7CBFE054626B901219D
:101450000820FEF7C7FE0CE0022E04D10121080689
:10146000FEF7C0FE05E0032E03D101214806FEF77A
:10147000B9FE072028720020287200E02C78287D11
:1014800010F0010FFAD1802085F8300000BF287DD0
:1014900010F0200FFBD0002085F830006860287322
:1014A000286285F84C0085F8540085F850002C7DA2
:1014B00057E001211020FEF795FE07204B490872E6
:1014C0000020087201E0494804784848007D10F087
:1014D000010FF8D180204749087000BF4348007DC4
:1014E00010F0200FFAD00020424908703F494860B0
:1014F0000873086281F84C003F4908703B4981F845
:1015000050000846047D4FF0000008740846047E31
:1015100027E001210802FEF765FE072034498860B4
:101520000020886001E0324804683148406910F0CA
:10153000010FF8D101202E49C86500BF2C48406931
:1015400010F0200FFAD000202949C8654860C86013
:101550000862C86448650865084644690020486216
:1015600000BF00BF30463968FFF74BFE012E04D1A3
:101570001E48007B00F0C0040EE0042E04D11C487D
:10158000C06800F0C00407E03046FFF729FE0546BA
:10159000287B00F0C00400BF787930B1012806D064
:1015A000022807D0032808D108E000BF09E044F072
:1015B000010406E044F0020403E000BF44F0030429
:1015C00000BF00BF387930B344F0080438790128EF
:1015D00014D0022814D0032815D0042819D115E0FE
:1015E00000C000400080094000C0094000000140E8
:1015F00000400A40300001405400014000BF09E0B3
:1016000044F0100406E044F0200403E044F0300409
:1016100000E000BF00BFB87928B1012802D144F032
:10162000040401E000BF00BF00BF012E02D1FA494F
:101630000C730BE0042E03D1E0B2F849C86005E05A
:101640003046FFF7CDFD05462C7300BFBDE8F081A5
:1016500070B504460D46012D1DD1012C07D1F0486F
:10166000007840F08000EC4981F830002FE0042C35
:1016700006D1EA48C06D40F00100E849C86526E09F
:101680002046FFF7ADFD064696F8300040F080009A
:1016900086F830001BE0012C07D1E14800784FF0BC
:1016A0000000DD4981F8300011E0042C05D1DB4851
:1016B000C06D0020D949C86509E02046FFF790FDBC
:1016C000064696F83000002086F8300000BF70BD56
:1016D00010B5044600212046FFF7BAFF24B90021C7
:1016E0000820FEF77FFD1BE0012C04D10021102013
:1016F000FEF778FD14E0022C04D10021E005FEF78E
:1017000071FD0DE0032C05D100214FF00070FEF7B4
:1017100069FD05E0042C03D10021A001FEF762FD64
:1017200010BD4FF4E13101600321417100210171CD
:1017300081717047052813D2DFE800F00306090C19
:101740000F00B84A11700BE0B34A117008E0B64AB6
:10175000117005E0B54A117002E0B04A116000BF97
:1017600000BF70470146052914D2DFE801F00306E7
:10177000090C0F00AB4800787047A7480078FBE7DA
:10178000A9480078F8E7A9480078F5E7A348006879
:10179000C0B2F1E70020EFE72DE9FF4F0746914681
:1017A0009A46019E4FF0000B052F1DD2DFE807F08F
:1017B00003080D121700DFF86CB20BF1140B13E0E5
:1017C000DFF854B20BF1140B0EE0DFF85CB20BF152
:1017D000140B09E0DFF854B20BF1140B04E0DFF84E
:1017E0003CB20BF1140B00BF00BF4B46BAF1010F26
:1017F00024D100241FE04FF0FF3805E0B8F1000FBE
:1018000000D106E0A8F10108DBF8000010F0200F7D
:10181000F4D000BFB8F1000F00D10EE0102507E0B2
:1018200016F8011B3846FFF785FF6D1E5B1E641C12
:101830000DB1002BF4D1002BDDD119E0002414E010
:1018400003B914E0DBF8000010F0200F00D10EE027
:10185000102507E016F8011B3846FFF76BFF5B1EEB
:101860006D1E641C0DB1002BF4D1002BE8D100BF1C
:10187000204604B0BDE8F08F2DE9F04705460F463D
:10188000904699463C464FF0000A052D1DD2DFE8F0
:1018900005F003080D121700DFF888A10AF1140AF9
:1018A00013E0DFF874A10AF1140A0EE0DFF878A162
:1018B0000AF1140A09E0DFF874A10AF1140A04E03D
:1018C000DFF858A10AF1140A00BF00BF4246B9F17F
:1018D000010F19D1002314E04FF0FF3602E006B9E2
:1018E00005E0761EDAF8000010F0010FF7D000BF17
:1018F00006B908E02846FFF735FF04F8010B521E31
:101900005B1C002AE8D111E000230CE0DAF80000AB
:1019100010F0010F00D108E02846FFF723FF04F87C
:10192000010B5B1C521E002AF0D100BF1846BDE817
:10193000F087052827D2DFE800F0030A11181F00FE
:101940003849097B41F04001364A11731BE03249A6
:10195000097B41F04001304A117314E03249097BA0
:1019600041F04001304A11730DE03049097B41F0EC
:1019700040012E4A117306E02849C96841F0400130
:10198000264AD16000BF00BF7047F0B503460C4641
:1019900000210025052B1DD2DFE803F003080D12FE
:1019A00017002049091D40F2073513E01A49091DA7
:1019B00040F28F350EE01C49091D40F2073509E061
:1019C0001A49091D40F2073504E01449091D40F287
:1019D000073500BF00BF072C15D2DFE804F004066E
:1019E000080A0C0E110001200DE002200BE004207B
:1019F00009E0082007E0802005E04FF4807002E055
:101A00004FF4007000BF00BF012A11D10E6800EA38
:101A100005073E430E6010E00000014000400A4010
:101A20003000014000C000400080094000C0094073
:101A30000E6825EA00073E400E60F0BD014605290C
:101A400014D2DFE801F00306090C0F00FE48007D08
:101A50007047FE48007DFBE7FD48007DF8E7FD4844
:101A6000007DF5E7FC484069C0B2F1E70020EFE7F0
:101A70000146052922D2DFE801F003090F151B00FA
:101A8000F148806840F2CF3210407047EF488068DC
:101A900040F2CF321040F8E7ED48806840F2CF3294
:101AA0001040F2E7EB48806840F2CF321040ECE79C
:101AB000E948806840F2CF321040E6E70020E4E7D2
:101AC0000146002205291DD2DFE801F003080D12AE
:101AD0001700DD48007D00F0400213E0DB48007D88
:101AE00000F040020EE0DA48007D00F0400209E01C
:101AF000D848007D00F0400204E0D748406900F07B
:101B0000400200BF00BF12F0400F01D0002070471C
:101B10000120FCE710B50246002040F00100CB7820
:101B200033B1012B06D0022B07D0032B08D108E0DC
:101B300000BF09E040F0400006E040F0800003E014
:101B400000BF40F0C00000BF00BF4B78012B01D1A7
:101B500040F004000B78012B01D140F002008B789B
:101B6000012B01D140F00800052A1DD2DFE802F068
:101B700003080D12170000F0CF03B34C237213E0DB
:101B800000F0CF03B14C23720EE000F0CF03B04C55
:101B9000237209E000F0CF03AE4C237204E000F0A2
:101BA000CF03AD4CA36000BF00BF10BD002181700A
:101BB000C17001210170417070472DE9F041074665
:101BC000884615460026012D0BD198F80000012803
:101BD00001D146F0020698F80100012801D146F033
:101BE0000406012F19D1012D13D19848007B40F034
:101BF0008000964908730020087008710846007B31
:101C000020F0800008731020886246F0010008620E
:101C10003AE000208D49086236E0042F19D1012DE9
:101C200013D18D48C06840F080008B49C860002007
:101C3000086048600846C06820F08000C860102036
:101C4000886246F0010008621EE0002082490862B6
:101C50001AE03846FFF7C4FA0446012D11D1207B63
:101C600040F080002073002020702071207B20F045
:101C700080002073102084F8280046F001002062C4
:101C800001E00020206200BFBDE8F08170B505468C
:101C90000C46012D05D16D48006A20436B4908624E
:101CA0000FE0042D05D16C48006A20436A490862A0
:101CB00007E02846FFF794FA0646306A2043306270
:101CC00000BF70BD042800D07047012906D1624AC8
:101CD000526A42F00202604B5A6206E029B95E4A3B
:101CE000526A02F03D025C4B5A6200BFECE70428E6
:101CF00000D07047012906D1574A526A42F00102CA
:101D0000554B5A6205E0544A526A02F03E02524B69
:101D10005A6200BFEDE730B5042800D030BD4C0753
:101D2000A30E4D4C646A24F0380243F004042243AD
:101D300002F03F04484D6C6200BFEFE730B500236E
:101D4000012800D030BD11B1012904D101E00123E7
:101D500002E0022300E000BF00BF012A05D13B4C96
:101D6000247C1C43394D2C7406E0384C247CF3252C
:101D70009D432C40354D2C7400BFE3E730B503463E
:101D8000012B00D030BD21B1012904D0022906D198
:101D900003E0102004E0402002E0802000E000BFCB
:101DA00000BF012A05D1294C247C0443274D2C7403
:101DB00006E0264C247CF32585432C40234D2C74CF
:101DC00000BFDFE70146012901D0002070471F480E
:101DD000007EFBE72DE9F05F07460C460025012F4A
:101DE0000AD1DFF8688008F15408A8F10409174EF9
:101DF0000C36A9F1040A19E0042F0AD1DFF8588043
:101E000008F15408A8F10409134E0C36A9F1040A8C
:101E10000CE03846FFF7E4F983460BF154080BF168
:101E200050090BF10C060BF14C0A00BFE0780128B9
:101E30001BD145F010056079012801D145F020053E
:101E4000207901280ED109E000C0004000000140C7
:101E50000080094000C0094000400A40012F01D124
:101E600045F00805E079C8F800002078012801D184
:101E700045F00105A078012804D145F00405A079BA
:101E8000C9F80000607808B945F0020505F03F0088
:101E9000CAF80000306840F038003060BDE8F09FBC
:101EA0002DE9F04105460E46012D01D1394C0AE0DD
:101EB000042D01D1384C06E02846FFF791F907467A
:101EC00007F1540400BF012E04D1206820F0020065
:101ED000206003E0206840F002002060BDE8F0814F
:101EE0002DE9FF4F81B006468B469846012E04D15E
:101EF000284C483C274D403D0FE0042E04D1264C91
:101F0000483C254D403D08E03046FFF769F98246E0
:101F10000AF10C040AF1140500BFB8F1000F14D047
:101F20002068C7B2B94629F01009C4F8009001230F
:101F300059463046039AFFF72FFC009000BF2868EF
:101F400010F0400FFBD027600BE0012359463046CC
:101F5000039AFFF721FC009000BF286810F0400FA3
:101F6000FBD0009805B0BDE8F08F13B504460123FF
:101F70001A4601A92046FFF7B3FF1CBD70B5044601
:101F80000D4616460023324629462046FFF7A8FF95
:101F900070BD00005400014054400A4010B5044692
:101FA00001214802FEF71EF90020207020722073E4
:101FB000FF2020740020206410BD10B504460020CE
:101FC000207200214FF40070FEF70CF910BD017A69
:101FD00041F002010172017A01F0110101727047B2
:101FE000012904D1027A42F00102027203E0027A6E
:101FF00002F0120202727047012A30D108292DD254
:10200000DFE801F004090E13181D2227037B43F0BB
:102010000103037322E0037B43F0020303731DE01B
:10202000037B43F00403037318E0037B43F01003C6
:10203000037313E0037B43F0080303730EE0037B99
:1020400043F02003037309E0037B43F04003037371
:1020500004E0037B43F08003037300BF30E00829F2
:102060002DD2DFE801F004090E13181D2227037B8F
:1020700003F0FE03037322E0037B03F0FD0303730D
:102080001DE0037B03F0FB03037318E0037B03F005
:10209000EF03037313E0037B03F0F70303730EE016
:1020A000037B03F0DF03037309E0037B03F0BF034B
:1020B000037304E0037B03F07F03037300BF00BFDF
:1020C0007047012A30D108292DD2DFE801F0040938
:1020D0000E13181D2227037C03F0FE03037422E075
:1020E000037C03F0FD0303741DE0037C03F0FB039A
:1020F000037418E0037C03F0EF03037413E0037C24
:1021000003F0F70303740EE0037C03F0DF030374B2
:1021100009E0037C03F0BF03037404E0037C03F0D5
:102120007F03037400BF30E008292DD2DFE801F0FF
:1021300004090E13181D2227037C43F001030374C6
:1021400022E0037C43F0020303741DE0037C43F0B0
:102150000403037418E0037C43F01003037413E0DA
:10216000037C43F0080303740EE0037C43F0200378
:10217000037409E0037C43F04003037404E0037C30
:1021800043F08003037400BF00BF7047082940D2AA
:10219000DFE801F0040B1219202830383B2A03D85D
:1021A00002F03F0380F8203033E03B2A03D802F0EE
:1021B0003F0380F824302CE0172A03D802F01F03D5
:1021C00080F8283025E0062A03D802F0070380F8BB
:1021D00030301EE02AB11F2A03D802F01F0380F816
:1021E0002C3016E02AB1B2F5B77F02D8C2F308034B
:1021F00083860EE02AB10C2A03D802F00F0380F880
:10220000383006E0B2F5805F02D2C2F30B03838759
:1022100000BF00BF7047024608292BD2DFE801F05B
:1022200004090E13181D212692F8200000F03F002B
:10223000704792F8240000F03F00F9E792F8280078
:1022400000F01F00F4E792F8300000F00700EFE71D
:1022500092F82C0000F01F00EAE7908EC0F308000F
:10226000E6E792F8380000F00F00E1E7908FC0F346
:102270000B00DDE70020DBE7CA6802F01F0200F177
:10228000200002730A6902F0070202744A69C2F36D
:10229000080282828A6802F01F0202724A6802F013
:1022A0003F0202710A6802F03F0202708A6902F07E
:1022B0000F020276CA69C2F30B028283A0F12000EA
:1022C000704700F12000027B02F01F02CA60027C0E
:1022D00002F007020A61828AC2F308024A61027AA6
:1022E00002F01F028A60027902F03F024A6002781F
:1022F00002F03F020A60027E02F00F028A61828BC6
:10230000A0F12000C2F30B02CA617047082942D233
:10231000DFE801F0040B1219202831393B2A03D8D9
:1023200002F03F0380F8603035E03B2A03D802F02A
:102330003F0380F864302EE0172A03D802F01F0311
:1023400080F8683027E0062A03D802F0070380F8F7
:10235000703020E02AB11F2A03D802F01F0380F852
:102360006C3018E032B1B2F5B77F03D8C2F308037E
:10237000A0F874300FE02AB10C2A03D802F00F0342
:1023800080F8783007E0B2F5805F03D2C2F30B0328
:10239000A0F87C3000BF00BF7047024608292DD24C
:1023A000DFE801F004090E13181D222792F86000DF
:1023B00000F03F00704792F8640000F03F00F9E73A
:1023C00092F8680000F01F00F4E792F8700000F047
:1023D0000700EFE792F86C0000F01F00EAE7B2F8A0
:1023E0007400C0F30800E5E792F8780000F00F00F1
:1023F000E0E7B2F87C00C0F30B00DBE70020D9E790
:10240000CA6802F01F0200F1600002730A6902F05C
:10241000070202744A69C2F3080282828A6802F0E3
:102420001F0202724A6802F03F0202710A6802F05B
:102430003F0202708A6902F00F020276CA69C2F393
:102440000B028283A0F16000704700F16000027B04
:1024500002F01F02CA60027C02F007020A61828A4F
:10246000C2F308024A61027A02F01F028A6002790E
:1024700002F03F024A60027802F03F020A60027EE8
:1024800002F00F028A61828BA0F16000C2F30B029E
:10249000CA61704702461078084201D00120704797
:1024A0000020FCE702780A4302707047012904D13A
:1024B000027A02F00302027203E0027A42F0100292
:1024C0000272704710B54B1EC3F31003012A01D1ED
:1024D000540400E000242343036410BD10B500F150
:1024E000440303EB81031A6010BD10B5024602F1EC
:1024F000440303EB8103186810BD00B97047002145
:102500000CE0002201EB4103C25401EB4103034400
:102510009A7001EB410303445A70491C0329F0D31C
:102520004022C26000BFE9E7014609B900207047B8
:10253000F948007A10F0010F01D10020F7E7087880
:1025400038B1F648006840F00400F34AC2F884004D
:1025500006E0F248006820F00400EF4AC2F8840068
:10256000487838B1ED48006840F00100EA4AC2F806
:10257000840006E0E948006820F00100E64AC2F85D
:102580008400887838B1E548006840F00200E24AEB
:10259000C2F8840006E0E148006820F00200DE4A4C
:1025A000C2F88400C87838B1DC48006840F4805034
:1025B000D94AC2F8840006E0D848006820F4805068
:1025C000D54AC2F88400087938B1D448006840F48C
:1025D0008060D14AC2F8840006E0D048006820F448
:1025E0008060CD4AC2F88400487938B1CB48006891
:1025F00040F40060C84AC2F8840006E0C74800689A
:1026000020F40060C44AC2F88400887938B1C34815
:10261000006840F48000C04AC2F8840006E0BF4869
:10262000006820F48000BC4AC2F88400C87938B140
:10263000BA48006840F48010B74AC2F8840006E047
:10264000B648006820F48010B34AC2F88400087AC3
:1026500038B1B248006840F40010AF4AC2F88400B4
:1026600006E0AE48006820F40010AB4AC2F88400CF
:10267000AA48006820F04040A84A1060C86838B1F5
:1026800010280BD0402811D0B0F57A7F1ED115E06C
:10269000A2480068A04AC2F8840019E09F48006878
:1026A00040F080409C4AC2F8840011E09B480068DA
:1026B00040F00040984AC2F8840009E0974800685A
:1026C00040F04040944AC2F8840001E000202EE728
:1026D00000BF01202BE7024622B1012A13D0022AB3
:1026E00033D121E039B18D48006840F008008A4BB1
:1026F000C3F8840006E08948006820F00800864B93
:10270000C3F8840023E039B18448006840F40050E5
:10271000814BC3F8840006E08048006820F4005034
:102720007D4BC3F8840012E039B17C48006840F466
:102730000000794BC3F8840006E07848006820F474
:102740000000754BC3F8840001E00020704700BF13
:102750000120FBE70146002021B1012907D0022911
:102760000FD109E06E4A126802F007000AE06C4AD5
:102770001268C2F3022005E0694A1268C2F30240FF
:1027800000E000BF00BF70476648006870476549B9
:10279000096841EA0001604AC2F880107047614848
:1027A000006810F0004F01D0012070470020FCE7C6
:1027B0005C48006810F0080F01D00120704700202D
:1027C000FCE7024609B90020704722B1012A1ED059
:1027D000022A54D137E05348006810F0010F01D1AC
:1027E0000020F1E75048006800F03F0008604E48C4
:1027F0000068C0F3851048604B480068C0F304309F
:10280000886049480068C0F34840C86038E04548DF
:10281000006810F0020F01D10020D5E7434800689E
:1028200000F03F00086041480068C0F38510486030
:102830003E480068C0F3043088603C480068C0F33C
:102840004840C8601CE03748006810F0040F01D110
:102850000020B9E73648006800F03F0008603448BF
:102860000068C0F38510486031480068C0F3043048
:1028700088602F480068C0F34840C86000E000BF8F
:1028800000BF0120A0E7024609B90020704722B12D
:10289000012A1ED0022A66D137E02248006810F0D3
:1028A000010F01D10020F1E72248006800F03F004D
:1028B000086020480068C0F3851048601D48006823
:1028C000C0F3043088601B480068C0F34840C8600B
:1028D0004AE01448006810F0020F01D10020D5E74B
:1028E0001548006800F03F00086013480068C0F316
:1028F0008510486010480068C0F3043088600E48B6
:102900000068C0F34840C8602EE00648006810F038
:10291000040F13D10020B9E7004002408440024078
:102920008840024080400240904002409440024073
:1029300098400240A0400240A44002400C48006879
:1029400000F03F0008600A480068C0F38510486046
:1029500007480068C0F30430886005480068C0F389
:102960004840C86000E000BF00BF01208EE70000C3
:10297000A840024010B50321E548FFF78BFD18B1D0
:102980000321E348FFF78EFDFFF7FEFE0446022019
:10299000FFF7E0FEDF490870DF490220FFF711FF73
:1029A000DE490220FFF76FFF2046FFF7F0FE10BD63
:1029B00010B5DB490020DB4A1268904710BD00B516
:1029C00089B0D348FFF7EAFAD148FFF700FB0121AD
:1029D000CF48FFF705FB00221146CD48FFF7D6FB95
:1029E0002D220121CA48FFF7D1FB12220221C8483B
:1029F000FFF7CCFB01220621C548FFF7C7FB40F2D9
:102A0000DC720721C248FFF7C1FB01220421C04844
:102A1000FFF7BCFB01220521BD48FFF7B7FB0622EB
:102A20000321BB48FFF7B2FB01A9B948FFF749FCF6
:102A3000BDA10020BB4A126890470398C1B2002094
:102A4000BF4A12689047BFA10020B64A126890475B
:102A50000298C1B20020BA4A12689047B9A100207A
:102A6000B04A126890470198C1B20020B44A126877
:102A70009047B5A10020AB4A126890470498C1B2B4
:102A80000020AF4A12689047B0A10020A54A126802
:102A900090470798C1B20020A94A12689047ABA19D
:102AA0000020A04A12689047089881B20020A84AE6
:102AB00012689047A7A100209A4A1268904706988A
:102AC00081B20020A24A12689047A5A10020954A31
:102AD00012689047059881B200209D4A126890477D
:102AE000A2A10020A24A1268904709B000BD86B09A
:102AF0000024FEF7DBF8FFF75BFF00BFFFF75FFF87
:102B0000042207210020FEF79EF90422082100205C
:102B1000FEF799F9042209210020FEF794F902A892
:102B2000FFF7EBFC01208DF80E0001218DF80F104E
:102B300002A8FFF7F9FC01287ED101210220FFF74E
:102B4000CAFD11200121814042094FF0E02303EB2F
:102B50008202C2F8001100BFD5E00020019001A957
:102B6000844A126890479DF8040064282DD006DC42
:102B7000442829D0502815D0532837D104E0702894
:102B800011D0732832D100E000BF7BA10020784A29
:102B900012689047FDF739FB7CA10020744A126847
:102BA000904724E000BF7EA10020714A1268904740
:102BB000FDF738FBFDF7F0FCFEF778F873A1002075
:102BC0006B4A1268904799E700BF7CA10020684AD1
:102BD00012689047FDF72EFBFDF7DEFCFEF766F866
:102BE0006AA10020624A1268904787E700BF00BFD1
:102BF0004848007800287DD078A10020494A126812
:102C000090474448017800204D4A1268904753A1EC
:102C10000020574A1268904774A10020414A126868
:102C200090473D488068C1B20020454A12689047ED
:102C300044A100203B4A00E066E012689047364815
:102C40004068C1B200203E4A126890473DA1002072
:102C5000344A1268904730480068C1B20020384AB0
:102C60001268904766A100202E4A126890472A48B1
:102C7000C068C1B20020324A1268904737A10020D4
:102C80003B4A1268904761A10020264A126890478B
:102C900022488068C1B20020294A1268904729A1C1
:102CA0000020204A126890471C484068C1B20020AA
:102CB000234A1268904723A100201A4A12689047BD
:102CC00016480068C1B200201D4A126890474CA106
:102CD0000020144A126890471048C068C1B2002012
:102CE000174A126890471DA10020214A1268904798
:102CF000002000E001E007490870002400E0641CA7
:102D000047488442FBD328E700BFFEE7FFF7EFFE0A
:102D1000004002402D02001030020010400200105E
:102D20004C0000101000001043757272656E742024
:102D300074696D652073657420746F3A200000001B
:102D40001C0000103A000000202000002F000000AE
:102D5000200000102028444F59203D200000000092
:102D60002C20444F57203D20000000002900000087
:102D70001400001044000010456E74657220746FDA
:102D800020536C656570204D6F6465000A0D5379A2
:102D90007374656D2077616B652D7570210A0D0068
:102DA000456E74657220746F20506F776572204491
:102DB0006F776E204D6F646500000000456E74658E
:102DC0007220746F204465657020506F77657220A3
:102DD000446F776E204D6F64650000004576656E28
:102DE0007420436F756E743A200000004669727358
:102DF000742054696D655374616D703A2000000051
:102E00002C20444F59203D20000000004C61737479
:102E10002054696D655374616D703A2000000000A4
:102E2000A0860100202A04DB203A21FA02F00021CA
:102E3000704721FA02F3D040C2F1200291400843CA
:102E400019467047064C074D06E0E06840F0010364
:102E500094E8070098471034AC42F6D3FDF746F9E2
:102E60003C2F00005C2F000070B501EB020410F84D
:102E7000015B15F0070301D110F8013B2A1106D1BF
:102E800010F8012B03E010F8016B01F8016B5B1ED9
:102E9000F9D12B0705D40023521E0FD401F8013BB2
:102EA000FAE710F8013B02F10202A1EB030303E091
:102EB00013F8015B01F8015B521EF9D5A142D6D38C
:102EC000002070BD02E008C8121F08C1002AFAD114
:102ED0007047002001E001C1121F002AFBD170479A
:102EE000506C6561736520656E7465722061206346
:102EF0006861722066726F6D2027302720746F2002
:102F00002739272C20616E642027612F41272C2030
:102F100027622F42272C20632F43272C2027642F42
:102F200044272C2027652F452720616E64202766C3
:102F30002F46272121210D0A000000005C2F0000F0
:102F40000000001030020000682E00005430000025
:102F50003002001020040000D22E000011140E27B1
:102F6000073C87930304043C6CDC020A4D2A0118D9
:102F70001D0A0D2048656C6C6F204E58502053651B
:102F80006D69636F6E647563746F7273201C180BC8
:102F90004576656E74204D6F6E691218132F526559
:102FA000636F72646572204578616D706C653A2359
:102FB000581409202D204D43553A204C50433137A9
:102FC00037785F3878161C436F7222580E41524D85
:102FD00020434F525445582D4D331A1D55415254DC
:102FE0001F38176D6D756E69636174696F6E3A2075
:102FF000313135323030206270781E546869732068
:10300000032D612073696A4B2065721C20666F7EF8
:10301000F99519941A2E36180C5072657373205353
:1030200020746F202219A819091808736C6565703F
:10303000206D237921BA50211C706F7709CD646F00
:10304000776E26BA44262A6446F92B0A4D2A014394
:043050000A0D000065
:04000005000000E512
:00000001FF
