:020000040000FA
:1000000010070010F90000000101000003010000CA
:100010000501000007010000090100009EF3FFEF49
:100020000000000000000000000000000B010000C4
:100030000D010000000000000F0100001101000090
:100040001301000013010000130100001301000060
:100050001301000013010000130100001301000050
:100060001301000013010000130100001301000040
:100070001301000000000000130100001301000044
:100080001301000013010000130100001301000020
:100090001301000013010000130100001301000010
:1000A0001301000013010000130100001301000000
:1000B00013010000130100001301000013010000F0
:1000C00013010000130100001301000013010000E0
:1000D00013010000130100001301000013010000D0
:1000E00013010000DFF80CD004F042FA004800478A
:1000F000F325000010070010064880470648004717
:10010000FEE7FEE7FEE7FEE7FEE7FEE7FEE7FEE7C7
:10011000FEE7FEE7CF050000E500000070B50646EB
:100120000D4636B1012E12D0022E1ED0032E3ED126
:1001300029E04448006820F01F0405F01F0040EA51
:1001400004044148C0F8044100F0DAF831E03F48C7
:10015000006820F01F0405F01F0040EA04043A483C
:10016000C0F8A84100F0CCF823E03948006820F03E
:10017000010405F0010040EA04043348C0F80041DE
:1001800000F0BEF815E03348006820F01F0405F0C9
:100190001F0040EA04042C48D0F8080105F01F01B4
:1001A00040EA01002B49086000F0AAF801E000BF16
:1001B000FEE700BF70BD014631B1012907D0022919
:1001C00008D003290CD108E0234800687047234871
:1001D0000068FBE722480068F8E722480068F5E776
:1001E00000BFFEE7012907D11F4A126842EA000258
:1001F000154BC3F8C42007E031B91B4A126822EA44
:100200000002114BC3F8C420704700201749086052
:1002100030BF704704201649086000201349086069
:1002200030BF704704201249086001200F49086060
:1002300030BF704704200E49086003200B49086056
:1002400030BF704704C10F4000C00F40A8C10F402D
:1002500000C10F4008C10F40000000100400001052
:10026000080000100C000010C4C00F40C0C00F40B8
:1002700010ED00E02DE9F05F0546002092469B4618
:1002800088460646814640241BE0284641464746AC
:10029000224604F02BF952465B46801A994110D34E
:1002A00010461946224600F016F82D1A67EB010891
:1002B0004F4622460120002100F00DF817EB0009FF
:1002C0004E41201EA4F10104DFDC484631462A4697
:1002D0004346BDE8F09F202A04DB203A00FA02F1F1
:1002E000002070479140C2F1200320FA03F3194324
:1002F000904070477047000000000000FFFFFFFFC4
:1003000030B5E748006810F4807F6BD1E54800689D
:1003100010F0010F2CD1E248006810F01F0F01D13E
:10032000002006E0DE48006800F01F00DE49B1FB57
:10033000F0F0DE490860DE48006810F01F0F01D1C0
:10034000002006E0DA48006800F01F00D649B1FB43
:10035000F0F0D8490860D848006800F0010000F1CA
:100360000100D2490968B1FBF0F0D4490860B6E059
:10037000D348006810F0400F07D10020CB49086037
:10038000CC490860CD490860A9E0C548006810F074
:100390001F0F01D1002006E0C148006800F01F00D7
:1003A000C149B1FBF0F0C1490860C148006810F0D4
:1003B0001F0F01D1002006E0BD48006800F01F00BB
:1003C000B949B1FBF0F0BB490860BB48006800F0D8
:1003D000010000F10100B5490968B1FBF0F0B7492F
:1003E00008607CE0B748006810F4807F07D10020E7
:1003F000AE490860AF490860B04908606FE0A9489D
:10040000006810F0010F2ED1AE4C246804F01F04D8
:1004100004F10100AC4CD4F8044104F01F01A44CD9
:10042000246804F01F02A84CD4F8004104F0010431
:1004300004F1010309B9002403E09B4C4443B4FBDD
:10044000F1F49A4D2C600AB9002403E0964C444321
:10045000B4FBF2F4974D2C60944C2468B4FBF3F495
:10046000964D2C603BE09648006810F0400F07D195
:1004700000208E4908608F490860904908602EE08E
:10048000904C246804F01F0404F101008E4CD4F851
:10049000044104F01F01864C246804F01F028A4CBA
:1004A000D4F8004104F0010404F1010309B9002467
:1004B00003E07D4C4443B4FBF1F47C4D2C600AB95D
:1004C000002403E0784C4443B4FBF2F4794D2C60F3
:1004D000764C2468B4FBF3F4784D2C6000BF7B4865
:1004E000006810F4807F31D07848006810F01F0059
:1004F00004D0042806D0062823D104E00020744943
:10050000086022E000BF6F4A126802F01F0202F189
:1005100001006D4AD2F8082102F01F01614A1268F9
:1005200012F0010F06D0604A4243B2FBF1F2684B71
:100530001A6005E05C4A4243B2FBF1F2644B1A6078
:1005400003E000206249086000BF24E05F480068C3
:1005500010F4007F1CD05348006810F0010F0BD03E
:100560005C48006800F01F0000F101004E4900FBEC
:1005700001F0574908600EE05248006800F01F0083
:1005800000F10100484900FB01F05149086002E018
:1005900000204F49086030BD70B54F484F4A131DC9
:1005A0004FF0000C14681D684D4EB44205D1A5F102
:1005B0008856113E01D1012600E00026B446BCF168
:1005C000000F03D0016841F47001016070BD00B5F7
:1005D000FFF7E2FF20203A49086000BF3848006872
:1005E00010F0400FFAD001202E4908604FF00900AA
:1005F0003549C1F884004FF001003A4908604FF0D6
:10060000AA00394908604FF05500086000BF2D4826
:10061000006810F4806FFAD02320344908604FF04E
:1006200001002949C1F8A0004FF0AA003049086034
:100630004FF055002449C1F8AC0000BF25480068C0
:1006400010F4806FFAD040F201101549086040F2B2
:1006500001201D49C1F808014FF00100164908604A
:100660004FF00200234908601149086022482349DD
:1006700008604FF480701449C1F8C8010846D0F8EA
:10068000B00140F003001E49086045F23A000E49EF
:1006900008604FF000001B490860FFF731FE00BD05
:1006A00004C10F400CC10F40001BB7000000001038
:1006B000A8C10F400400001000C10F400800001046
:1006C000A0C10F4088C00F4000C00F4008C10F40BC
:1006D0000C000010A8C00F4088ED00E040EF00E0E3
:1006E0002100111080C00F408CC00F40A4C00F40EB
:1006F000ACC00F40B4C10F40DE872804C4C00F4017
:10070000B0C10F4008ED00E013B5044601231A46BE
:1007100001A9204601F06AF81CBD38B50446002046
:10072000009001231A466946204601F0CFF89DF853
:10073000000038BD70B505460C460CB9002070BDF0
:10074000002301222146284601F0C0F808B101200B
:10075000F5E70020F3E770B506460D462C4604E0A9
:1007600014F8011B3046FFF7CFFF20780028F7D19F
:1007700070BD2DE9FF4F83B00C4615461E46002084
:1007800002900190002D03DC306007B0BDE8F08FCF
:100790004FF00008012C01D1102003E00CB90A2011
:1007A00000E000208246BAF1000F02D10020306044
:1007B000EBE7002785E00120019001231A4602A9FA
:1007C000039801F083F89DF80800302808DB9DF8B5
:1007D0000800392804DC9DF80800A0F1300B37E050
:1007E000012C33D14FF0100A9DF80800612811D078
:1007F00008DCA0F14100062824D2DFE800F00C104C
:1008000014181C20623805281CD2DFE800F0070B02
:100810000F13170000BF4FF00A0B16E000BF4FF098
:100820000B0B12E000BF4FF00C0B0EE000BF4FF0BF
:100830000D0B0AE000BF4FF00E0B06E000BF4FF0BB
:100840000F0B02E00020019000BF01E000200190AA
:10085000012000900198B0B924B9F4A10398FFF7E2
:100860007AFF05E0012C03D1FB490398FFF773FFE2
:1008700008F10108B8F10A0F23D3F8A10398FFF794
:100880006AFF002081E79DF808100398FFF73CFFFE
:10089000012D03D1AA46012000900CE04FF0010980
:1008A00007E0009800FB0AF0009009F1010000F059
:1008B000FF09A945F5DB00980BFB00FB5F44681EB0
:1008C000C5B2002D3FF777AF376001205DE770B507
:1008D00004460D4629462046FFF73DFFEBA1204682
:1008E000FFF739FF70BD2DE9F04180460C460A2024
:1008F00094FBF0F100FB1140C5B20A2094FBF0F02C
:100900000A2190FBF1F201FB1200C6B2642094FBB5
:10091000F0F090FBF1F201FB1200C7B207F13000DA
:10092000C1B24046FFF7F0FE06F13000C1B24046CA
:10093000FFF7EAFE05F13000C1B24046FFF7E4FEE2
:10094000BDE8F0812DE9F04782460C460A2094FB71
:10095000F0F100FB1140C5B20A2094FBF0F00A212F
:1009600090FBF1F201FB1200C6B2642094FBF0F0A0
:1009700090FBF1F201FB1200C7B24FF47A7094FBC6
:10098000F0F090FBF1F201FB120000F0FF0842F2E0
:10099000107094FBF0F090FBF1F201FB120000F0FC
:1009A000FF0909F13000C1B25046FFF7ADFE08F172
:1009B0003000C1B25046FFF7A7FE07F13000C1B2C8
:1009C0005046FFF7A1FE06F13000C1B25046FFF7D6
:1009D0009BFE05F13000C1B25046FFF795FEBDE821
:1009E000F0872DE9F34F83B00C460A20B4FBF0F1F9
:1009F00000FB1145B4FBF0F00A21B0FBF1F201FB62
:100A000012066420B4FBF0F0B0FBF1F201FB120718
:100A10004FF47A70B4FBF0F0B0FBF1F201FB120876
:100A200042F21070B4FBF0F0B0FBF1F201FB1209DE
:100A30009748B4FBF0F0B0FBF1F201FB120A9548C5
:100A4000B4FBF0F0B0FBF1F201FB120B9248B4FBE7
:100A5000F0F0B0FBF1F201FB120002908F48B4FB02
:100A6000F0F0B0FBF1F201FB120001908C48B4FBF6
:100A7000F0F0B0FBF1F201FB120000900098303072
:100A8000C1B20398FFF740FE01983030C1B203981D
:100A9000FFF73AFE02983030C1B20398FFF734FEF8
:100AA0000BF13000C1B20398FFF72EFE0AF13000BF
:100AB000C1B20398FFF728FE09F13000C1B20398D4
:100AC000FFF722FE08F13000C1B20398FFF71CFEC9
:100AD00007F13000C1B20398FFF716FE06F13000AF
:100AE000C1B20398FFF710FE05F13000C1B20398C0
:100AF000FFF70AFE05B0BDE8F08F2DE9F04107468B
:100B00000D46012600BFB00045FA00F000F00F04CA
:100B1000092C02DD04F1370001E004F13000C1B21C
:100B20003846FFF7F1FD3000A6F10101CEB2EAD15F
:100B3000BDE8F0812DE9F04107460D4659A1384640
:100B4000FFF709FE012600BFB00045FA00F000F0F3
:100B50000F04092C02DD04F1370001E004F130003C
:100B6000C1B23846FFF7D0FD3000A6F10101CEB288
:100B7000EAD1BDE8F0812DE9F04107460D46032694
:100B800000BFB00045FA00F000F00F04092C02DDB0
:100B900004F1370001E004F13000C1B23846FFF73C
:100BA000B3FD3000A6F10101CEB2EAD1BDE8F0817B
:100BB0002DE9F04107460D463AA13846FFF7CBFD37
:100BC000032600BFB00045FA00F000F00F04092C26
:100BD00002DD04F1370001E004F13000C1B2384613
:100BE000FFF792FD3000A6F10101CEB2EAD1BDE8D7
:100BF000F0812DE9F04107460D46072600BFB00001
:100C000025FA00F000F00F04092C02DD04F1370092
:100C100001E004F13000C1B23846FFF775FD300045
:100C2000A6F10101CEB2EAD1BDE8F081506C656158
:100C3000736520656E74657220612063686172203F
:100C400066726F6D2027302720746F202739272187
:100C500021210D0A000000000C460000526561636E
:100C600068206C696D69746174696F6E206F6620AD
:100C700072652D74726965732E2052657475726E7B
:100C8000204641494C45440D0A0000000A0D000071
:100C9000A086010040420F008096980000E1F50513
:100CA00000CA9A3B307800002DE9F04107460D4616
:100CB000AFF210013846FFF74EFD072600BFB00027
:100CC00025FA00F000F00F04092C02DD04F13700D2
:100CD00001E004F13000C1B23846FFF715FD3000E5
:100CE000A6F10101CEB2EAD1BDE8F0811CB5012226
:100CF0000221002001F0D5F901220321002001F09A
:100D0000D0F9684600F037FD6946002000F0B7FBD7
:100D10000121002000F0C6FCAFF2C5501D4908605B
:100D2000AFF255401C490860AFF223601B490860D0
:100D3000AFF2FF101A490860AFF28B101949086032
:100D4000AFF29B0018490860AFF2512017490860C4
:100D5000AFF2DD1016490860AFF26910154908605E
:100D6000AFF27D4014490860AFF227401349086094
:100D7000AFF2913012490860AFF26160114908602A
:100D8000AFF2116010490860AFF257600F49086078
:100D90001CBD00001000001014000010180000100E
:100DA000280000102C00001030000010340000104B
:100DB000380000103C0000101C0000102000001043
:100DC00024000010400000104800001044000010F3
:100DD00001460020062915D2DFE801F00305080BC3
:100DE0000E11FB480FE0FA4820300CE0F848403084
:100DF00009E0F748603006E0F548803003E0F44849
:100E0000A03000E000BF00BF704701460020062967
:100E100015D2DFE801F00305080B0E11EC480FE0D6
:100E2000EB4820300CE0EA48403009E0E848603008
:100E300006E0E748803003E0E548A03000E000BF6E
:100E400000BF704701460020062915D2DFE801F0F7
:100E50000305080B0E11DE480FE0DD4820300CE0E2
:100E6000DB48403009E0DA48603006E0D84880309E
:100E700003E0D748A03000E000BF00BF704710B5C6
:100E80000121C803FFF7AEF910BD10B500214FF4E2
:100E90000040FFF7A7F910BD2DE9F04107460D46C8
:100EA00016463846FFF794FF04463CB11EB1206851
:100EB0002843206002E02068A8432060BDE8F0815C
:100EC00070B506460C463046FFF782FF054605B171
:100ED000AC6170BD70B506460C463046FFF778FF32
:100EE000054605B1EC6170BD70B505460E46144669
:100EF00024B931462846FFF7EDFF03E03146284686
:100F0000FFF7DEFF70BD70B505462846FFF760FFAE
:100F100004460CB1606970BD0020FCE718B912B935
:100F2000AC4B196014E0022803D112B9AA4B196026
:100F30000EE020B9012A02D1A84B196008E002286E
:100F400004D1012A02D1A64B196001E000BFFEE7DF
:100F5000704703463BB932B9A248006820FA01F055
:100F600000F001007047022B07D132B99E4800689B
:100F700020FA01F000F00100F4E743B9012A06D19C
:100F80009A48006820FA01F000F00100EAE7022B1D
:100F900008D1012A06D19648006820FA01F000F035
:100FA0000100DFE700BFFEE710B9924A116006E0DA
:100FB000022802D1904A116001E000BFFEE77047AD
:100FC00070B504460D461646324629462046FFF7C0
:100FD00063FF70BD70B504460D4629462046FFF7F5
:100FE0006FFF70BD70B504460D4629462046FFF7D9
:100FF00071FF70BD10B504462046FFF784FF10BD99
:1010000070B504460D461646324629462046FFF77F
:1010100085FF70BD70B504460D461646324629461A
:101020002046FFF796FF70BD10B503460C462146DB
:101030001846FFF7B9FF10BD2DE9F04107460D46F0
:1010400016463846FFF7C4FE04463CB11EB120697F
:101050002843206102E02069A8432061BDE8F081B7
:101060002DE9F04180460E4615461F464046FFF7E3
:10107000CCFE04468CB147B11EB160882843608025
:101080000BE020882843208007E01EB16088A84339
:10109000608002E02088A8432080BDE8F0812DE92F
:1010A000F04180460E4615461F464046FFF7ADFE0E
:1010B00004468CB147B11EB1608A284360820BE0C0
:1010C000208A2843208207E01EB1608AA8436082FC
:1010D00002E0208AA8432082BDE8F0812DE9F0419A
:1010E00007460E4614463846FFF78FFE05461DB1EB
:1010F0000EB16C8300E02C83BDE8F0812DE9F04156
:1011000007460E4614463846FFF77FFE05461DB1DA
:101110000EB1EC8300E0AC83BDE8F08170B506460B
:101120000D463046FFF771FE044624B10DB1E08A4A
:1011300070BDA08AFCE70020FAE72DE9F041804667
:101140000C4616461F464046FFF77CFE05465DB13D
:101150002FB1032C08DC285D3043285504E0032C14
:1011600002DC285DB0432855BDE8F0812DE9F0414F
:1011700080460C4616461F464046FFF763FE05466E
:101180009DB14FB1032C10DC05F11000005D304320
:1011900005F11001085508E0032C06DC05F11000EC
:1011A000005DB04305F110010855BDE8F0812DE95F
:1011B000F04107460C4615463846FFF743FE064603
:1011C00026B1032C02DC06F118000555BDE8F081BC
:1011D0000080092090800240B0800240948002404C
:1011E000B480024084800240A48002408880024093
:1011F000A88002408C800240AC8002402DE9F04182
:1012000007460C4615463846FFF71CFE064626B133
:10121000032C02DC06F11C000555BDE8F08170B519
:1012200006460C463046FFF70DFE05462DB1032C51
:1012300003DC05F11400005D70BD0020FCE7000038
:101240000146002021B1022904D0032906D103E080
:10125000F84804E0F84802E0F84800E000BF00BFAA
:1012600070472DE9F34F95B08A4600200A9001207F
:10127000FEF7A1FF09904FF0FF3004900020079087
:10128000069000210C460D46012654E000200890EF
:1012900049E00898304400FB0AF0029000201C222C
:1012A0000999CDE90D0108460D99FFF714F80022C0
:1012B000A0FB063701FB067100FB0210CDE90030F0
:1012C00000239DE80700FEF7D5FF80468946CDF84C
:1012D0001480202240464946CDE90B9803F006F9D8
:1012E00083460598B0F1004F04D905984042059017
:1012F0000BF1010BBBF1000F02D0BBF5803F00D911
:101300000EE0DDE90410884209D20598049000251A
:101310005C46089807900696049800B906E000BF5E
:101320000898401C08900898B042B2D300BF0498B7
:1013300000B902E0761C0F2EA8D900BF0021084694
:1013400061406840014303D1002017B0BDE8F08F31
:1013500009980009069900FB01F707980844002145
:10136000A0FB042301FB043100FB05100346CDE97B
:10137000002038460021FEF77DFF03900398824548
:1013800004D90398AAEB0000049003E00398A0EBB3
:101390000A000490642004994143B1FBFAF00490E0
:1013A0000498032869D2159801281FD1A448007B0E
:1013B00040F08000A2490873082220462946CDE962
:1013C0000F5403F093F89E4908710C700846007B97
:1013D00000F07F000873F020069900EA01100799D9
:1013E00001F00F0108439649886244E015980428EB
:1013F00021D19448C06840F080009249C86008221A
:1014000020462946CDE9115403F070F8C0B28D4949
:101410004860E0B208600846C06800F07F00C8601D
:10142000F020069900EA0110079901F00F01084326
:10143000844988621FE01598FFF702FF0746387B52
:1014400040F080003873082220462946CDE9135425
:1014500003F04CF838713C70387B00F07F00387333
:10146000F020069900EA0110079901F00F010843E6
:1014700087F8280000BF01200A900A9865E72DE947
:10148000F04106460F46052E3CD2DFE806F0033C4D
:1014900004056C0000BF00BF3046FFF7D1FE0546D3
:1014A00026B901210820FEF79DFE0CE0022E04D192
:1014B00001210806FEF796FE05E0032E03D1012167
:1014C0004806FEF78FFE072028720020287200E0F1
:1014D0002C78287D10F0010FFAD1802085F830009B
:1014E00000BF287D10F0200FFBD0002085F83000D1
:1014F00068602873286285F84C0085F8540085F8E8
:1015000050002C7D57E001211020FEF76BFE0720D4
:101510004B4908720020087201E0494804784848A5
:10152000007D10F0010FF8D180204749087000BFFE
:101530004348007D10F0200FFAD000204249087087
:101540003F4948600873086281F84C003F490870C1
:101550003B4981F850000846047D4FF000000874B4
:101560000846047E27E001210802FEF73BFE072023
:10157000344988600020886001E0324804683148BE
:10158000406910F0010FF8D101202E49C86500BF55
:101590002C48406910F0200FFAD000202949C86576
:1015A0004860C8600862C8644865086508464469C0
:1015B0000020486200BF00BF30463968FFF751FE87
:1015C000012E04D11E48007B00F0C0040EE0042E62
:1015D00004D11C48C06800F0C00407E03046FFF7A3
:1015E0002FFE0546287B00F0C00400BF787930B19B
:1015F000012806D0022807D0032808D108E000BF40
:1016000009E044F0010406E044F0020403E000BFF6
:1016100044F0030400BF00BF387930B344F008043D
:101620003879012814D0022814D0032815D00428B2
:1016300019D115E000C000400080094000C00940F9
:101640000000014000400A403000014054000140C9
:1016500000BF09E044F0100406E044F0200403E079
:1016600044F0300400E000BF00BFB87928B1012881
:1016700002D144F0040401E000BF00BF00BF012E0E
:1016800002D1FA490C730BE0042E03D1E0B2F84901
:10169000C86005E03046FFF7D3FD05462C7300BF58
:1016A000BDE8F08170B504460E46012E1DD1012C17
:1016B00007D1F048007840F08000EC4981F8300014
:1016C0002FE0042C06D1EA48C06D40F00100E84943
:1016D000C86526E02046FFF7B3FD054695F83000C3
:1016E00040F0800085F830001BE0012C07D1E14874
:1016F00000784FF00000DD4981F8300011E0042C43
:1017000005D1DB48C06D0020D949C86509E02046F5
:10171000FFF796FD054695F83000002085F830006B
:1017200000BF70BD10B5044600212046FFF7BAFF88
:1017300024B900210820FEF755FD1BE0012C04D13F
:1017400000211020FEF74EFD14E0022C04D10021F0
:10175000E005FEF747FD0DE0032C05D100214FF019
:101760000070FEF73FFD05E0042C03D10021A0012D
:10177000FEF738FD10BD4FF4E131016003214171E6
:101780000021017181717047052813D2DFE800F054
:101790000306090C0F00B84A11700BE0B34A117030
:1017A00008E0B64A117005E0B54A117002E0B04A8F
:1017B000116000BF00BF70470146052914D2DFE861
:1017C00001F00306090C0F00AB4800787047A748EA
:1017D0000078FBE7A9480078F8E7A9480078F5E722
:1017E000A3480068C0B2F1E70020EFE72DE9FF4F02
:1017F000074691469A46019E4FF0000B052F1DD2D9
:10180000DFE807F003080D121700DFF86CB20BF1E8
:10181000140B13E0DFF854B20BF1140B0EE0DFF8F9
:101820005CB20BF1140B09E0DFF854B20BF1140BAE
:1018300004E0DFF83CB20BF1140B00BF00BF4B46D5
:10184000BAF1010F24D100241FE04FF0FF3805E06A
:10185000B8F1000F00D106E0A8F10108DBF80000A4
:1018600010F0200FF4D000BFB8F1000F00D10EE04F
:10187000102507E016F8011B3846FFF785FF6D1E9F
:101880005B1E641C0DB1002BF4D1002BDDD119E0DF
:10189000002414E003B914E0DBF8000010F0200F7E
:1018A00000D10EE0102507E016F8011B3846FFF7BF
:1018B0006BFF5B1E6D1E641C0DB1002BF4D1002B61
:1018C000E8D100BF204604B0BDE8F08F2DE9F04715
:1018D00005460F46904699463C464FF0000A052DB6
:1018E0001DD2DFE805F003080D121700DFF888A10C
:1018F0000AF1140A13E0DFF874A10AF1140A0EE0E9
:10190000DFF878A10AF1140A09E0DFF874A10AF1FE
:10191000140A04E0DFF858A10AF1140A00BF00BF5E
:101920004246B9F1010F19D1002314E04FF0FF3600
:1019300002E006B905E0761EDAF8000010F0010FAB
:10194000F7D000BF06B908E02846FFF735FF04F8D6
:10195000010B521E5B1C002AE8D111E000230CE0B1
:10196000DAF8000010F0010F00D108E02846FFF778
:1019700023FF04F8010B5B1C521E002AF0D100BFAC
:101980001846BDE8F087052827D2DFE800F0030AF3
:1019900011181F003849097B41F04001364A117384
:1019A0001BE03249097B41F04001304A117314E0D9
:1019B0003249097B41F04001304A11730DE0304952
:1019C000097B41F040012E4A117306E02849C9689D
:1019D00041F04001264AD16000BF00BF704770B59A
:1019E00003460C4600218C46052B1DD2DFE803F090
:1019F00003080D1217002049091D40F2073C13E0AF
:101A00001A49091D40F28F3C0EE01C49091D40F2A5
:101A1000073C09E01A49091D40F2073C04E014495B
:101A2000091D40F2073C00BF00BF072C15D2DFE8BC
:101A300004F00406080A0C0E110001200DE002203B
:101A40000BE0042009E0082007E0802005E04FF4C7
:101A5000807002E04FF4007000BF00BF012A11D176
:101A60000D6800EA0C0635430D6010E000000140EF
:101A700000400A403000014000C0004000800940A2
:101A800000C009400D682CEA000635400D6070BDAD
:101A90000146052914D2DFE801F00306090C0F0006
:101AA000FE48007D7047FE48007DFBE7FD48007D55
:101AB000F8E7FD48007DF5E7FC484069C0B2F1E772
:101AC0000020EFE70146052922D2DFE801F00309F3
:101AD0000F151B00F148806840F2CF32104070476C
:101AE000EF48806840F2CF321040F8E7ED48806858
:101AF00040F2CF321040F2E7EB48806840F2CF323C
:101B00001040ECE7E948806840F2CF321040E6E749
:101B10000020E4E70146002205291DD2DFE801F09C
:101B200003080D121700DD48007D00F0400213E0AD
:101B3000DB48007D00F040020EE0DA48007D00F056
:101B4000400209E0D848007D00F0400204E0D74898
:101B5000406900F0400200BF00BF12F0400F01D00A
:101B6000002070470120FCE710B50246002040F03D
:101B70000100CB7833B1012B06D0022B07D0032B09
:101B800008D108E000BF09E040F0400006E040F066
:101B9000800003E000BF40F0C00000BF00BF4B78F2
:101BA000012B01D140F004000B78012B01D140F052
:101BB00002008B78012B01D140F00800052A1DD2CC
:101BC000DFE802F003080D12170000F0CF03B34C5A
:101BD000237213E000F0CF03B14C23720EE000F04B
:101BE000CF03B04C237209E000F0CF03AE4C237258
:101BF00004E000F0CF03AD4CA36000BF00BF10BDF8
:101C000000218170C17001210170417070472DE980
:101C1000F0410746884615460026012D0BD198F85D
:101C20000000012801D146F0020698F801000128C1
:101C300001D146F00406012F19D1012D13D1984886
:101C4000007B40F0800096490873002008700871FE
:101C50000846007B20F0800008731020886246F060
:101C6000010008623AE000208D49086236E0042F46
:101C700019D1012D13D18D48C06840F080008B49E7
:101C8000C8600020086048600846C06820F08000F6
:101C9000C8601020886246F0010008621EE0002043
:101CA000824908621AE03846FFF7CAFA0446012D55
:101CB00011D1207B40F08000207300202070207123
:101CC000207B20F080002073102084F8280046F04C
:101CD0000100206201E00020206200BFBDE8F08129
:101CE00070B505460C46012D05D16D48006A2043AC
:101CF0006B4908620FE0042D05D16C48006A20434F
:101D00006A49086207E02846FFF79AFA0646306AF1
:101D10002043306200BF70BD042800D07047012905
:101D200006D1624A526A42F00202604B5A6206E0F1
:101D300029B95E4A526A02F03D025C4B5A6200BF0A
:101D4000ECE7042800D07047012906D1574A526AAF
:101D500042F00102554B5A6205E0544A526A02F0C1
:101D60003E02524B5A6200BFEDE730B5042800D066
:101D700030BD4C07A30E4D4C646A24F0380243F08A
:101D80000404224302F03F04484D6C6200BFEFE7B9
:101D900030B50023012800D030BD11B1012904D194
:101DA00001E0012302E0022300E000BF00BF012A9E
:101DB00005D13B4C247C1C43394D2C7406E0384C37
:101DC000247CF3259D432C40354D2C7400BFE3E764
:101DD00030B50346012B00D030BD21B1012904D01C
:101DE000022906D103E0102004E0402002E0802018
:101DF00000E000BF00BF012A05D1294C247C044328
:101E0000274D2C7406E0264C247CF32585432C407A
:101E1000234D2C7400BFDFE70146012901D00020CB
:101E200070471F48007EFBE72DE9F05F83460C46B4
:101E30000025BBF1010F08D1194F5437A7F1040950
:101E4000174E0C36A9F1040A18E0BBF1040F08D1B3
:101E5000164F5437A7F10409144E0C36A9F1040AA1
:101E60000CE05846FFF7ECF9804608F1540708F1FA
:101E7000500908F10C0608F14C0A00BFE07801286F
:101E80001BD145F010056079012801D145F02005EE
:101E9000207901280FD1BBF1010F09E000C00040FB
:101EA000000001400080094000C0094000400A4095
:101EB00001D145F00805E07938602078012801D18A
:101EC00045F00105A078012804D145F00405A0796A
:101ED000C9F80000607808B945F0020505F03F0038
:101EE000CAF80000306840F038003060BDE8F09F6C
:101EF0002DE9F04105460E46012D01D1394C0AE08D
:101F0000042D01D1384C06E02846FFF799F9074621
:101F100007F1540400BF012E04D1206820F0020014
:101F2000206003E0206840F002002060BDE8F081FE
:101F30002DE9FF4F81B006468B469946012E04D10C
:101F4000284C483C274D403D0FE0042E04D1264C40
:101F5000483C254D403D08E03046FFF771F9824688
:101F60000AF10C040AF1140500BFB9F1000F14D0F6
:101F70002068C7B2B84628F01008C4F800800123D2
:101F800059463046039AFFF731FC009000BF28689D
:101F900010F0400FFBD027600BE00123594630467C
:101FA000039AFFF723FC009000BF286810F0400F51
:101FB000FBD0009805B0BDE8F08F13B504460123AF
:101FC0001A4601A92046FFF7B3FF1CBD70B50446B1
:101FD0000D4616460023324629462046FFF7A8FF45
:101FE00070BD00005400014054400A4010B5024644
:101FF000002001EB4213F74C04EB830010BD0246B6
:102000000520062A4AD2DFE802F0032F393A3B3D89
:10201000062907DD0A2901DB0B2903DD0E2903DB75
:10202000162901DC00201EE00C2905D00D2903D063
:10203000172903DB1A2901DC012014E01D2903D034
:102040001E2901D01F2901D102200CE01B2901D03B
:102050001C2901D1032006E0072903D0082901D05B
:10206000092900D104201AE01D2901DC002004E028
:102070001E2901D01F2900D1012010E000BF00BFA0
:1020800000200CE0012901DD042901D1002004E039
:10209000022901D0032900D1032000E000BF00BFC6
:1020A00070472DE9F0410646884615460024414612
:1020B0003046FFF7A4FF0746052F02D1C648BDE80A
:1020C000F08141463046FFF791FF0446206820F03A
:1020D0000700206005F00701206808432060002009
:1020E000EDE72DE9F04107468846164600244146B3
:1020F0003846FFF784FF0546052D02D1B648BDE8F6
:10210000F08135B1012D04D0042D02D0B248401C1D
:10211000F5E741463846FFF769FF0446206820F09E
:1021200018002060182101EAC601206808432060D9
:102130000020E4E72DE9F0410746884616460024D2
:1021400041463846FFF75BFF0546052D02D1A24800
:10215000BDE8F08125B1042D02D09F48401CF7E76F
:1021600041463846FFF742FF044626B9206820F072
:102170002000206003E0206840F020002060002064
:10218000E6E72DE9F041074688461546002441461A
:102190003846FFF734FF0646052E02D18E48BDE8CB
:1021A000F081022E02D18C48401CF8E741463846A7
:1021B000FFF71CFF044625B9206820F0400020608E
:1021C00003E0206840F0400020600020E7E72DE9B0
:1021D000F041074688461646002441463846FFF738
:1021E0000EFF0546052D02D17B48BDE8F08125B1E3
:1021F000042D02D07848401CF7E741463846FFF7E7
:10220000F5FE044626B9206820F40070206003E043
:10221000206840F4007020600020E6E72DE9F041DE
:10222000074688461546002441463846FFF7E7FE34
:102230000646052E02D16848BDE8F081032E02D083
:102240006548401CF8E741463846FFF7CFFE044694
:1022500025B1206820F48070206003E0206840F4FD
:10226000807020600020E7E72DE9F04107468846AE
:102270001546002441463846FFF7C1FE0646052EA6
:1022800002D15548BDE8F081032E02D05248401CCF
:10229000F8E741463846FFF7A9FE044625B1012D6F
:1022A0000CD0022D1ED113E0012241463846FFF723
:1022B000B5FF206820F40070206016E0002241463F
:1022C0003846FFF7ABFF206820F4007020600CE078
:1022D000012241463846FFF7A1FF206840F4007014
:1022E000206002E04FF0FF30CCE700BF0020C9E7DC
:1022F0002DE9F041074688461646002441463846F7
:10230000FFF77DFE0546052D02D13348BDE8F0817B
:1023100035B1012D04D0042D02D02F48401CF5E723
:1023200041463846FFF762FE044626B9206820F48D
:102330008060206003E0206840F48060206000201E
:10234000E4E72DE9F041074688461546002441465A
:102350003846FFF754FE0646052E02D11E48BDE85A
:10236000F081012E02D01C48401CF8E74146384657
:10237000FFF73CFE044625B1206820F08000206075
:1023800003E0206840F0800020600020E7E72DE9AE
:10239000F04105460E461746002431462846FFF711
:1023A0002EFE8046B8F1050F02D10B48BDE8F08142
:1023B0000DB91A2E02D00848401CF7E731462846CE
:1023C000FFF714FE04464FB1206840F480302060CF
:1023D00008E0000000C0024001000010206820F466
:1023E000803020600020E1E72DE9F0410746884673
:1023F0001646002441463846FFF701FE0546052DE6
:1024000002D10D48BDE8F081012D04D0042D02D089
:102410000948401CF6E741463846FFF7E7FD044609
:1024200026B1206820F48070206003E0206840F42A
:10243000807020600020E5E70100001010B56E49B3
:1024400000206E4A1268904710BD6D48006840F445
:1024500080306C49C1F8C4006B48D0F81C0120F0F2
:1024600007006949C1F81C010846D0F81C0140F07A
:102470000500C1F81C010846806D20F00700886542
:102480000846806D40F0050088650846C06B20F066
:102490000700C8630846C06B40F00500C8630846E3
:1024A000006C20F0070008640846006C40F005004E
:1024B00008640846406C20F0070048640846406CF9
:1024C00040F0050048640846806C20F007008864EE
:1024D0000846806C40F00500886470470025FFF7CF
:1024E000B4FFFEF703FCFEF7CAFC0122910410467C
:1024F000FEF7D2FCFFF7A2FF44484549086045A11A
:1025000000203E4A12689047414800683C23C022A0
:10251000042106684748B04705460DB100BFFEE7F5
:1025200045A10020354A12689047002419E041482F
:1025300000680059401C13D03E48006845490860B7
:102540003C48C0684860002088602020086130480E
:10255000006882683748904708B100BFFEE705E091
:10256000241D3448C068B4EB900FE0D300BF3AA1FB
:102570000020224A12689047002402E041490C558D
:10258000641CFF2CFAD94FF4807032494860002057
:102590008860C8600820086100241AE025480068A7
:1025A00000EB04202B490860194800680A463549A9
:1025B00043682048984708B100BFFEE725494FF41B
:1025C000807208682F4901F0C6FF08B100BFFEE71E
:1025D000641C1848C068B4EB102FDFD32AA1002078
:1025E000064A1268904702210420FEF769FC00BFEA
:1025F000FEE7FFF773FF00004C0000101000001012
:10260000C4C00F4000C00F4000C002406846000038
:1026100074010010496E697469616C697A696E674A
:10262000205350494649206472697665722E2E2ED9
:1026300000000000780100104F4B0D0A45726173D5
:10264000696E672051535049206465766963652E31
:102650002E2E0000F80100104F4B0D0A50726F67CC
:1026600072616D6D696E67202B207665726966797F
:10267000696E672051535049206465766963652E01
:102680002E2E00000C0200104F4B210D0A000000FE
:10269000FA4948608004800C06D0012808D002283E
:1026A00008D0032808D04869CA699207FCD470474B
:1026B000087DF9E7888AF7E7888A0A7D40EA0240C0
:1026C000F2E710B54FF4001404EB415141EA006009
:1026D00040EA0240184310BD806A400302D54FF41F
:1026E000C01070470020704710B5044613460846D6
:1026F00000221146FFF7E5FF01462046FFF7ECFFF9
:10270000BDE810400843C3E7DC4B00B59A60FFF713
:10271000E3FF08435DF804EBBAE730B5D74C054654
:1027200008461146A36000231A46FFF7CAFF014678
:102730002846FFF7D1FF01436160E0698007FCD4C0
:1027400030BD00220621CFE7F0B50D4616461F46E4
:102750000446FFF7F6FF3B46324629462046BDE8D1
:10276000F040DAE7F0B50D4616461C460746FFF77F
:10277000E8FFC2498E603846FFF7AEFF284340F4B9
:1027800000404860A804800C07D001280BD0A2B2FA
:1027900002280AD0032804D04C61C8698007FCD401
:1027A000F0BD8A82240C0C75F7E78A82F5E7B349FD
:1027B000CB6913F0060F19D01022CA61CA6912F052
:1027C000160FFBD15A0711D5C26902F46002B2F5A7
:1027D000400F0BD3FF220A73C0696FF30F0000F1A3
:1027E00001004860087DC8698007FCD470472DE966
:1027F000F041054600248C46EA7C012101FA02F1F1
:102800009E4F2046CEB2F9698907FCD444F6206871
:10281000641C444507D2012205212846FFF764FFC6
:10282000C0B23042F4D03042954E28750CD0BCF185
:10283000000F0ED0BCF1010F0DD0BCF1020F06D07D
:10284000BCF1030F0BD108E03046BDE8F0818D4CA0
:1028500005E08D4C03E08D4C01E04FF0FF3428463D
:10286000FFF73AFF8A490843E97C08437860F86932
:10287000800702D5641EFAD11EE0ECB1387D2875C0
:10288000BCF1000F1ED0E86AE0B1C1B2052917D033
:1028900001222846FFF728FFC0B26875E96A10EAEE
:1028A000112F0FD0C1F3074119B100222846FFF7BD
:1028B0001BFF7348801CC8E72846FFF778FFC3E773
:1028C000287DEBE70020C0E730B5154604460B46EF
:1028D000002211460120FFF7F4FE01462B4600229C
:1028E0002046FFF73FFFA06A800401D5002030BDDD
:1028F0002046BDE83040002179E7F0B50546C469BF
:10290000806AA62681050BD504F42001B1F5000FDD
:1029100006D144F40014EC61296A41F400112962E3
:10292000810618D5400501D5022700E001273F1D8B
:10293000012285212846FFF7D7FE00F00703E8694A
:10294000C7F1100100F4E020C840034301228121B7
:102950002846FFF7F9FEA86AC00707D00023032224
:10296000A3212846FFF7D9FE761EFDD1C4F34251BC
:102970004248062904D3A521017324F4400401E050
:10298000FF2101738461F0BD10B50446806A000622
:1029900011D501222B212046FFF7A6FE6075A16A02
:1029A000000621F4703102D54FF4803001E04FF47D
:1029B00080400143A16210BD30B500238163838450
:1029C0000723C38410E0838CCC88234483840B7951
:1029D000C48CCD88DB0701D0022300E0012305FB76
:1029E00003430831C384083A082AECD2C3F3CC016C
:1029F000C18430BD826B22B109B1828C0A80C08C47
:102A0000704711B18268120C0A808068C00C704750
:102A100010B5044600F13C030021FFF7EBFF010075
:102A20001FD0A06A40F48070A0622046FFF754FED9
:102A300040EA0102174802431048426002E0027D6A
:102A400003F8012B0A00A1F1010189B2F7D100219D
:102A50008034A34202D203F8011BFAE7C169890757
:102A6000FCD410BD491C01228A404FF08071826065
:102A70008A4200D90A46C26070470000004009201F
:102A80000300020070820300E09C41000083400AC2
:102A900000402005000020722DE9F04104460D465B
:102AA000C069F8491646984688426ED02046A5620D
:102AB000FFF76AFFA068B0F1807F19D9A06A40F4DF
:102AC0000070A062207C012806D020280BD0C228EC
:102AD00009D04FF00210B8E68023012217212046CA
:102AE000FFF71BFE04E00022B7212046FFF7FCFDA4
:102AF000680504D5E448016841F080510160E34F66
:102B0000680724D5012235212046FFF7EDFDC0B22C
:102B10006075810755D4C00735D1012205212046B3
:102B2000FFF7E2FD617D41F0020140EA012082B23F
:102B300002212046FFF7C8FE0028CCD10122352112
:102B40002046FFF7D1FD60754FEA807019E0E80478
:102B50001CD5012205212046FFF7C6FDC0B2207515
:102B600041062ED440F0400201212046FFF7ACFE82
:102B70000028B0D1012205212046FFF7B5FD2075C0
:102B8000400600281DDB38465FE64EE0280718D5D2
:102B900001223F212046FFF7A7FDC0B26075010664
:102BA0000FD440F0800301223E212046FFF7CCFDE8
:102BB00001223F212046FFF797FD60754FEA006034
:102BC000DFE7A80705D5002238212046FFF78CFD56
:102BD00017E0E80615D5680501D5402700E08027F5
:102BE000012265212046FFF77FFDC0B260753842A3
:102BF00007D040F0C803BB43012261212046FFF704
:102C0000A3FDC6F3C1400328A06A10D020F48020A1
:102C1000A062280507D5C6F302435B1E0122C0212E
:102C20002046FFF77AFDC4E9076800200DE640F46E
:102C30008020EDE72DE9F041934E04460F46B06940
:102C40001546984610F4400F4DD00146C0F3C140E0
:102C5000E16103284AD00020A0622046FFF7A7FDCB
:102C60000022FF212046FFF73FFD002201231146ED
:102C70006520FFF726FD40F4C010FFF709FDA0F125
:102C80004001802908D2810606D440F0C003012209
:102C900061212046FFF758FD8021204601F04FFCBE
:102CA00005F0C100C12824D04FF4702101EA07418A
:102CB00041EAC0504FF6FF710844306003229F2163
:102CC0002046FFF711FD4FF020512061C4E90016A6
:102CD00030B16FF07F41884202D06D4988420BD1FC
:102CE0006A48401DB1E540F44001AFE74FF4802051
:102CF000B2E76648401EA8E54FF48040A0621C2061
:102D000060839C2020835F4EA80701D5304600E0F9
:102D1000604844F81C0F60486060202020760C203A
:102D20002075D820A0761020A07514F80C0CA4F102
:102D30001C047F2824D00CDC1F281BD004DC0128B5
:102D400014D01C282ED113E0202815D0372829D1E3
:102D500014E0C2281AD004DC8C2813D0BF2821D15B
:102D600012E0C82814D0EF281CD113E04B4B12E01E
:102D70004B4B10E04B4B0EE04B4B0CE04B4B0AE047
:102D80004B4B08E04B4B06E04B4B04E04B4B02E057
:102D90004B4B00E04B4B2BB142462946204698470F
:102DA000074601E0394F3F1D07B30025E66128467D
:102DB00001F085FB0321012300220846FFF781FC77
:102DC000014600222046FFF79FFC01460DB1FF207F
:102DD00000E00020814202D16D1C022DE7DB022DB4
:102DE0000AD1A06A40F40070A06205E0A06A000465
:102DF00002D52046FFF70CFE2046FFF77EFD384641
:102E000023E52DE9FF4F89B08146002000900A9804
:102E1000C6684846FFF7CBFC4846FFF7B5FDD9F832
:102E20002870780477D5B9F8180007F0040100F489
:102E30007F40084300D001208046012205214846FA
:102E4000FFF752FC89F814005FEA080004D0012261
:102E500035214846FFF748FC89F81500B9F81440B9
:102E6000701C31D06EB1B9F8180024EA000230406D
:102E7000024308F10100C1B24846FFF725FD00906A
:102E800068E02CE0FF3F80030040092005000200BD
:102E9000CCCCCC00FF3F810B0080800217410000AA
:102EA0009D3B0000AD3900008B3F00000D39000054
:102EB000C13A0000593C0000C1410000C53D00007E
:102EC000153D0000974200000B98007818B30C984D
:102ED0000288B9F81A00024084432243C9E7B9F8CE
:102EE0001A00204238D00B990120002508700C9858
:102EF000048008F1010000F0FF0AB9F81A005146F9
:102F000024EA00024846FFF7DFFC009020B16D1C68
:102F1000032DF2DB82E11FE0A620401EFDD101223D
:102F200005214846FFF7E0FB89F814005FEA080036
:102F300004D0012235214846FFF7D6FB89F8150059
:102F4000B9F81400B9F81A10084202D0FE480090EF
:102F500064E100980028DDD117F4603FDAD04FF02B
:102F6000000B0120D9F838505C4606900EB1FF20C6
:102F700000E0002007904FF4803005900A984FF051
:102F8000000AD0E900100844089009F13C0080468E
:102F90000290D9F81C0004A9C0F34050C01C039053
:102FA0004846FFF727FD01900DB9BDF810B0380471
:102FB00004D5F80502D44846FFF72AFD701C01D05D
:102FC000AEB100E10B98007850B13804F9D5DDE9D5
:102FD00001200C9901F09AFA0020ADF81000F2E0FF
:102FE0004846FFF78AFC00200DB0BDE8F08F0B9932
:102FF000002008703804E4D5DDE901210C9801F0C7
:1030000085FAE0E0BBF1000F3FD195F90500B5F876
:1030100006B0D5F800A0002800DA40420121814026
:1030200005912879C00721D0B00140EA061040EA96
:1030300086003043C0B2079002200690402C0CD08E
:10304000102C0AD0042C08D0012C06D0202C0AD039
:10305000082C08D0022C06D017E04846FFF74DFC9C
:103060004FF00210C0E744EA54040EE00EB1FF2016
:1030700000E00020079001200690302C03D00C2C9B
:1030800001D0032C01D104EA440434B925B12879D4
:10309000C00701D0C02400E080240A980599026886
:1030A0000AEB0100824274D208985146504570D90B
:1030B00017F4403F5FD0701C0AD0002E1ADDF803D1
:1030C0000BD50B4636214846039AFFF73DFB4BE0F4
:1030D00098F800002042F2D146E001230022E520CA
:1030E0000399FFF7EEFA0146012352464846FFF7DF
:1030F00039FB39E038D1F80301D53C2000E0E82065
:10310000012300220399FFF7DCFA014652464846A4
:10311000FFF7FAFAC0B2B90302D5C14389070AD052
:10312000C00724D0F8030BD5534639214846039AEB
:10313000FFF70AFB10E04846FFF7DFFB824853E742
:1031400001230022E5200399FFF7BBFA0146002383
:1031500052464846FFF706FB0B990120087098F885
:103160000000204388F800000098E0BB11E098F8C8
:103170000000A043F6E798F80010079A21EA04003F
:1031800022401043814204D088F800000B990120AE
:1031900008700698C44001D108F101083DB195F9C5
:1031A0000500002803DA0598C0F1000000E005984A
:1031B0008244ABF101001FFA80FBBBF1000F02D18A
:1031C0000DB105F10805BDF81000A0F10101ADF841
:1031D000101000287FF416AF0B98007818B138044F
:1031E0001CD5484600E019E0FFF7ABFA48460299C3
:1031F000FFF772FA019A1043544A1043544A506040
:1032000002E011F8010B10750198A0F101039BB2C7
:1032100001930028F5D1D0698007FCD44846FFF718
:103220006CFB0098E0E670B50A688368CBB104686F
:10323000944206D8C5684E6825441644B54200D36A
:10324000121B934210D94C6814449C420CD80B6951
:1032500013F0300F02D0C068844205D800200A6005
:1032600070BD3948801C70BD3748401E70BD70B5B8
:103270000C4616460546FFF79AFA2846FFF761FA0C
:1032800033498E602846FFF727FA2A6A02F4600263
:1032900042EA046210434860C72C07D0602C05D076
:1032A00001212846BDE87040FFF7A1BA0321F8E7E5
:1032B00070B50C4616460546FFF743FA24498C6064
:1032C000286A3043486070BD2DE9F04782460E46BB
:1032D000174698461C68DFF87890556868E03A69A8
:1032E0003868C1B2C1F5807412B1A54200D22C4633
:1032F000214602E0761C6D1E641EB30709D03378A8
:10330000FF2B11D1BDB1002CF4D114E0361D2D1FBF
:10331000241F33685B1C07D1042D05D3042CF5D280
:1033200003E0761C6D1E641E2DB124B1042C02D264
:103330003378FF2BF5D0091B0844386085B3002C87
:10334000CED00146224605E0050002000080204262
:10335000004009205046FFF7ABFF38682044386032
:1033600001E0002CBBD04846B1070BD0CDB14CB129
:1033700016F8011B01756D1E641EF5E702CE416152
:103380002D1F241F042D07D3042CF7D205E016F8B7
:10339000011B01756D1E641E1DB1002CF7D101E0EB
:1033A00008E02CB902215046FFF721FA002804D189
:1033B000002DD6D10020C8F80040BDE8F087006895
:1033C000084404E00168491C04D1001D121F002AB2
:1033D000F8D1002070471368006818441060484016
:1033E000800701D000207047012070473FB50C4690
:1033F0001D4602AAFFF7EFFF35B348B922E0029855
:1034000014F8011B027891421FD1401C6D1E0290DE
:10341000A0070BD0002DF2D116E0029821680268B7
:10342000914212D1001D241D2D1F0290042DF4D2B3
:1034300008E0029814F8011B0278914205D1401C63
:103440006D1E0290002DF4D1002004B030BDF8B5FF
:103450000C46116800911F465568FE436A46214696
:10346000FFF7B9FF85B3F9B2F0B1F2B2A00719D0F6
:1034700055B3DDF800C014F8010B1CF8013B4840BF
:1034800053401842CDF800C01AD16D1EEEE70098E7
:10349000226803687A4073401A4211D1001D241D2E
:1034A0002D1F0090042DF2D2F3B26DB1009814F8E4
:1034B000012B10F8016B4A405E403242009001D06F
:1034C0000120F8BD6D1EF0E7FFE70020F8BD2DE9F3
:1034D000F74F17469CB08A4614223946684601F0D9
:1034E00015F800258DF8645069467C681C98FFF734
:1034F0009AFE060037D100981A902044179028466B
:1035000003903869800507D405AB19AA69461C9851
:10351000FFF777FC060026D1AFE01C984FF00109B9
:1035200090F8301009FA01F00099421E21EA020BCE
:1035300000EB0B08A8EB0105AC4200D22546019533
:103540003869400706D400236A4651461C98FFF7A5
:103550007EFF00B101200099189100287ED03869C3
:10356000000702D5E8481FB03FE5B86800B3009AED
:103570001799A2EB0B094246414503D21146179A0F
:10358000891A00E0002188465FEA090105D00A4651
:10359000594600F0BBFFCDF800B0B8F1000F0AD0DB
:1035A000B968424601EB0900179900F0AFFF02E04D
:1035B0004FF00008C1461C985A4690F83410FFF7A7
:1035C00056FE060003D01C98FFF797F966E03869AD
:1035D000800610D51C98FFF790F91C9801225946D7
:1035E00090F8300082401C98FFF7E9FE0028BAD11D
:1035F0001C98FFF7DCF8002016900490CDF804909A
:1036000016AB6A46B9681C98FFF75EFE0646019540
:10361000B8F1000F03D00020049016B108E001209B
:10362000FAE716AB6A4651461C98FFF74DFE064670
:103630000120CDF80480049066B9B96816AB4944FE
:103640006A461C98FFF740FE060003D1169808B1A1
:103650004FF002161C98FFF750F900E054E0EEB965
:103660003869C00607D52B465146189A1C98FFF7B3
:10367000BDFE060012D1AA44641B002C7FF44DAF9E
:10368000F86858B103901A9800907868019005ABDB
:1036900019AA69461C98FFF7B4FB0646304662E754
:1036A00041F0FF00451A6D1CAC4200D225464FF098
:1036B000FF336A46514601951C98FFF7C8FEF0B1EA
:1036C0001C98FFF774F80020169016AB6A46514616
:1036D000CDF810901C98FFF7F7FD06461C98FFF7F1
:1036E0000CF9002EDAD13869C0060BD52B465146AD
:1036F000189A1C98FFF77AFE0600CFD102E00098D6
:1037000028440090AA44641B002CB9D0009941457C
:10371000BFF403AFC4E72DE9F34F9DB00C4614226C
:10372000684600F0F3FE00261D988DF86860D4F816
:1037300004A090F83010012088401990694617962F
:103740001D98FFF770FD05007ED103962069800566
:1037500007D405AB1AAA69461D98FFF752FB05006E
:1037600072D100991B9101EB0A00169000296CD1CF
:103770001D988168514568D81D98806A400664D4B8
:103780001D98FFF714F800231A46C7211D98FEF76D
:10379000DBFF03211D98FFF72AF805461D98FFF768
:1037A000ACF89EE003271D9838441C9090F8300038
:1037B00000287CD0012101FA00F80098A8F101014D
:1037C00020EA010BA0EB0B060BEB080016991890F2
:1037D000814201D2401A00E00020814619988642B9
:1037E00078D21999894575D2A06868B11EB1324660
:1037F000594600F08BFEB9F1000F05D0A0684A468B
:103800003044169900F082FE1D985A46384490F8CC
:1038100034101D98FFF72BFD05461D98FFF76DF836
:10382000002D6ED1206980060AD51C9801225946C8
:1038300090F8300082401D98FFF7C1FD050003D1CC
:10384000A068A8B3012001E05CE046E00490FEB16E
:103850001D98FEF7ACFFCDE900B617AB6A46A1682C
:103860001D98FFF731FD05461D98FFF746F825B96D
:10387000179810B14FF0021543E02069C00606D535
:1038800033465A46A1681D98FFF7B0FD0546C5BBF3
:10389000B9F1000F17D01D98FEF789FF1698CDE9F2
:1038A0000009A06817AB81196A461D9801E011E074
:1038B00009E0FFF709FD05461D98FFF71EF805BB57
:1038C00017980028D6D118980090C2450AD9AAEBBB
:1038D000080A02E07F1E7FF566AFBAF1000F7FF4A1
:1038E00061AF75B9E06860B11B98009060680190A5
:1038F000E068039005AB1AAA69461D98FFF781FAA4
:10390000054628462FE600000B0002002DE9F04195
:10391000467C847C05460F46302E04D0402E07D0CE
:103920001C48BDE8F081A4F11000072811D209E07D
:10393000A4F1150002280CD244F21C40688344F222
:10394000FC502883611E2846FFF78CF8402E05D1D5
:1039500002E01048401EE4E7F80508D50E484FF491
:103960008841162C01D30D4B05E02B6A03E00C486F
:103970000C4B44F20401162C01D3062200E0042271
:1039800040EA4252084802432846BDE8F041FFF7AA
:1039900083B8000008000200000001BB008088A27C
:1039A000000003EB00808832FF3F10002DE9F0415A
:1039B0000546407C0F464FF48046A97CA0F14303A6
:1039C000394CB2004FF00008052B23D84B093ED1EB
:1039D000A0F132041646442806D045280AD04628CD
:1039E0003BD344F4807438E0202230492846FEF767
:1039F000E3FF32E0012930D12C4920222031284632
:103A0000FEF7DAFF04229F212846FEF76DFE000E26
:103A1000E7D122E0652809D0662807D0862814D08F
:103A2000872812D02048401CBDE8F081A0F1560440
:103A3000652808D06C20688340F08000288300202F
:103A400085F8320009E00420F5E7490901D0204655
:103A5000EAE7723840F440741646522085F8350083
:103A60000F2085F8310042F20500E86204F01F01E2
:103A70002846FEF7F7FF14F4407F12D0B4F5407FDC
:103A800001D3F80504D546F48061094A094B03E0E7
:103A9000094A0A4B46F008012846BDE8F041FEF706
:103AA000FBBF4046AE62BFE707000200B846000019
:103AB000FF3F893B008088A2FF3F896B00808832EE
:103AC00070B50546407CAC7C0E469D2801D02D4843
:103AD00070BDA4F11300012818D90C38032803D8AD
:103AE000113C44F4807411E02F2C07D0A4F1440061
:103AF000022806D8313C44F4407407E04FF4877440
:103B000004E0A4F17C00022820D86C3C04F01F01E2
:103B1000102902D80F2085F83200B4F5457F03D371
:103B20003C206883BC2028832846FEF79BFF14F4C2
:103B30004070CDD04FF44072944201D3F0050DD5C2
:103B40004FF48841944204D90F4803E00D48401EC9
:103B500070BD0E480E4B18432B6A03E00D480E4B08
:103B60004FF4A041944201D9062200E0042240EA29
:103B7000425243F6FF7002432846BDE87040FEF70C
:103B80008BBF000008000200000010BB0000083BD3
:103B9000FF3F0100FF3F13EB008088322DE9F04129
:103BA000457C867C04460F46202D08D005F0BE00DB
:103BB000302804D0382D02D02448BDE8F081A6F189
:103BC0001000092802D32148401EF6E7112E03D821
:103BD0000F2084F832000CE0202D0AD1172E08D1D6
:103BE000102004F8300FD82020710020A070A4F11C
:103BF0003004711E2046FEF735FF162E06D0302DFC
:103C000002D0702D02D005E0162E03D33C20608335
:103C1000BC20208305F0BF00302801D00020CCE775
:103C2000608B236A40F0C0002083F80503D54FF471
:103C30008841074A04E0074A44F2020143F4C013F2
:103C40002046BDE8F041FEF727BF00000800020053
:103C5000FF3F91BBFF3FDBEB2DE9F041447C857CCE
:103C600006460F46202C0AD0212C08D0302C06D036
:103C7000402C04D0412C02D02048BDE8F081A5F1B1
:103C80001300052802D31D48401EF6E7302C01D052
:103C9000412C05D1BC203083412C01D13C207083C4
:103CA000691E3046FEF7DEFE600601D5F8050AD52E
:103CB0004FF48841600601D5114A00E0114A1248CC
:103CC000336A024307E0162D09D04FF480500F4AA3
:103CD0000F4B40F4804114F09F0F02D005E0042008
:103CE000F5E7162D01D141F40051600601D542F4EB
:103CF00080023046BDE8F041FEF7CEBE080002006B
:103D0000000010BB0000083BFF3F8100FF3F93EB2A
:103D1000008088322DE9F0410446066A407CA57C8B
:103D20000F46402802D02248BDE8F081A5F11000DE
:103D300007283AD8522084F835000F2084F8310043
:103D4000102D0BD0142D05D3D22084F8370011206C
:103D500084F83300162D05D21C2005E0002084F8DD
:103D60003200F9E744F21C006083162D02D24FF4B2
:103D7000FE7001E044F2FC502083691E2046FEF7ED
:103D800071FEF80503D544F201410A4A05E00A4AEA
:103D900044F20501162D00D3084E0948334602436C
:103DA0002046BDE8F041FEF777BE0148401EBBE764
:103DB00008000200000011BB000013EB00808832F5
:103DC000FF3FC0002DE9F05F457C847C06468B46B2
:103DD0004FF0000A4FF48049202D08D0242D06D042
:103DE000252D04D05E2D02D05648BDE8F09F04F08A
:103DF0001F08A8F1100009286FD8A8F1010130466A
:103E0000FEF730FE504904F00F00102C085C708360
:103E100040F08000308302D1002086F83200012279
:103E200005213046FEF760FCC0B2307510F0400747
:103E300019D140F0400080F0040201213046FEF725
:103E400043FD5FEA000AD0D1012205213046FEF78A
:103E50004BFC80F00400C2B2327502F04007012131
:103E60003046FEF731FD202D02D0252D04D00FE085
:103E7000162C12D337B910E0A4F13300062801D96B
:103E8000532C0ED3522086F835000F2086F83100CF
:103E9000202D02D0252D04D01AE0172C18D317B9E5
:103EA0002EE0342C14D3A8F1140006280ED2DFE83B
:103EB00000F0030715191D2123491022783902E06B
:103EC0002149102268393046FEF776FD4FF080090F
:103ED000A7B11BF4807F15D127E02FE01A491022EB
:103EE0005839F0E7184918224839ECE716491822E2
:103EF0003039E8E7144918221839E4E7202D1BD19E
:103F0000152C19D337B1202D01D1182C02D9BB2083
:103F1000022101E03B200121000640EAC1420B489A
:103F200049F480610243336A02E0094B094A494679
:103F30003046FEF7B1FD8246504656E70148401E26
:103F400053E700000800020070470000FF3F8100B7
:103F500000809038FF3FD3EB0CB5024653A0D0E968
:103F60000030CDE90030C80505D54B2A01D8012025
:103F70000CBD02200CBD002069460B5C934202D2AE
:103F8000401C0528F9D3401C0CBD2DE9F047044620
:103F900010468A46657CA67CFFF7DEFFC7B24FF469
:103FA00080484FF00C09202D0ED0BA2D0CD0BB2D1F
:103FB0000AD0DB200821802D1AD0402D24D0712D6D
:103FC00028D03C48BDE8F087D82084F83400112E72
:103FD00001D80F2006E0202D03D1182E01D3122086
:103FE00000E0102084F83000002084F8320011E056
:103FF00004F13004207121704FF02000607184F8CA
:104000000190A4F1300405E084F8340084F8301005
:104010004FF04008A6F110000A2802D32548401EA0
:10402000D0E7711E2046FEF71DFD132E02D2A4F824
:104030001A9006E0BA2D04D3172E04D35C206083B7
:1040400001E0712D11D0BA2D0FD0BB2D0DD0002065
:10405000618B40F0800008432083712D22D306D16C
:104060004FF41131144A154B17E02020F0E71448A3
:10407000E0625FEACA5006D5124844F2304140EA95
:104080000742114B05E01148114B44F2300140EA60
:104090000742182E01D341F400312046BDE8F04715
:1040A000FEF7FABC0020C4F828808BE7273B4E5F60
:1040B0006C00000008000200FF3F893B008088A2DE
:1040C00070305000FF3FD8BB008098D2FF3FD8EB44
:1040D0000080981210B5044605229F21FEF704FBCC
:1040E000000E032801D03049E1623049097D19B141
:1040F000012905D02E4810BD122084F8300003E0BD
:10410000032801D13C206083A17C2046491EFEF794
:10411000A9FC002010BD70B504460D46407CA17C72
:10412000D82284F83420102284F83020002284F829
:1041300032201F4A521C022803D0202813D0501CC2
:1041400070BDA1F11200022803D82046FEF78AFCB8
:1041500013E0A1F11500012802D81348E062F4E74A
:10416000192904D001E0182901D0104670BD20465D
:10417000FFF7B0FF10F0FF00F8D1E06A0028F5D09B
:10418000608B40F436502083E80504D54FF4884115
:10419000084A236A03E0084A084B44F20401204617
:1041A000BDE87040FEF778BC056030000040092093
:1041B00006000200FF3FD1BBFF3FD3EB00808832F7
:1041C00070B50446417C807C254A262903D02529E8
:1041D0002AD0501C70BD00F0DF01032926D807212A
:1041E000E174002100F0070584F8321005F1130195
:1041F0002046FEF737FC012D04D0022D05D0032DFB
:1042000009D10DE02822174902E016492822283159
:104210002046FEF7D1FB144B144A48F2020119E084
:10422000104928225031F3E74B2801D0104670BDC9
:1042300016212046FEF716FC3C206083BC2020831C
:10424000522084F835000F20094B0A4A84F83100C7
:104250004FF4C8412046BDE87040FEF71DBC000089
:10426000070002007C47000000809802FF3F990B86
:10427000008088A2FF3F91BB08B5014638A06A467E
:10428000006800900020135C8B4202D2401C03287F
:10429000F9D3401C08BD2DE9F0419046477C044607
:1042A000867C304A4FF480454FF48840302F03D04D
:1042B00017F08F0F09D029E0A6F1100104290AD2C6
:1042C000218B41F02001218310E0702F1ED0A6F138
:1042D0001203082B02D31046BDE8F08144F21C0201
:1042E000628344F2FC122283C90500D50546711E83
:1042F0002046FEF7B7FB522084F835000F2084F8E3
:104300003100680505D5184A236A11E01548401C9C
:10431000E2E7602F0FD00321022244F204050120BE
:10432000090441EAC24211490A43114941EAC04322
:10433000402F09D00EE044F604054046FFF79CFFED
:10434000C1B203200246EBE7142E03D3162E01D888
:1043500045F0010529462046BDE8F041FEF79CBB2B
:104360001E32500007000200FF3FD1BBFF3FC0EBF1
:1043700000808032584904220A604A605749484305
:104380004FF41621B0FBF1F1554880220273017001
:10439000090A017107210173472101727047F0B5C5
:1043A000504C0346D4F8A001800606D42020C4F85F
:1043B000A001D4F8A0014006FBD50027C4F8B471D1
:1043C000D4F884200920AA2555264FF0010C8242FA
:1043D00034D004F19004626F22F480726267E26F5D
:1043E00042F00102E26754F8082CA4F19004D205CF
:1043F00005D544F8807FE560E660A4F1800444F8C8
:10440000840F44F804CCA560A660A4F18404D4F819
:1044100088205205FBD5226822F4704242F4A04263
:104420002260C4F8A8C140F20112C4F80421401C63
:1044300000EB400080000860FFF79CFFD4F8A80064
:10444000C00505D544F8A07FE560E660A4F1A004AE
:10445000A02B01D9A02302E00A2B00D20A23A0201E
:10446000B0FBF3F043430C21B3FBF1F2A2F10101E5
:1044700044F8A41F44F804CCA560A660A4F1A404E9
:10448000D4F8A8104905FBD500F50071C4F8B411A3
:1044900002EB42018900B1FBF0F0F0BD0E4940F2A1
:1044A00005208865052048648864C1F81C010864FB
:1044B000C8630D48016841F48031016070470128EC
:1044C00006D038B10020044940F005004864704728
:1044D0001020F8E70820F6E700C0024040420F0035
:1044E00000C0004000C00F40C4C00F40202A04DBC1
:1044F000203A21FA02F00021704721FA02F3D0405D
:10450000C2F12002914008431946704740EA010376
:104510009B0703D009E008C9121F08C0042AFAD279
:1045200003E011F8013B00F8013B521EF9D270473D
:10453000D2B201E000F8012B491EFBD270470022E5
:10454000F6E710B504460846114602462046FFF736
:10455000EFFF204610BD30B504460020034600E0C2
:104560005B1C934203D2E05CCD5C401BF8D030BDB5
:10457000064C074D06E0E06840F0010394E80700B0
:1045800098471034AC42F6D3FBF7B0FDF447000077
:104590001448000070B501EB020410F8015B15F03F
:1045A000070301D110F8013B2A1106D110F8012BA5
:1045B00003E010F8016B01F8016B5B1EF9D12B07CA
:1045C00005D40023521E0FD401F8013BFAE710F87E
:1045D000013B02F10202A1EB030303E013F8015BCC
:1045E00001F8015B521EF9D5A142D6D3002070BD5F
:1045F00002E008C8121F08C1002AFAD17047002043
:1046000001E001C1121F002AFBD17047506C6561A7
:10461000736520656E746572206120636861722025
:1046200066726F6D2027302720746F202739272C62
:1046300020616E642027612F41272C2027622F42A2
:10464000272C20632F43272C2027642F44272C203E
:1046500027652F452720616E642027662F46272176
:1046600021210D0A00000000352C0000CF3400008D
:1046700017370000AF270000FB280000273200009A
:10468000032E00004F3400006F320000BF330000E3
:10469000C9320000ED330000652A0000992A0000AD
:1046A000C3260000092700001B2700006527000023
:1046B000C9280000EF2700000000000000100700DC
:1046C00000000700000F010000800700000D02003D
:1046D00000C00700000E01000000000000100F00E5
:1046E00000000F00000E010000400F00000D02004E
:1046F00000800F00000F010000000000000C1000FF
:104700000000010000100F0000000000000C10006D
:104710000000010000101F0000000000000C10004D
:104720000000010000103F0000000000000C10001D
:104730000000010000107E0000F00700000C1000D7
:1047400000000000000C1000000001000010FE003E
:1047500000F00F00000C100000000000000C100022
:10476000000001000010FE0100F01F00000C10000E
:104770000C0C7C3C3C3C3C3C3C3C000000E01F0002
:1047800001F304000060000001F3040000001F00BA
:1047900000F101000080000000F1010000001E0097
:1047A00000F01E0000E03F0001F304000060000084
:1047B00001F3040000003F0000F101000080000050
:1047C00000F1010000003E0000F03E0000E07F002C
:1047D00001F304000060000001F3040000007F000A
:1047E00000F101000080000000F1010000007E00E7
:1047F00000F07E0014480000000000107801000066
:1048000094450000A04800007801001098050000C1
:10481000FE45000011140E27073C87930304043C57
:104820006CDC020A4D2A0118290A0D48656C6C6F70
:10483000204E58502053656D69636F6E64756374C4
:104840006F7273200A0D2053504946492064656DEC
:104850006F0E581109202D204D43553A204C5043DE
:1048600034303030137814436F72653A2041524D22
:1048700020434F525445582D4D341A18156D6D75FF
:104880006E6963617465207669613A2055415254BE
:1048900031191D31313532402B6270650950D2819A
:04000005000000E512
:00000001FF
