:020000040000FA
:0402FC00FFFFFFFF02
:020000041000EA
:1000000018040020F9000010010100100301001085
:100010000501001007010010090100109EF3FFEF19
:100020000000000000000000000000000B010010B4
:100030000D010010000000000F010010ED0A00107B
:100040001301001013010010130100101301001020
:100050001301001013010010130100101301001010
:100060001301001013010010130100101301001000
:100070001301001000000000130100101301001014
:1000800013010010130100101301001013010010E0
:1000900013010010130100101301001013010010D0
:1000A00013010010130100101301001013010010C0
:1000B00013010010130100101301001013010010B0
:1000C00013010010130100101301001013010010A0
:1000D0001301001013010010130100101301001090
:1000E00013010010DFF80CD000F05CFD0048004761
:1000F000930B00101804002006488047064800476C
:10010000FEE7FEE7FEE7FEE7FEE7FEE7FEE7FEE7C7
:10011000FEE7FEE7EB030010E500001030B5E7480E
:10012000006810F4807F6BD1E548006810F0010F83
:100130002CD1E248006810F01F0F01D1002006E02A
:10014000DE48006800F01F00DE49B1FBF0F0DE4938
:100150000860DE48006810F01F0F01D1002006E0A3
:10016000DA48006800F01F00D649B1FBF0F0D8492A
:100170000860D848006800F0010000F10100D24991
:100180000968B1FBF0F0D4490860B6E0D3480068D4
:1001900010F0400F07D10020CB490860CC4908601F
:1001A000CD490860A9E0C548006810F01F0F01D1D3
:1001B000002006E0C148006800F01F00C149B1FB03
:1001C000F0F0C1490860C148006810F01F0F01D16C
:1001D000002006E0BD48006800F01F00B949B1FBEF
:1001E000F0F0BB490860BB48006800F0010000F176
:1001F0000100B5490968B1FBF0F0B74908607CE03F
:10020000B748006810F4807F07D10020AE4908602D
:10021000AF490860B04908606FE0A948006810F075
:10022000010F2ED1AE4C246804F01F0404F101002C
:10023000AC4CD4F8044104F01F01A44C246804F031
:100240001F02A84CD4F8004104F0010404F101039A
:1002500009B9002403E09B4C4443B4FBF1F49A4DEC
:100260002C600AB9002403E0964C4443B4FBF2F43A
:10027000974D2C60944C2468B4FBF3F4964D2C609D
:100280003BE09648006810F0400F07D100208E49EF
:1002900008608F490860904908602EE0904C2468FF
:1002A00004F01F0404F101008E4CD4F8044104F062
:1002B0001F01864C246804F01F028A4CD4F80041C8
:1002C00004F0010404F1010309B9002403E07D4CAA
:1002D0004443B4FBF1F47C4D2C600AB9002403E0E4
:1002E000784C4443B4FBF2F4794D2C60764C24688E
:1002F000B4FBF3F4784D2C6000BF7B48006810F429
:10030000807F31D07848006810F01F0004D00428A6
:1003100006D0062823D104E000207449086022E0BA
:1003200000BF6F4A126802F01F0202F101006D4A1D
:10033000D2F8082102F01F01614A126812F0010F81
:1003400006D0604A4243B2FBF1F2684B1A6005E006
:100350005C4A4243B2FBF1F2644B1A6003E00020B6
:100360006249086000BF24E05F48006810F4007F25
:100370001CD05348006810F0010F0BD05C48006897
:1003800000F01F0000F101004E4900FB01F0574949
:1003900008600EE05248006800F01F0000F1010004
:1003A000484900FB01F05149086002E000204F4934
:1003B000086030BD70B54F484F4A131D4FF0000C18
:1003C00014681D684D4EB44205D1A5F18856113E02
:1003D00001D1012600E00026B446BCF1000F03D095
:1003E000016841F47001016070BD00B5FFF7E2FFE4
:1003F00020203A49086000BF3848006810F0400FDC
:10040000FAD001202E4908604FF009003549C1F8A3
:1004100084004FF001003A4908604FF0AA003949C2
:1004200008604FF05500086000BF2D48006810F4C8
:10043000806FFAD02320344908604FF00100294929
:10044000C1F8A0004FF0AA00304908604FF05500F5
:100450002449C1F8AC0000BF2548006810F4806F43
:10046000FAD040F201101549086040F201201D4900
:10047000C1F808014FF00100164908604FF0020072
:1004800023490860114908602248234908604FF455
:1004900080701449C1F8C8010846D0F8B00140F096
:1004A00003001E49086045F23A000E4908604FF00B
:1004B00080501B490860FFF731FE00BD04C10F40AA
:1004C0000CC10F40001BB70000000020A8C10F4066
:1004D0000400002000C10F4008000020A0C10F4010
:1004E00088C00F4000C00F4008C10F400C00002022
:1004F000A8C00F4088ED00E040EF00E0210011109F
:1005000080C00F408CC00F40A4C00F40ACC00F4053
:10051000B4C10F40DE872804C4C00F40B0C10F40F3
:1005200008ED00E001460020062915D2DFE801F0C1
:100530000305080B0E11FB480FE0FA4820300CE0D1
:10054000F848403009E0F748603006E0F548803070
:1005500003E0F448A03000E000BF00BF7047014650
:100560000020062915D2DFE801F00305080B0E1163
:10057000EC480FE0EB4820300CE0EA48403009E05E
:10058000E848603006E0E748803003E0E548A03006
:1005900000E000BF00BF704701460020062915D2C9
:1005A000DFE801F00305080B0E11DE480FE0DD481F
:1005B00020300CE0DB48403009E0DA48603006E0EB
:1005C000D848803003E0D748A03000E000BF00BF2B
:1005D000704710B50121C80300F040FA10BD10B5F6
:1005E00000214FF4004000F039FA10BD2DE9F04130
:1005F00007460D4616463846FFF794FF04463CB1C1
:100600001EB120682843206002E02068A8432060D3
:10061000BDE8F08170B506460C463046FFF782FF14
:10062000054605B1AC6170BD70B506460C46304656
:10063000FFF778FF054605B1EC6170BD70B5054662
:100640000E46144624B931462846FFF7EDFF03E075
:1006500031462846FFF7DEFF70BD70B505462846D7
:10066000FFF760FF04460CB1606970BD0020FCE735
:1006700018B912B9AC4B196014E0022803D112B9B1
:10068000AA4B19600EE020B9012A02D1A84B1960CB
:1006900008E0022804D1012A02D1A64B196001E02A
:1006A00000BFFEE7704703463BB932B9A248006875
:1006B00020FA01F000F001007047022B07D132B997
:1006C0009E48006820FA01F000F00100F4E743B909
:1006D000012A06D19A48006820FA01F000F00100D2
:1006E000EAE7022B08D1012A06D19648006820FAD1
:1006F00001F000F00100DFE700BFFEE710B9924A09
:10070000116006E0022802D1904A116001E000BFAA
:10071000FEE7704770B504460D4616463246294638
:100720002046FFF763FF70BD70B504460D462946AD
:100730002046FFF76FFF70BD70B504460D46294691
:100740002046FFF771FF70BD10B504462046FFF745
:1007500084FF10BD70B504460D4616463246294644
:100760002046FFF785FF70BD70B504460D4616465E
:10077000324629462046FFF796FF70BD10B5034666
:100780000C4621461846FFF7B9FF10BD2DE9F04190
:1007900007460D4616463846FFF7C4FE04463CB1F0
:1007A0001EB120692843206102E02069A84320612E
:1007B000BDE8F0812DE9F04180460E4615461F4602
:1007C0004046FFF7CCFE04468CB147B11EB16088AD
:1007D000284360800BE020882843208007E01EB17A
:1007E0006088A843608002E02088A8432080BDE89C
:1007F000F0812DE9F04180460E4615461F464046E1
:10080000FFF7ADFE04468CB147B11EB1608A2843A4
:1008100060820BE0208A2843208207E01EB1608AB4
:10082000A843608202E0208AA8432082BDE8F081CC
:100830002DE9F04107460E4614463846FFF78FFE75
:1008400005461DB10EB16C8300E02C83BDE8F0813C
:100850002DE9F04107460E4614463846FFF77FFE65
:1008600005461DB10EB1EC8300E0AC83BDE8F0811C
:1008700070B506460D463046FFF771FE044624B1BA
:100880000DB1E08A70BDA08AFCE70020FAE72DE9EF
:10089000F04180460C4616461F464046FFF77CFE58
:1008A00005465DB12FB1032C08DC285D3043285587
:1008B00004E0032C02DC285DB0432855BDE8F0813C
:1008C0002DE9F04180460C4616461F464046FFF78C
:1008D00063FE05469DB14FB1032C10DC05F11000FD
:1008E000005D304305F11001085508E0032C06DCDB
:1008F00005F11000005DB04305F110010855BDE899
:10090000F0812DE9F04107460C4615463846FFF7C1
:1009100043FE064626B1032C02DC06F118000555FD
:10092000BDE8F0810080092090800240B080024044
:1009300094800240B480024084800240A48002403F
:1009400088800240A88002408C800240AC80024037
:100950002DE9F04107460C4615463846FFF71CFEC8
:10096000064626B1032C02DC06F11C000555BDE845
:10097000F08170B506460C463046FFF70DFE054681
:100980002DB1032C03DC05F11400005D70BD0020C7
:10099000FCE7000070B506460D4636B1012E12D0B8
:1009A000022E1ED0032E3ED129E04448006820F0DC
:1009B0001F0405F01F0040EA04044148C0F8044148
:1009C000FFF7ACFB31E03F48006820F01F0405F062
:1009D0001F0040EA04043A48C0F8A841FFF79EFB14
:1009E00023E03948006820F0010405F0010040EAE6
:1009F00004043348C0F80041FFF790FB15E033488A
:100A0000006820F01F0405F01F0040EA04042C4891
:100A1000D0F8080105F01F0140EA01002B490860E9
:100A2000FFF77CFB01E000BFFEE700BF70BD0146A1
:100A300031B1012907D0022908D003290CD108E0DF
:100A400023480068704723480068FBE72248006895
:100A5000F8E722480068F5E700BFFEE7012907D163
:100A60001F4A126842EA0002154BC3F8C42007E08F
:100A700031B91B4A126822EA0002114BC3F8C420A4
:100A8000704700201749086030BF7047042016499E
:100A9000086000201349086030BF704704201249E5
:100AA000086001200F49086030BF704704200E49DC
:100AB000086003200B49086030BF704704C10F4035
:100AC00000C00F40A8C10F4000C10F4008C10F4037
:100AD0000000002004000020080000200C0000207E
:100AE000C4C00F40C0C00F4010ED00E02A480068AD
:100AF000401C294908607047274A116800BF264AF0
:100B00001268521A8242FAD3704700240020FFF77D
:100B10008EFF05464FF47A70B5FBF0F0411EB1F13F
:100B2000807F00D31DE021F07F40401E4FF0E02287
:100B3000506150170722002807DA53071F0E174B82
:100B400000F00F06361F9F5503E053071E0E144B8F
:100B50001E5400BF00204FF0E0229061072010617A
:100B600000BFFFF736FD012291041046FFF73EFD5E
:100B70000EE022464FF480210120FFF75FFD0CB903
:100B8000012000E0002004464FF44870FFF7B4FF56
:100B9000EFE7FFF7BAFF00001000002018ED00E0BB
:100BA00000E400E0064C074D06E0E06840F0010379
:100BB00094E8070098471034AC42F6D3FFF796FA52
:100BC000E80B0010080C001002E008C8121F08C152
:100BD000002AFAD170477047002001E001C1121FBE
:100BE000002AFBD170470000080C00100000002014
:100BF00014000000C80B00101C0C00101400002092
:100C000004040000D80B0010000E27070087930390
:0C0C100000879303006CDC020000000071
:04000005100000E502
:00000001FF
