:020000040000FA
:1000000018040010F90000000101000003010000C5
:10001000050100000701000009010000D6F5FFEF0F
:100020000000000000000000000000000B010000C4
:100030000D010000000000000F010000350B000062
:100040001301000013010000130100001301000060
:100050001301000013010000130100001301000050
:100060001301000013010000130100001301000040
:100070001301000000000000130100001301000044
:100080001301000013010000130100001301000020
:100090001301000013010000130100001301000010
:1000A0001301000013010000130100001301000000
:1000B00013010000130100001301000013010000F0
:1000C00013010000130100001301000013010000E0
:1000D00013010000130100001301000013010000D0
:1000E00013010000DFF80CD000F0C4F8004800470E
:1000F000D90B000018040010064880470648004746
:10010000FEE7FEE7FEE7FEE7FEE7FEE7FEE7FEE7C7
:10011000FEE7FEE799050000E500000070B5064621
:100120000D4636B1012E12D0022E1ED0032E3ED126
:1001300029E04448006820F01F0405F01F0040EA51
:1001400004044148C0F8044100F0DAF831E03F48C7
:10015000006820F01F0405F01F0040EA04043A483C
:10016000C0F8A84100F0CCF823E03948006820F03E
:10017000010405F0010040EA04043348C0F80041DE
:1001800000F0BEF815E03348006820F01F0405F0C9
:100190001F0040EA04042C48D0F8080105F01F01B4
:1001A00040EA01002B49086000F0AAF801E000BF16
:1001B000FEE700BF70BD014631B1012907D0022919
:1001C00008D003290CD108E0234800687047234871
:1001D0000068FBE722480068F8E722480068F5E776
:1001E00000BFFEE7012907D11F4A126842EA000258
:1001F000154BC3F8C42007E031B91B4A126822EA44
:100200000002114BC3F8C420704700201749086052
:1002100030BF704704201649086000201349086069
:1002200030BF704704201249086001200F49086060
:1002300030BF704704200E49086003200B49086056
:1002400030BF704704C10F4000C00F40A8C10F402D
:1002500000C10F4008C10F40000000100400001052
:10026000080000100C000010C4C00F40C0C00F40B8
:1002700010ED00E0064C074D06E0E06840F0010399
:1002800094E8070098471034AC42F6D3FFF72EFFEE
:10029000B8020000D802000002E008C8121F08C11E
:1002A000002AFAD170477047002001E001C1121FF7
:1002B000002AFBD170470000E80B0000000000108E
:1002C0001400000098020000FC0B00001400001055
:1002D00004040000A802000000000000000000006C
:1002E000000000000000000000000000000000000E
:1002F000000000000000000000000000FFFFFFFF02
:1003000030B5D948006810F4807F6BD1D7480068B9
:1003100010F0010F2CD1D448006810F01F0F01D14C
:10032000002006E0D048006800F01F00D049B1FB73
:10033000F0F0D0490860D048006810F01F0F01D1DC
:10034000002006E0CC48006800F01F00C849B1FB5F
:10035000F0F0CA490860CA48006800F0010000F1E6
:100360000100C4490968B1FBF0F0C6490860B6E075
:10037000C548006810F0400F07D10020BD49086053
:10038000BE490860BF490860A9E0B748006810F09E
:100390001F0F01D1002006E0B348006800F01F00E5
:1003A000B349B1FBF0F0B3490860B348006810F0FE
:1003B0001F0F01D1002006E0AF48006800F01F00C9
:1003C000AB49B1FBF0F0AD490860AD48006800F002
:1003D000010000F10100A7490968B1FBF0F0A9494B
:1003E00008607CE0A948006810F4807F07D10020F5
:1003F000A0490860A1490860A24908606FE09B48D5
:10040000006810F0010F2ED1A04C246804F01F04E6
:1004100004F101009E4CD4F8044104F01F01964CF5
:10042000246804F01F029A4CD4F8004104F001043F
:1004300004F1010309B9002403E08D4C4443B4FBEB
:10044000F1F48C4D2C600AB9002403E0884C44433D
:10045000B4FBF2F4894D2C60864C2468B4FBF3F4B1
:10046000884D2C603BE08848006810F0400F07D1B1
:1004700000208049086081490860824908602EE0B8
:10048000824C246804F01F0404F10100804CD4F86D
:10049000044104F01F01784C246804F01F027C4CD6
:1004A000D4F8004104F0010404F1010309B9002467
:1004B00003E06F4C4443B4FBF1F46E4D2C600AB979
:1004C000002403E06A4C4443B4FBF2F46B4D2C600F
:1004D000684C2468B4FBF3F46A4D2C6000BF6D488F
:1004E000006810F4807F31D06A48006810F01F0067
:1004F00004D0042806D0062823D104E00020664951
:10050000086022E000BF614A126802F01F0202F197
:1005100001005F4AD2F8082102F01F01534A126815
:1005200012F0010F06D0524A4243B2FBF1F25A4B8D
:100530001A6005E04E4A4243B2FBF1F2564B1A6094
:1005400003E000205449086000BF24E051480068DF
:1005500010F4007F1CD04548006810F0010F0BD04C
:100560004E48006800F01F0000F10100404900FB08
:1005700001F0494908600EE04448006800F01F009F
:1005800000F101003A4900FB01F04349086002E034
:1005900000204149086030BD00B520203A4908607C
:1005A00000BF3948006810F0400FFAD001202F49F1
:1005B00008604FF009003649C1F884004FF001008F
:1005C000374908604FF0AA00364908604FF05500DF
:1005D000086000BF2D48006810F4806FFAD0232017
:1005E000314908604FF001002949C1F8A0004FF0DF
:1005F000AA002E4908604FF055002549C1F8AC000B
:1006000000BF2648006810F4806FFAD040F2011055
:100610001549086040F201201D49C1F808014FF05A
:100620000100174908604FF0020021490860124993
:1006300008602048204908604FF480701449C1F8D0
:10064000C8010846D0F8B00140F003001B4908601B
:1006500045F23A000E4908604FF000001849086062
:10066000FFF74EFE00BD000004C10F400CC10F405B
:10067000001BB70000000010A8C10F4004000010CC
:1006800000C10F4008000010A0C10F4088C00F40FB
:1006900000C00F4008C10F400C000010A8C00F4060
:1006A00080C00F408CC00F40A4C00F40ACC00F40B2
:1006B000B4C10F40DE872804C4C00F40B0C10F4052
:1006C00008ED00E001460020062915D2DFE801F020
:1006D0000305080B0E11FB480FE0FA4820300CE030
:1006E000F848403009E0F748603006E0F5488030CF
:1006F00003E0F448A03000E000BF00BF70470146AF
:100700000020062915D2DFE801F00305080B0E11C1
:10071000EC480FE0EB4820300CE0EA48403009E0BC
:10072000E848603006E0E748803003E0E548A03064
:1007300000E000BF00BF704701460020062915D227
:10074000DFE801F00305080B0E11DE480FE0DD487D
:1007500020300CE0DB48403009E0DA48603006E049
:10076000D848803003E0D748A03000E000BF00BF89
:10077000704710B50121C803FFF734FD10BD10B557
:1007800000214FF40040FFF72DFD10BD2DE9F04191
:1007900007460D4616463846FFF794FF04463CB11F
:1007A0001EB120682843206002E02068A843206032
:1007B000BDE8F08170B506460C463046FFF782FF73
:1007C000054605B1AC6170BD70B506460C463046B5
:1007D000FFF778FF054605B1EC6170BD70B50546C1
:1007E0000E46144624B931462846FFF7EDFF03E0D4
:1007F00031462846FFF7DEFF70BD70B50546284636
:10080000FFF760FF04460CB1606970BD0020FCE793
:1008100018B912B9AC4B196014E0022803D112B90F
:10082000AA4B19600EE020B9012A02D1A84B196029
:1008300008E0022804D1012A02D1A64B196001E088
:1008400000BFFEE7704703463BB932B9A2480068D3
:1008500020FA01F000F001007047022B07D132B9F5
:100860009E48006820FA01F000F00100F4E743B967
:10087000012A06D19A48006820FA01F000F0010030
:10088000EAE7022B08D1012A06D19648006820FA2F
:1008900001F000F00100DFE700BFFEE710B9924A67
:1008A000116006E0022802D1904A116001E000BF09
:1008B000FEE7704770B504460D4616463246294697
:1008C0002046FFF763FF70BD70B504460D4629460C
:1008D0002046FFF76FFF70BD70B504460D462946F0
:1008E0002046FFF771FF70BD10B504462046FFF7A4
:1008F00084FF10BD70B504460D46164632462946A3
:100900002046FFF785FF70BD70B504460D461646BC
:10091000324629462046FFF796FF70BD10B50346C4
:100920000C4621461846FFF7B9FF10BD2DE9F041EE
:1009300007460D4616463846FFF7C4FE04463CB14E
:100940001EB120692843206102E02069A84320618C
:10095000BDE8F0812DE9F04180460E4615461F4660
:100960004046FFF7CCFE04468CB147B11EB160880B
:10097000284360800BE020882843208007E01EB1D8
:100980006088A843608002E02088A8432080BDE8FA
:10099000F0812DE9F04180460E4615461F4640463F
:1009A000FFF7ADFE04468CB147B11EB1608A284303
:1009B00060820BE0208A2843208207E01EB1608A13
:1009C000A843608202E0208AA8432082BDE8F0812B
:1009D0002DE9F04107460E4614463846FFF78FFED4
:1009E00005461DB10EB16C8300E02C83BDE8F0819B
:1009F0002DE9F04107460E4614463846FFF77FFEC4
:100A000005461DB10EB1EC8300E0AC83BDE8F0817A
:100A100070B506460D463046FFF771FE044624B118
:100A20000DB1E08A70BDA08AFCE70020FAE72DE94D
:100A3000F04180460C4616461F464046FFF77CFEB6
:100A400005465DB12FB1032C08DC285D30432855E5
:100A500004E0032C02DC285DB0432855BDE8F0819A
:100A60002DE9F04180460C4616461F464046FFF7EA
:100A700063FE05469DB14FB1032C10DC05F110005B
:100A8000005D304305F11001085508E0032C06DC39
:100A900005F11000005DB04305F110010855BDE8F7
:100AA000F0812DE9F04107460C4615463846FFF720
:100AB00043FE064626B1032C02DC06F1180005555C
:100AC000BDE8F0810080092090800240B0800240A3
:100AD00094800240B480024084800240A48002409E
:100AE00088800240A88002408C800240AC80024096
:100AF0002DE9F04107460C4615463846FFF71CFE27
:100B0000064626B1032C02DC06F11C000555BDE8A3
:100B1000F08170B506460C463046FFF70DFE0546DF
:100B20002DB1032C03DC05F11400005D70BD002025
:100B3000FCE7000029480068401C2849086070470D
:100B4000264A116800BF254A1268521A8242FAD317
:100B5000704700240020FFF72EFB05464FF47A7003
:100B6000B5FBF0F0411EB1F1807F00D31DE021F014
:100B70007F40401E4FF0E0225061501707220028AE
:100B800007DA53071F0E164B00F00F06361F9F554E
:100B900003E053071E0E134B1E5400BF00204FF0FE
:100BA000E02290610720106100BFFFF7E2FD012203
:100BB00091041046FFF7EAFD0DE022464FF4802134
:100BC0000120FFF70BFE0CB9012000E000200446D5
:100BD0005020FFF7B5FFF0E7FFF7BBFF1000001054
:100BE00018ED00E000E400E0000E27070087930303
:0C0BF00000879303006CDC020000000092
:04000005000000E512
:00000001FF
